{
  "_format": "hh-sol-artifact-1",
  "contractName": "CyberWayNFT",
  "sourceName": "contracts/CyberWayNFT.sol",
  "abi": [
    {
      "inputs": [
        {
          "internalType": "string",
          "name": "name_",
          "type": "string"
        },
        {
          "internalType": "string",
          "name": "symbol_",
          "type": "string"
        }
      ],
      "stateMutability": "nonpayable",
      "type": "constructor"
    },
    {
      "anonymous": false,
      "inputs": [
        {
          "indexed": true,
          "internalType": "address",
          "name": "owner",
          "type": "address"
        },
        {
          "indexed": true,
          "internalType": "address",
          "name": "approved",
          "type": "address"
        },
        {
          "indexed": true,
          "internalType": "uint256",
          "name": "tokenId",
          "type": "uint256"
        }
      ],
      "name": "Approval",
      "type": "event"
    },
    {
      "anonymous": false,
      "inputs": [
        {
          "indexed": true,
          "internalType": "address",
          "name": "owner",
          "type": "address"
        },
        {
          "indexed": true,
          "internalType": "address",
          "name": "operator",
          "type": "address"
        },
        {
          "indexed": false,
          "internalType": "bool",
          "name": "approved",
          "type": "bool"
        }
      ],
      "name": "ApprovalForAll",
      "type": "event"
    },
    {
      "anonymous": false,
      "inputs": [
        {
          "indexed": true,
          "internalType": "address",
          "name": "previousOwner",
          "type": "address"
        },
        {
          "indexed": true,
          "internalType": "address",
          "name": "newOwner",
          "type": "address"
        }
      ],
      "name": "OwnershipTransferred",
      "type": "event"
    },
    {
      "anonymous": false,
      "inputs": [
        {
          "indexed": true,
          "internalType": "address",
          "name": "from",
          "type": "address"
        },
        {
          "indexed": true,
          "internalType": "address",
          "name": "to",
          "type": "address"
        },
        {
          "indexed": true,
          "internalType": "uint256",
          "name": "tokenId",
          "type": "uint256"
        }
      ],
      "name": "Transfer",
      "type": "event"
    },
    {
      "inputs": [
        {
          "internalType": "address",
          "name": "member",
          "type": "address"
        }
      ],
      "name": "addGovernance",
      "outputs": [],
      "stateMutability": "nonpayable",
      "type": "function"
    },
    {
      "inputs": [
        {
          "internalType": "address",
          "name": "to",
          "type": "address"
        },
        {
          "internalType": "uint256",
          "name": "tokenId",
          "type": "uint256"
        }
      ],
      "name": "approve",
      "outputs": [],
      "stateMutability": "nonpayable",
      "type": "function"
    },
    {
      "inputs": [
        {
          "internalType": "address",
          "name": "owner",
          "type": "address"
        }
      ],
      "name": "balanceOf",
      "outputs": [
        {
          "internalType": "uint256",
          "name": "",
          "type": "uint256"
        }
      ],
      "stateMutability": "view",
      "type": "function"
    },
    {
      "inputs": [
        {
          "internalType": "uint256",
          "name": "tokenId",
          "type": "uint256"
        }
      ],
      "name": "burn",
      "outputs": [],
      "stateMutability": "nonpayable",
      "type": "function"
    },
    {
      "inputs": [
        {
          "internalType": "bytes32",
          "name": "c__0xc0164042",
          "type": "bytes32"
        }
      ],
      "name": "c_0xc0164042",
      "outputs": [],
      "stateMutability": "pure",
      "type": "function"
    },
    {
      "inputs": [
        {
          "internalType": "bytes32",
          "name": "c__0xd27e56de",
          "type": "bytes32"
        }
      ],
      "name": "c_0xd27e56de",
      "outputs": [],
      "stateMutability": "pure",
      "type": "function"
    },
    {
      "inputs": [
        {
          "internalType": "uint256",
          "name": "tokenId",
          "type": "uint256"
        }
      ],
      "name": "getApproved",
      "outputs": [
        {
          "internalType": "address",
          "name": "",
          "type": "address"
        }
      ],
      "stateMutability": "view",
      "type": "function"
    },
    {
      "inputs": [
        {
          "internalType": "uint256",
          "name": "tokenId",
          "type": "uint256"
        }
      ],
      "name": "getTokenColor",
      "outputs": [
        {
          "internalType": "uint8",
          "name": "",
          "type": "uint8"
        }
      ],
      "stateMutability": "view",
      "type": "function"
    },
    {
      "inputs": [
        {
          "internalType": "uint256",
          "name": "tokenId",
          "type": "uint256"
        }
      ],
      "name": "getTokenKind",
      "outputs": [
        {
          "internalType": "uint8",
          "name": "",
          "type": "uint8"
        }
      ],
      "stateMutability": "view",
      "type": "function"
    },
    {
      "inputs": [
        {
          "internalType": "uint256",
          "name": "tokenId",
          "type": "uint256"
        }
      ],
      "name": "getTokenRand",
      "outputs": [
        {
          "internalType": "uint8",
          "name": "",
          "type": "uint8"
        }
      ],
      "stateMutability": "view",
      "type": "function"
    },
    {
      "inputs": [
        {
          "internalType": "address",
          "name": "owner",
          "type": "address"
        },
        {
          "internalType": "address",
          "name": "operator",
          "type": "address"
        }
      ],
      "name": "isApprovedForAll",
      "outputs": [
        {
          "internalType": "bool",
          "name": "",
          "type": "bool"
        }
      ],
      "stateMutability": "view",
      "type": "function"
    },
    {
      "inputs": [
        {
          "internalType": "address",
          "name": "member",
          "type": "address"
        }
      ],
      "name": "isGovernance",
      "outputs": [
        {
          "internalType": "bool",
          "name": "",
          "type": "bool"
        }
      ],
      "stateMutability": "view",
      "type": "function"
    },
    {
      "inputs": [
        {
          "internalType": "address",
          "name": "to",
          "type": "address"
        },
        {
          "internalType": "uint8",
          "name": "kind_",
          "type": "uint8"
        },
        {
          "internalType": "uint8",
          "name": "person_",
          "type": "uint8"
        },
        {
          "internalType": "uint8",
          "name": "rand_",
          "type": "uint8"
        }
      ],
      "name": "mint",
      "outputs": [
        {
          "internalType": "uint256",
          "name": "",
          "type": "uint256"
        }
      ],
      "stateMutability": "nonpayable",
      "type": "function"
    },
    {
      "inputs": [],
      "name": "name",
      "outputs": [
        {
          "internalType": "string",
          "name": "",
          "type": "string"
        }
      ],
      "stateMutability": "view",
      "type": "function"
    },
    {
      "inputs": [],
      "name": "owner",
      "outputs": [
        {
          "internalType": "address",
          "name": "",
          "type": "address"
        }
      ],
      "stateMutability": "view",
      "type": "function"
    },
    {
      "inputs": [
        {
          "internalType": "uint256",
          "name": "tokenId",
          "type": "uint256"
        }
      ],
      "name": "ownerOf",
      "outputs": [
        {
          "internalType": "address",
          "name": "",
          "type": "address"
        }
      ],
      "stateMutability": "view",
      "type": "function"
    },
    {
      "inputs": [
        {
          "internalType": "address",
          "name": "member",
          "type": "address"
        }
      ],
      "name": "removeGovernance",
      "outputs": [],
      "stateMutability": "nonpayable",
      "type": "function"
    },
    {
      "inputs": [],
      "name": "renounceOwnership",
      "outputs": [],
      "stateMutability": "nonpayable",
      "type": "function"
    },
    {
      "inputs": [
        {
          "internalType": "address",
          "name": "from",
          "type": "address"
        },
        {
          "internalType": "address",
          "name": "to",
          "type": "address"
        },
        {
          "internalType": "uint256",
          "name": "tokenId",
          "type": "uint256"
        }
      ],
      "name": "safeTransferFrom",
      "outputs": [],
      "stateMutability": "nonpayable",
      "type": "function"
    },
    {
      "inputs": [
        {
          "internalType": "address",
          "name": "from",
          "type": "address"
        },
        {
          "internalType": "address",
          "name": "to",
          "type": "address"
        },
        {
          "internalType": "uint256",
          "name": "tokenId",
          "type": "uint256"
        },
        {
          "internalType": "bytes",
          "name": "_data",
          "type": "bytes"
        }
      ],
      "name": "safeTransferFrom",
      "outputs": [],
      "stateMutability": "nonpayable",
      "type": "function"
    },
    {
      "inputs": [
        {
          "internalType": "address",
          "name": "operator",
          "type": "address"
        },
        {
          "internalType": "bool",
          "name": "approved",
          "type": "bool"
        }
      ],
      "name": "setApprovalForAll",
      "outputs": [],
      "stateMutability": "nonpayable",
      "type": "function"
    },
    {
      "inputs": [
        {
          "internalType": "bytes4",
          "name": "interfaceId",
          "type": "bytes4"
        }
      ],
      "name": "supportsInterface",
      "outputs": [
        {
          "internalType": "bool",
          "name": "",
          "type": "bool"
        }
      ],
      "stateMutability": "view",
      "type": "function"
    },
    {
      "inputs": [],
      "name": "symbol",
      "outputs": [
        {
          "internalType": "string",
          "name": "",
          "type": "string"
        }
      ],
      "stateMutability": "view",
      "type": "function"
    },
    {
      "inputs": [
        {
          "internalType": "uint256",
          "name": "tokenId",
          "type": "uint256"
        }
      ],
      "name": "tokenURI",
      "outputs": [
        {
          "internalType": "string",
          "name": "",
          "type": "string"
        }
      ],
      "stateMutability": "view",
      "type": "function"
    },
    {
      "inputs": [
        {
          "internalType": "address",
          "name": "from",
          "type": "address"
        },
        {
          "internalType": "address",
          "name": "to",
          "type": "address"
        },
        {
          "internalType": "uint256",
          "name": "tokenId",
          "type": "uint256"
        }
      ],
      "name": "transferFrom",
      "outputs": [],
      "stateMutability": "nonpayable",
      "type": "function"
    },
    {
      "inputs": [
        {
          "internalType": "address",
          "name": "newOwner",
          "type": "address"
        }
      ],
      "name": "transferOwnership",
      "outputs": [],
      "stateMutability": "nonpayable",
      "type": "function"
    }
  ],
  "bytecode": "0x60806040523480156200001157600080fd5b5060405162004148380380620041488339818101604052810190620000379190620002bc565b81818160009080519060200190620000519291906200019a565b5080600190805190602001906200006a9291906200019a565b5050506200008d62000081620000c960201b60201c565b620000d160201b60201c565b620000c17f5934c2a80ecf28e2b37ef88d73f299c76c2fe61fe2f4d311d5c264d1d08bf24560001b6200019760201b60201c565b50506200049f565b600033905090565b6000600660009054906101000a900473ffffffffffffffffffffffffffffffffffffffff16905081600660006101000a81548173ffffffffffffffffffffffffffffffffffffffff021916908373ffffffffffffffffffffffffffffffffffffffff1602179055508173ffffffffffffffffffffffffffffffffffffffff168173ffffffffffffffffffffffffffffffffffffffff167f8be0079c531659141344cd1fd0a4f28419497f9722a3daafe3b4186f6b6457e060405160405180910390a35050565b50565b828054620001a890620003c4565b90600052602060002090601f016020900481019282620001cc576000855562000218565b82601f10620001e757805160ff191683800117855562000218565b8280016001018555821562000218579182015b8281111562000217578251825591602001919060010190620001fa565b5b5090506200022791906200022b565b5090565b5b80821115620002465760008160009055506001016200022c565b5090565b6000620002616200025b8462000358565b6200032f565b9050828152602081018484840111156200027a57600080fd5b620002878482856200038e565b509392505050565b600082601f830112620002a157600080fd5b8151620002b38482602086016200024a565b91505092915050565b60008060408385031215620002d057600080fd5b600083015167ffffffffffffffff811115620002eb57600080fd5b620002f9858286016200028f565b925050602083015167ffffffffffffffff8111156200031757600080fd5b62000325858286016200028f565b9150509250929050565b60006200033b6200034e565b9050620003498282620003fa565b919050565b6000604051905090565b600067ffffffffffffffff8211156200037657620003756200045f565b5b62000381826200048e565b9050602081019050919050565b60005b83811015620003ae57808201518184015260208101905062000391565b83811115620003be576000848401525b50505050565b60006002820490506001821680620003dd57607f821691505b60208210811415620003f457620003f362000430565b5b50919050565b62000405826200048e565b810181811067ffffffffffffffff821117156200042757620004266200045f565b5b80604052505050565b7f4e487b7100000000000000000000000000000000000000000000000000000000600052602260045260246000fd5b7f4e487b7100000000000000000000000000000000000000000000000000000000600052604160045260246000fd5b6000601f19601f8301169050919050565b613c9980620004af6000396000f3fe608060405234801561001057600080fd5b50600436106101ae5760003560e01c80638da5cb5b116100ee578063c75986ee11610097578063dee1f0e411610071578063dee1f0e4146104c3578063e985e9c5146104f3578063f2fde38b14610523578063feb5d4031461053f576101ae565b8063c75986ee14610433578063c87b56dd14610463578063cd4191b114610493576101ae565b8063a22cb465116100c8578063a22cb465146103df578063b88d4fde146103fb578063c4c7f2f414610417576101ae565b80638da5cb5b14610387578063906e2479146103a557806395d89b41146103c1576101ae565b806342842e0e1161015b57806369a8b8831161013557806369a8b8831461030157806370a082311461031d578063715018a61461034d5780638cfe966514610357576101ae565b806342842e0e1461029957806342966c68146102b55780636352211e146102d1576101ae565b8063095ea7b31161018c578063095ea7b3146102315780630facebea1461024d57806323b872dd1461027d576101ae565b806301ffc9a7146101b357806306fdde03146101e3578063081812fc14610201575b600080fd5b6101cd60048036038101906101c89190612c9c565b61055b565b6040516101da91906130d4565b60405180910390f35b6101eb61063d565b6040516101f891906130ef565b60405180910390f35b61021b60048036038101906102169190612cee565b6106cf565b604051610228919061306d565b60405180910390f35b61024b60048036038101906102469190612bd4565b610754565b005b61026760048036038101906102629190612cee565b61086c565b604051610274919061334c565b60405180910390f35b61029760048036038101906102929190612ace565b61094e565b005b6102b360048036038101906102ae9190612ace565b6109ae565b005b6102cf60048036038101906102ca9190612cee565b6109ce565b005b6102eb60048036038101906102e69190612cee565b610ca8565b6040516102f8919061306d565b60405180910390f35b61031b60048036038101906103169190612c73565b610d5a565b005b61033760048036038101906103329190612a69565b610d5d565b6040516103449190613331565b60405180910390f35b610355610e15565b005b610371600480360381019061036c9190612cee565b610e9d565b60405161037e919061334c565b60405180910390f35b61038f610f7f565b60405161039c919061306d565b60405180910390f35b6103bf60048036038101906103ba9190612a69565b610fa9565b005b6103c9611104565b6040516103d691906130ef565b60405180910390f35b6103f960048036038101906103f49190612b98565b611196565b005b61041560048036038101906104109190612b1d565b611317565b005b610431600480360381019061042c9190612a69565b611379565b005b61044d60048036038101906104489190612c10565b6114d4565b60405161045a9190613331565b60405180910390f35b61047d60048036038101906104789190612cee565b611937565b60405161048a91906130ef565b60405180910390f35b6104ad60048036038101906104a89190612cee565b6119de565b6040516104ba919061334c565b60405180910390f35b6104dd60048036038101906104d89190612a69565b611ac0565b6040516104ea91906130d4565b60405180910390f35b61050d60048036038101906105089190612a92565b611b9a565b60405161051a91906130d4565b60405180910390f35b61053d60048036038101906105389190612a69565b611c2e565b005b61055960048036038101906105549190612c73565b611d26565b005b60007f80ac58cd000000000000000000000000000000000000000000000000000000007bffffffffffffffffffffffffffffffffffffffffffffffffffffffff1916827bffffffffffffffffffffffffffffffffffffffffffffffffffffffff1916148061062657507f5b5e139f000000000000000000000000000000000000000000000000000000007bffffffffffffffffffffffffffffffffffffffffffffffffffffffff1916827bffffffffffffffffffffffffffffffffffffffffffffffffffffffff1916145b80610636575061063582611d29565b5b9050919050565b60606000805461064c90613588565b80601f016020809104026020016040519081016040528092919081815260200182805461067890613588565b80156106c55780601f1061069a576101008083540402835291602001916106c5565b820191906000526020600020905b8154815290600101906020018083116106a857829003601f168201915b5050505050905090565b60006106da82611d93565b610719576040517f08c379a000000000000000000000000000000000000000000000000000000000815260040161071090613251565b60405180910390fd5b6004600083815260200190815260200160002060009054906101000a900473ffffffffffffffffffffffffffffffffffffffff169050919050565b600061075f82610ca8565b90508073ffffffffffffffffffffffffffffffffffffffff168373ffffffffffffffffffffffffffffffffffffffff1614156107d0576040517f08c379a00000000000000000000000000000000000000000000000000000000081526004016107c7906132d1565b60405180910390fd5b8073ffffffffffffffffffffffffffffffffffffffff166107ef611dff565b73ffffffffffffffffffffffffffffffffffffffff16148061081e575061081d81610818611dff565b611b9a565b5b61085d576040517f08c379a0000000000000000000000000000000000000000000000000000000008152600401610854906131d1565b60405180910390fd5b6108678383611e07565b505050565b600061089a7f5007a76b988055c928b8289503e8cb0e977257da5deb36c5291b228da30416aa60001b611d26565b6108c67fc040c6ec5680d8f905fbd810186db95c44c61a4a95e0f65d4a976ff8e1d93e5d60001b611d26565b6108f27f397543132cf9b312df8f5912f321266906107f6158bea65182b6cfd195b9c7ff60001b611d26565b6008828154811061092c577f4e487b7100000000000000000000000000000000000000000000000000000000600052603260045260246000fd5b9060005260206000200160000160009054906101000a900460ff169050919050565b61095f610959611dff565b82611ec0565b61099e576040517f08c379a0000000000000000000000000000000000000000000000000000000008152600401610995906132f1565b60405180910390fd5b6109a9838383611f9e565b505050565b6109c983838360405180602001604052806000815250611317565b505050565b6109fa7f3914cff296dd3803b183bcfef909974de0a172ad71bd8dbd75220eeb5de0da9a60001b610d5a565b610a267fe9485587f6394406c55198e7b0ff0b7a55613168409f6004e860289eb7e62d1960001b610d5a565b610a527f46d2423414ef82174796bf6e83263f9ed2104168a23cd6c49bb50f2a6f2e084960001b610d5a565b610a7e7f5978d398294f15cd5a867f28af6292c685da10ef0cc7770238d82bbb251b3ef860001b610d5a565b60076000610a8a611dff565b73ffffffffffffffffffffffffffffffffffffffff1673ffffffffffffffffffffffffffffffffffffffff16815260200190815260200160002060009054906101000a900460ff16610b11576040517f08c379a0000000000000000000000000000000000000000000000000000000008152600401610b0890613311565b60405180910390fd5b610b3d7f9078ed0e748f1ce251a7359390aeb4e66c51462634c02e34711be0cc7d619b2660001b610d5a565b610b697f44890ef26063fe10e7158541fa69ad5577f42b89ca27b7379b731e508dedfd3d60001b610d5a565b610b957f94ee05f17e27a0c1357bee23f03150dedb6940b76a660aa9e2eb1ea2d78baba260001b611d26565b610bc17f14b207a6486a8e526ff29673ecb943335b7d2e649300d5e46df9f550e4afd9eb60001b611d26565b610bed7fa3ed66e8e9c60d85739ff82d3f8ac0ffae0aa9789426a5db0fbafadfaf8aa0e660001b611d26565b610bf6816121fa565b610c227f3d4e7822d4116e2df4eb6c7bc5becae0b9550f7de422dc99547753528a9e44a660001b611d26565b60088181548110610c5c577f4e487b7100000000000000000000000000000000000000000000000000000000600052603260045260246000fd5b90600052602060002001600080820160006101000a81549060ff02191690556000820160016101000a81549060ff02191690556000820160026101000a81549060ff0219169055505050565b6000806002600084815260200190815260200160002060009054906101000a900473ffffffffffffffffffffffffffffffffffffffff169050600073ffffffffffffffffffffffffffffffffffffffff168173ffffffffffffffffffffffffffffffffffffffff161415610d51576040517f08c379a0000000000000000000000000000000000000000000000000000000008152600401610d4890613211565b60405180910390fd5b80915050919050565b50565b60008073ffffffffffffffffffffffffffffffffffffffff168273ffffffffffffffffffffffffffffffffffffffff161415610dce576040517f08c379a0000000000000000000000000000000000000000000000000000000008152600401610dc5906131f1565b60405180910390fd5b600360008373ffffffffffffffffffffffffffffffffffffffff1673ffffffffffffffffffffffffffffffffffffffff168152602001908152602001600020549050919050565b610e1d611dff565b73ffffffffffffffffffffffffffffffffffffffff16610e3b610f7f565b73ffffffffffffffffffffffffffffffffffffffff1614610e91576040517f08c379a0000000000000000000000000000000000000000000000000000000008152600401610e8890613271565b60405180910390fd5b610e9b600061230b565b565b6000610ecb7fa889046ef9578acf4dc588d91527d770fe35701c5c73069a13b43ef913daaf0760001b611d26565b610ef77f89f1b701b2dfd88374af54d877f041a3d8c3f035cddb732b1690b69df326f4a460001b611d26565b610f237f88e26d8824306260b48c4fffbcf1836d983b92af03ea7bae994680af48c4815960001b611d26565b60088281548110610f5d577f4e487b7100000000000000000000000000000000000000000000000000000000600052603260045260246000fd5b9060005260206000200160000160019054906101000a900460ff169050919050565b6000600660009054906101000a900473ffffffffffffffffffffffffffffffffffffffff16905090565b610fb1611dff565b73ffffffffffffffffffffffffffffffffffffffff16610fcf610f7f565b73ffffffffffffffffffffffffffffffffffffffff1614611025576040517f08c379a000000000000000000000000000000000000000000000000000000000815260040161101c90613271565b60405180910390fd5b6110517fe5851f268425ea19b3275f89b1ac56ce99d71cb2ff6b943b36226c77f7998d5160001b610d5a565b61107d7f5dfefa01647d769db5a679d58a1e452861cc381d9be10aa78b8fea6bd18adb6860001b610d5a565b6110a97faf84983d4f9165f1381ce94bbe28f6bed7ca533dcda8c71198305946ec448b5860001b610d5a565b6000600760008373ffffffffffffffffffffffffffffffffffffffff1673ffffffffffffffffffffffffffffffffffffffff16815260200190815260200160002060006101000a81548160ff02191690831515021790555050565b60606001805461111390613588565b80601f016020809104026020016040519081016040528092919081815260200182805461113f90613588565b801561118c5780601f106111615761010080835404028352916020019161118c565b820191906000526020600020905b81548152906001019060200180831161116f57829003601f168201915b5050505050905090565b61119e611dff565b73ffffffffffffffffffffffffffffffffffffffff168273ffffffffffffffffffffffffffffffffffffffff16141561120c576040517f08c379a000000000000000000000000000000000000000000000000000000000815260040161120390613191565b60405180910390fd5b8060056000611219611dff565b73ffffffffffffffffffffffffffffffffffffffff1673ffffffffffffffffffffffffffffffffffffffff16815260200190815260200160002060008473ffffffffffffffffffffffffffffffffffffffff1673ffffffffffffffffffffffffffffffffffffffff16815260200190815260200160002060006101000a81548160ff0219169083151502179055508173ffffffffffffffffffffffffffffffffffffffff166112c6611dff565b73ffffffffffffffffffffffffffffffffffffffff167f17307eab39ab6107e8899845ad3d59bd9653f200f220920489ca2b5937696c318360405161130b91906130d4565b60405180910390a35050565b611328611322611dff565b83611ec0565b611367576040517f08c379a000000000000000000000000000000000000000000000000000000000815260040161135e906132f1565b60405180910390fd5b611373848484846123d1565b50505050565b611381611dff565b73ffffffffffffffffffffffffffffffffffffffff1661139f610f7f565b73ffffffffffffffffffffffffffffffffffffffff16146113f5576040517f08c379a00000000000000000000000000000000000000000000000000000000081526004016113ec90613271565b60405180910390fd5b6114217fd8d49b06544819bda38501c71059368910c189af451209e537e058d25f63848760001b610d5a565b61144d7f80a9260884bd9c341d94e8283b5a10a0e562d3aca7f0e227705eb53062e2891d60001b610d5a565b6114797f5da3b55c695231fc2446724e7c0732bee9133675de84151baede695b8379e5aa60001b610d5a565b6001600760008373ffffffffffffffffffffffffffffffffffffffff1673ffffffffffffffffffffffffffffffffffffffff16815260200190815260200160002060006101000a81548160ff02191690831515021790555050565b60006115027f3914cff296dd3803b183bcfef909974de0a172ad71bd8dbd75220eeb5de0da9a60001b610d5a565b61152e7fe9485587f6394406c55198e7b0ff0b7a55613168409f6004e860289eb7e62d1960001b610d5a565b61155a7f46d2423414ef82174796bf6e83263f9ed2104168a23cd6c49bb50f2a6f2e084960001b610d5a565b6115867f5978d398294f15cd5a867f28af6292c685da10ef0cc7770238d82bbb251b3ef860001b610d5a565b60076000611592611dff565b73ffffffffffffffffffffffffffffffffffffffff1673ffffffffffffffffffffffffffffffffffffffff16815260200190815260200160002060009054906101000a900460ff16611619576040517f08c379a000000000000000000000000000000000000000000000000000000000815260040161161090613311565b60405180910390fd5b6116457f9078ed0e748f1ce251a7359390aeb4e66c51462634c02e34711be0cc7d619b2660001b610d5a565b6116717f44890ef26063fe10e7158541fa69ad5577f42b89ca27b7379b731e508dedfd3d60001b610d5a565b61169d7fc0a022eae843c1e8b759aeffbe04e018dbc04d5029ebc7bacf62286d9f47b19260001b611d26565b6116c97f092609e34c4e04673b58979de806e08840760f58614d555c29fecf33967b96ca60001b611d26565b6116f57f07b7e59428a28ac6b66b1b462a55977e11215719b978cd2dd703770bae6a69df60001b611d26565b600060405180606001604052808660ff1681526020018560ff1681526020018460ff1681525090506117497ff4f560694728222445a5851a53beeba388570b1cbe9abc95adbb7a1194825e2360001b611d26565b6117757ff2936e8f72086760563b6d523a89e896f5d7db9c9d2c94d0607cac6e2bdea77b60001b611d26565b6008819080600181540180825580915050600190039060005260206000200160009091909190915060008201518160000160006101000a81548160ff021916908360ff16021790555060208201518160000160016101000a81548160ff021916908360ff16021790555060408201518160000160026101000a81548160ff021916908360ff160217905550505061182e7f9380e6cb058daf476283a0578b9d8629de7ca2dcec0df50cf8e7ddc5fbfaaba760001b611d26565b61185a7f96cd59a498e805193e090d577f119c86afb0e6bb5a1c8bb5fd033af5b4c18c9660001b611d26565b6000600160088054905061186e9190613487565b905061189c7fb296d4c3e2bdb7c964c20f4308cc700b81d2941735ecc72b9005826ffca2e5df60001b611d26565b6118c87f9bb38666a694e82d407557a08047bb5fee7b8bd5f85fa92c14189d499e74d1ef60001b611d26565b6118d2878261242d565b6118fe7f765d789d30982da46c97fc2b7ce58ee5008cc9fadb2e5176ece1a751d639ed2760001b611d26565b61192a7fd2d586f2afcc2de3101b1d4ef1fb9181c1d95a7b6b21951496451a05c315c4e360001b611d26565b8092505050949350505050565b606061194282611d93565b611981576040517f08c379a0000000000000000000000000000000000000000000000000000000008152600401611978906132b1565b60405180910390fd5b600061198b6125fb565b905060008151116119ab57604051806020016040528060008152506119d6565b806119b584612612565b6040516020016119c6929190613049565b6040516020818303038152906040525b915050919050565b6000611a0c7ff11eba4b4e176d9b5b31184bf5371726ee4ba5ca90802c5c07f169f5ca6c567c60001b611d26565b611a387f234729fef0c125a70cb6236d42cb7f6ba8620cbea331a1e8fe1d596f8808b23360001b611d26565b611a647f175055caf4df62dc1cb5e3fce6aeeb58ae90d249a98d1ec40acf24ce1249c00960001b611d26565b60088281548110611a9e577f4e487b7100000000000000000000000000000000000000000000000000000000600052603260045260246000fd5b9060005260206000200160000160029054906101000a900460ff169050919050565b6000611aee7ffebd910cb17fdd2683f24b77d247157621bccb325767dc467ae324313169823560001b610d5a565b611b1a7fb2fb1d75ada32b2133dc9deba7b909f7cf0fcc1cd5218da1beb658704d625df560001b610d5a565b611b467f69cf5591b5216adf6745f65272236911fc7c96ee55a7e69308ad765d0b34ff7760001b610d5a565b600760008373ffffffffffffffffffffffffffffffffffffffff1673ffffffffffffffffffffffffffffffffffffffff16815260200190815260200160002060009054906101000a900460ff169050919050565b6000600560008473ffffffffffffffffffffffffffffffffffffffff1673ffffffffffffffffffffffffffffffffffffffff16815260200190815260200160002060008373ffffffffffffffffffffffffffffffffffffffff1673ffffffffffffffffffffffffffffffffffffffff16815260200190815260200160002060009054906101000a900460ff16905092915050565b611c36611dff565b73ffffffffffffffffffffffffffffffffffffffff16611c54610f7f565b73ffffffffffffffffffffffffffffffffffffffff1614611caa576040517f08c379a0000000000000000000000000000000000000000000000000000000008152600401611ca190613271565b60405180910390fd5b600073ffffffffffffffffffffffffffffffffffffffff168173ffffffffffffffffffffffffffffffffffffffff161415611d1a576040517f08c379a0000000000000000000000000000000000000000000000000000000008152600401611d1190613131565b60405180910390fd5b611d238161230b565b50565b50565b60007f01ffc9a7000000000000000000000000000000000000000000000000000000007bffffffffffffffffffffffffffffffffffffffffffffffffffffffff1916827bffffffffffffffffffffffffffffffffffffffffffffffffffffffff1916149050919050565b60008073ffffffffffffffffffffffffffffffffffffffff166002600084815260200190815260200160002060009054906101000a900473ffffffffffffffffffffffffffffffffffffffff1673ffffffffffffffffffffffffffffffffffffffff1614159050919050565b600033905090565b816004600083815260200190815260200160002060006101000a81548173ffffffffffffffffffffffffffffffffffffffff021916908373ffffffffffffffffffffffffffffffffffffffff160217905550808273ffffffffffffffffffffffffffffffffffffffff16611e7a83610ca8565b73ffffffffffffffffffffffffffffffffffffffff167f8c5be1e5ebec7d5bd14f71427d1e84f3dd0314c0f7b2291e5b200ac8c7c3b92560405160405180910390a45050565b6000611ecb82611d93565b611f0a576040517f08c379a0000000000000000000000000000000000000000000000000000000008152600401611f01906131b1565b60405180910390fd5b6000611f1583610ca8565b90508073ffffffffffffffffffffffffffffffffffffffff168473ffffffffffffffffffffffffffffffffffffffff161480611f8457508373ffffffffffffffffffffffffffffffffffffffff16611f6c846106cf565b73ffffffffffffffffffffffffffffffffffffffff16145b80611f955750611f948185611b9a565b5b91505092915050565b8273ffffffffffffffffffffffffffffffffffffffff16611fbe82610ca8565b73ffffffffffffffffffffffffffffffffffffffff1614612014576040517f08c379a000000000000000000000000000000000000000000000000000000000815260040161200b90613291565b60405180910390fd5b600073ffffffffffffffffffffffffffffffffffffffff168273ffffffffffffffffffffffffffffffffffffffff161415612084576040517f08c379a000000000000000000000000000000000000000000000000000000000815260040161207b90613171565b60405180910390fd5b61208f8383836127bf565b61209a600082611e07565b6001600360008573ffffffffffffffffffffffffffffffffffffffff1673ffffffffffffffffffffffffffffffffffffffff16815260200190815260200160002060008282546120ea9190613487565b925050819055506001600360008473ffffffffffffffffffffffffffffffffffffffff1673ffffffffffffffffffffffffffffffffffffffff16815260200190815260200160002060008282546121419190613400565b92505081905550816002600083815260200190815260200160002060006101000a81548173ffffffffffffffffffffffffffffffffffffffff021916908373ffffffffffffffffffffffffffffffffffffffff160217905550808273ffffffffffffffffffffffffffffffffffffffff168473ffffffffffffffffffffffffffffffffffffffff167fddf252ad1be2c89b69c2b068fc378daa952ba7f163c4a11628f55a4df523b3ef60405160405180910390a4505050565b600061220582610ca8565b9050612213816000846127bf565b61221e600083611e07565b6001600360008373ffffffffffffffffffffffffffffffffffffffff1673ffffffffffffffffffffffffffffffffffffffff168152602001908152602001600020600082825461226e9190613487565b925050819055506002600083815260200190815260200160002060006101000a81549073ffffffffffffffffffffffffffffffffffffffff021916905581600073ffffffffffffffffffffffffffffffffffffffff168273ffffffffffffffffffffffffffffffffffffffff167fddf252ad1be2c89b69c2b068fc378daa952ba7f163c4a11628f55a4df523b3ef60405160405180910390a45050565b6000600660009054906101000a900473ffffffffffffffffffffffffffffffffffffffff16905081600660006101000a81548173ffffffffffffffffffffffffffffffffffffffff021916908373ffffffffffffffffffffffffffffffffffffffff1602179055508173ffffffffffffffffffffffffffffffffffffffff168173ffffffffffffffffffffffffffffffffffffffff167f8be0079c531659141344cd1fd0a4f28419497f9722a3daafe3b4186f6b6457e060405160405180910390a35050565b6123dc848484611f9e565b6123e8848484846127c4565b612427576040517f08c379a000000000000000000000000000000000000000000000000000000000815260040161241e90613111565b60405180910390fd5b50505050565b600073ffffffffffffffffffffffffffffffffffffffff168273ffffffffffffffffffffffffffffffffffffffff16141561249d576040517f08c379a000000000000000000000000000000000000000000000000000000000815260040161249490613231565b60405180910390fd5b6124a681611d93565b156124e6576040517f08c379a00000000000000000000000000000000000000000000000000000000081526004016124dd90613151565b60405180910390fd5b6124f2600083836127bf565b6001600360008473ffffffffffffffffffffffffffffffffffffffff1673ffffffffffffffffffffffffffffffffffffffff16815260200190815260200160002060008282546125429190613400565b92505081905550816002600083815260200190815260200160002060006101000a81548173ffffffffffffffffffffffffffffffffffffffff021916908373ffffffffffffffffffffffffffffffffffffffff160217905550808273ffffffffffffffffffffffffffffffffffffffff16600073ffffffffffffffffffffffffffffffffffffffff167fddf252ad1be2c89b69c2b068fc378daa952ba7f163c4a11628f55a4df523b3ef60405160405180910390a45050565b606060405180602001604052806000815250905090565b6060600082141561265a576040518060400160405280600181526020017f300000000000000000000000000000000000000000000000000000000000000081525090506127ba565b600082905060005b6000821461268c578080612675906135eb565b915050600a826126859190613456565b9150612662565b60008167ffffffffffffffff8111156126ce577f4e487b7100000000000000000000000000000000000000000000000000000000600052604160045260246000fd5b6040519080825280601f01601f1916602001820160405280156127005781602001600182028036833780820191505090505b5090505b600085146127b3576001826127199190613487565b9150600a856127289190613634565b60306127349190613400565b60f81b818381518110612770577f4e487b7100000000000000000000000000000000000000000000000000000000600052603260045260246000fd5b60200101907effffffffffffffffffffffffffffffffffffffffffffffffffffffffffffff1916908160001a905350600a856127ac9190613456565b9450612704565b8093505050505b919050565b505050565b60006127e58473ffffffffffffffffffffffffffffffffffffffff1661295b565b1561294e578373ffffffffffffffffffffffffffffffffffffffff1663150b7a0261280e611dff565b8786866040518563ffffffff1660e01b81526004016128309493929190613088565b602060405180830381600087803b15801561284a57600080fd5b505af192505050801561287b57506040513d601f19601f820116820180604052508101906128789190612cc5565b60015b6128fe573d80600081146128ab576040519150601f19603f3d011682016040523d82523d6000602084013e6128b0565b606091505b506000815114156128f6576040517f08c379a00000000000000000000000000000000000000000000000000000000081526004016128ed90613111565b60405180910390fd5b805181602001fd5b63150b7a0260e01b7bffffffffffffffffffffffffffffffffffffffffffffffffffffffff1916817bffffffffffffffffffffffffffffffffffffffffffffffffffffffff191614915050612953565b600190505b949350505050565b600080823b905060008111915050919050565b600061298161297c8461338c565b613367565b90508281526020810184848401111561299957600080fd5b6129a4848285613546565b509392505050565b6000813590506129bb81613bd9565b92915050565b6000813590506129d081613bf0565b92915050565b6000813590506129e581613c07565b92915050565b6000813590506129fa81613c1e565b92915050565b600081519050612a0f81613c1e565b92915050565b600082601f830112612a2657600080fd5b8135612a3684826020860161296e565b91505092915050565b600081359050612a4e81613c35565b92915050565b600081359050612a6381613c4c565b92915050565b600060208284031215612a7b57600080fd5b6000612a89848285016129ac565b91505092915050565b60008060408385031215612aa557600080fd5b6000612ab3858286016129ac565b9250506020612ac4858286016129ac565b9150509250929050565b600080600060608486031215612ae357600080fd5b6000612af1868287016129ac565b9350506020612b02868287016129ac565b9250506040612b1386828701612a3f565b9150509250925092565b60008060008060808587031215612b3357600080fd5b6000612b41878288016129ac565b9450506020612b52878288016129ac565b9350506040612b6387828801612a3f565b925050606085013567ffffffffffffffff811115612b8057600080fd5b612b8c87828801612a15565b91505092959194509250565b60008060408385031215612bab57600080fd5b6000612bb9858286016129ac565b9250506020612bca858286016129c1565b9150509250929050565b60008060408385031215612be757600080fd5b6000612bf5858286016129ac565b9250506020612c0685828601612a3f565b9150509250929050565b60008060008060808587031215612c2657600080fd5b6000612c34878288016129ac565b9450506020612c4587828801612a54565b9350506040612c5687828801612a54565b9250506060612c6787828801612a54565b91505092959194509250565b600060208284031215612c8557600080fd5b6000612c93848285016129d6565b91505092915050565b600060208284031215612cae57600080fd5b6000612cbc848285016129eb565b91505092915050565b600060208284031215612cd757600080fd5b6000612ce584828501612a00565b91505092915050565b600060208284031215612d0057600080fd5b6000612d0e84828501612a3f565b91505092915050565b612d20816134bb565b82525050565b612d2f816134cd565b82525050565b6000612d40826133bd565b612d4a81856133d3565b9350612d5a818560208601613555565b612d6381613721565b840191505092915050565b6000612d79826133c8565b612d8381856133e4565b9350612d93818560208601613555565b612d9c81613721565b840191505092915050565b6000612db2826133c8565b612dbc81856133f5565b9350612dcc818560208601613555565b80840191505092915050565b6000612de56032836133e4565b9150612df082613732565b604082019050919050565b6000612e086026836133e4565b9150612e1382613781565b604082019050919050565b6000612e2b601c836133e4565b9150612e36826137d0565b602082019050919050565b6000612e4e6024836133e4565b9150612e59826137f9565b604082019050919050565b6000612e716019836133e4565b9150612e7c82613848565b602082019050919050565b6000612e94602c836133e4565b9150612e9f82613871565b604082019050919050565b6000612eb76038836133e4565b9150612ec2826138c0565b604082019050919050565b6000612eda602a836133e4565b9150612ee58261390f565b604082019050919050565b6000612efd6029836133e4565b9150612f088261395e565b604082019050919050565b6000612f206020836133e4565b9150612f2b826139ad565b602082019050919050565b6000612f43602c836133e4565b9150612f4e826139d6565b604082019050919050565b6000612f666020836133e4565b9150612f7182613a25565b602082019050919050565b6000612f896029836133e4565b9150612f9482613a4e565b604082019050919050565b6000612fac602f836133e4565b9150612fb782613a9d565b604082019050919050565b6000612fcf6021836133e4565b9150612fda82613aec565b604082019050919050565b6000612ff26031836133e4565b9150612ffd82613b3b565b604082019050919050565b60006130156027836133e4565b915061302082613b8a565b604082019050919050565b6130348161352f565b82525050565b61304381613539565b82525050565b60006130558285612da7565b91506130618284612da7565b91508190509392505050565b60006020820190506130826000830184612d17565b92915050565b600060808201905061309d6000830187612d17565b6130aa6020830186612d17565b6130b7604083018561302b565b81810360608301526130c98184612d35565b905095945050505050565b60006020820190506130e96000830184612d26565b92915050565b600060208201905081810360008301526131098184612d6e565b905092915050565b6000602082019050818103600083015261312a81612dd8565b9050919050565b6000602082019050818103600083015261314a81612dfb565b9050919050565b6000602082019050818103600083015261316a81612e1e565b9050919050565b6000602082019050818103600083015261318a81612e41565b9050919050565b600060208201905081810360008301526131aa81612e64565b9050919050565b600060208201905081810360008301526131ca81612e87565b9050919050565b600060208201905081810360008301526131ea81612eaa565b9050919050565b6000602082019050818103600083015261320a81612ecd565b9050919050565b6000602082019050818103600083015261322a81612ef0565b9050919050565b6000602082019050818103600083015261324a81612f13565b9050919050565b6000602082019050818103600083015261326a81612f36565b9050919050565b6000602082019050818103600083015261328a81612f59565b9050919050565b600060208201905081810360008301526132aa81612f7c565b9050919050565b600060208201905081810360008301526132ca81612f9f565b9050919050565b600060208201905081810360008301526132ea81612fc2565b9050919050565b6000602082019050818103600083015261330a81612fe5565b9050919050565b6000602082019050818103600083015261332a81613008565b9050919050565b6000602082019050613346600083018461302b565b92915050565b6000602082019050613361600083018461303a565b92915050565b6000613371613382565b905061337d82826135ba565b919050565b6000604051905090565b600067ffffffffffffffff8211156133a7576133a66136f2565b5b6133b082613721565b9050602081019050919050565b600081519050919050565b600081519050919050565b600082825260208201905092915050565b600082825260208201905092915050565b600081905092915050565b600061340b8261352f565b91506134168361352f565b9250827fffffffffffffffffffffffffffffffffffffffffffffffffffffffffffffffff0382111561344b5761344a613665565b5b828201905092915050565b60006134618261352f565b915061346c8361352f565b92508261347c5761347b613694565b5b828204905092915050565b60006134928261352f565b915061349d8361352f565b9250828210156134b0576134af613665565b5b828203905092915050565b60006134c68261350f565b9050919050565b60008115159050919050565b6000819050919050565b60007fffffffff0000000000000000000000000000000000000000000000000000000082169050919050565b600073ffffffffffffffffffffffffffffffffffffffff82169050919050565b6000819050919050565b600060ff82169050919050565b82818337600083830152505050565b60005b83811015613573578082015181840152602081019050613558565b83811115613582576000848401525b50505050565b600060028204905060018216806135a057607f821691505b602082108114156135b4576135b36136c3565b5b50919050565b6135c382613721565b810181811067ffffffffffffffff821117156135e2576135e16136f2565b5b80604052505050565b60006135f68261352f565b91507fffffffffffffffffffffffffffffffffffffffffffffffffffffffffffffffff82141561362957613628613665565b5b600182019050919050565b600061363f8261352f565b915061364a8361352f565b92508261365a57613659613694565b5b828206905092915050565b7f4e487b7100000000000000000000000000000000000000000000000000000000600052601160045260246000fd5b7f4e487b7100000000000000000000000000000000000000000000000000000000600052601260045260246000fd5b7f4e487b7100000000000000000000000000000000000000000000000000000000600052602260045260246000fd5b7f4e487b7100000000000000000000000000000000000000000000000000000000600052604160045260246000fd5b6000601f19601f8301169050919050565b7f4552433732313a207472616e7366657220746f206e6f6e20455243373231526560008201527f63656976657220696d706c656d656e7465720000000000000000000000000000602082015250565b7f4f776e61626c653a206e6577206f776e657220697320746865207a65726f206160008201527f6464726573730000000000000000000000000000000000000000000000000000602082015250565b7f4552433732313a20746f6b656e20616c7265616479206d696e74656400000000600082015250565b7f4552433732313a207472616e7366657220746f20746865207a65726f2061646460008201527f7265737300000000000000000000000000000000000000000000000000000000602082015250565b7f4552433732313a20617070726f766520746f2063616c6c657200000000000000600082015250565b7f4552433732313a206f70657261746f7220717565727920666f72206e6f6e657860008201527f697374656e7420746f6b656e0000000000000000000000000000000000000000602082015250565b7f4552433732313a20617070726f76652063616c6c6572206973206e6f74206f7760008201527f6e6572206e6f7220617070726f76656420666f7220616c6c0000000000000000602082015250565b7f4552433732313a2062616c616e636520717565727920666f7220746865207a6560008201527f726f206164647265737300000000000000000000000000000000000000000000602082015250565b7f4552433732313a206f776e657220717565727920666f72206e6f6e657869737460008201527f656e7420746f6b656e0000000000000000000000000000000000000000000000602082015250565b7f4552433732313a206d696e7420746f20746865207a65726f2061646472657373600082015250565b7f4552433732313a20617070726f76656420717565727920666f72206e6f6e657860008201527f697374656e7420746f6b656e0000000000000000000000000000000000000000602082015250565b7f4f776e61626c653a2063616c6c6572206973206e6f7420746865206f776e6572600082015250565b7f4552433732313a207472616e73666572206f6620746f6b656e2074686174206960008201527f73206e6f74206f776e0000000000000000000000000000000000000000000000602082015250565b7f4552433732314d657461646174613a2055524920717565727920666f72206e6f60008201527f6e6578697374656e7420746f6b656e0000000000000000000000000000000000602082015250565b7f4552433732313a20617070726f76616c20746f2063757272656e74206f776e6560008201527f7200000000000000000000000000000000000000000000000000000000000000602082015250565b7f4552433732313a207472616e736665722063616c6c6572206973206e6f74206f60008201527f776e6572206e6f7220617070726f766564000000000000000000000000000000602082015250565b7f43594245525f4e46543a2063616c6c6572206973206e6f742074686520676f7660008201527f65726e616e636500000000000000000000000000000000000000000000000000602082015250565b613be2816134bb565b8114613bed57600080fd5b50565b613bf9816134cd565b8114613c0457600080fd5b50565b613c10816134d9565b8114613c1b57600080fd5b50565b613c27816134e3565b8114613c3257600080fd5b50565b613c3e8161352f565b8114613c4957600080fd5b50565b613c5581613539565b8114613c6057600080fd5b5056fea264697066735822122000435efdb513f20447f4cfb84e8b1d687ee5788ade92340daac6dedb8f8bc42764736f6c63430008040033",
  "linkReferences": {},
  "deployedLinkReferences": {}
}