{
  "_format": "hh-sol-artifact-1",
  "contractName": "Farming",
  "sourceName": "contracts/Farming.sol",
  "abi": [
    {
      "inputs": [
        {
          "internalType": "address",
          "name": "nft",
          "type": "address"
        },
        {
          "internalType": "address",
          "name": "token",
          "type": "address"
        }
      ],
      "stateMutability": "nonpayable",
      "type": "constructor"
    },
    {
      "anonymous": false,
      "inputs": [
        {
          "indexed": false,
          "internalType": "address",
          "name": "sender",
          "type": "address"
        },
        {
          "indexed": false,
          "internalType": "uint256",
          "name": "id",
          "type": "uint256"
        },
        {
          "indexed": false,
          "internalType": "uint256",
          "name": "startBlock",
          "type": "uint256"
        }
      ],
      "name": "NFTDeposited",
      "type": "event"
    },
    {
      "anonymous": false,
      "inputs": [],
      "name": "NFTDeposited",
      "type": "event"
    },
    {
      "anonymous": false,
      "inputs": [
        {
          "indexed": false,
          "internalType": "address",
          "name": "sender",
          "type": "address"
        },
        {
          "indexed": false,
          "internalType": "uint256",
          "name": "id",
          "type": "uint256"
        },
        {
          "indexed": false,
          "internalType": "uint256",
          "name": "block",
          "type": "uint256"
        }
      ],
      "name": "NFTEmergencyWithdrawn",
      "type": "event"
    },
    {
      "anonymous": false,
      "inputs": [
        {
          "indexed": false,
          "internalType": "address",
          "name": "sender",
          "type": "address"
        },
        {
          "indexed": false,
          "internalType": "uint256",
          "name": "id",
          "type": "uint256"
        },
        {
          "indexed": false,
          "internalType": "uint256",
          "name": "amount",
          "type": "uint256"
        }
      ],
      "name": "NFTWithdrawn",
      "type": "event"
    },
    {
      "anonymous": false,
      "inputs": [
        {
          "indexed": true,
          "internalType": "address",
          "name": "previousOwner",
          "type": "address"
        },
        {
          "indexed": true,
          "internalType": "address",
          "name": "newOwner",
          "type": "address"
        }
      ],
      "name": "OwnershipTransferred",
      "type": "event"
    },
    {
      "inputs": [],
      "name": "basicLockPeriod",
      "outputs": [
        {
          "internalType": "uint256",
          "name": "",
          "type": "uint256"
        }
      ],
      "stateMutability": "view",
      "type": "function"
    },
    {
      "inputs": [
        {
          "internalType": "bytes32",
          "name": "c__0x04ee7251",
          "type": "bytes32"
        }
      ],
      "name": "c_0x04ee7251",
      "outputs": [],
      "stateMutability": "pure",
      "type": "function"
    },
    {
      "inputs": [],
      "name": "cyberNft",
      "outputs": [
        {
          "internalType": "contract ICyberWayNFT",
          "name": "",
          "type": "address"
        }
      ],
      "stateMutability": "view",
      "type": "function"
    },
    {
      "inputs": [],
      "name": "cyberToken",
      "outputs": [
        {
          "internalType": "contract IERC20",
          "name": "",
          "type": "address"
        }
      ],
      "stateMutability": "view",
      "type": "function"
    },
    {
      "inputs": [
        {
          "internalType": "uint256",
          "name": "id",
          "type": "uint256"
        }
      ],
      "name": "depositFarmingToken",
      "outputs": [],
      "stateMutability": "nonpayable",
      "type": "function"
    },
    {
      "inputs": [
        {
          "internalType": "uint256",
          "name": "id",
          "type": "uint256"
        }
      ],
      "name": "emergencyWithdrawFarmingToken",
      "outputs": [],
      "stateMutability": "nonpayable",
      "type": "function"
    },
    {
      "inputs": [],
      "name": "getCurrentBlockReward",
      "outputs": [
        {
          "internalType": "uint256",
          "name": "",
          "type": "uint256"
        }
      ],
      "stateMutability": "view",
      "type": "function"
    },
    {
      "inputs": [],
      "name": "owner",
      "outputs": [
        {
          "internalType": "address",
          "name": "",
          "type": "address"
        }
      ],
      "stateMutability": "view",
      "type": "function"
    },
    {
      "inputs": [
        {
          "internalType": "address",
          "name": "user",
          "type": "address"
        },
        {
          "internalType": "uint256",
          "name": "id",
          "type": "uint256"
        }
      ],
      "name": "pendingToken",
      "outputs": [
        {
          "internalType": "uint256",
          "name": "",
          "type": "uint256"
        }
      ],
      "stateMutability": "view",
      "type": "function"
    },
    {
      "inputs": [],
      "name": "renounceOwnership",
      "outputs": [],
      "stateMutability": "nonpayable",
      "type": "function"
    },
    {
      "inputs": [
        {
          "internalType": "uint256",
          "name": "newAmount",
          "type": "uint256"
        }
      ],
      "name": "setBasicLockPeriod",
      "outputs": [],
      "stateMutability": "nonpayable",
      "type": "function"
    },
    {
      "inputs": [
        {
          "internalType": "uint256",
          "name": "newAmount",
          "type": "uint256"
        }
      ],
      "name": "setTokenPerBlock",
      "outputs": [],
      "stateMutability": "nonpayable",
      "type": "function"
    },
    {
      "inputs": [
        {
          "internalType": "address",
          "name": "newOwner",
          "type": "address"
        }
      ],
      "name": "transferOwnership",
      "outputs": [],
      "stateMutability": "nonpayable",
      "type": "function"
    },
    {
      "inputs": [
        {
          "internalType": "address",
          "name": "",
          "type": "address"
        },
        {
          "internalType": "uint256",
          "name": "",
          "type": "uint256"
        }
      ],
      "name": "userInfo",
      "outputs": [
        {
          "internalType": "uint256",
          "name": "",
          "type": "uint256"
        }
      ],
      "stateMutability": "view",
      "type": "function"
    },
    {
      "inputs": [
        {
          "internalType": "uint256",
          "name": "id",
          "type": "uint256"
        }
      ],
      "name": "withdrawFarmingToken",
      "outputs": [],
      "stateMutability": "nonpayable",
      "type": "function"
    }
  ],
  "bytecode": "0x608060405262031380600455671bc16d674ec800006005553480156200002457600080fd5b50604051620026413803806200264183398181016040528101906200004a9190620002de565b6200006a6200005e620001f860201b60201c565b6200020060201b60201c565b6200009e7feabe5a13b67af87bc4daed5d2bc2dc8e822a7f66a1597c44673d93f735c7c35e60001b620002c460201b60201c565b620000d27fa6e785e11e120d226b44fb9182a1990fb9d179c82bb4609dbe48561f9301047960001b620002c460201b60201c565b620001067f2284c2a0a89a5b0d267eae7ecc0bf2247413e32e270b09becbfe3c7e285caf8460001b620002c460201b60201c565b81600360006101000a81548173ffffffffffffffffffffffffffffffffffffffff021916908373ffffffffffffffffffffffffffffffffffffffff1602179055506200017b7f7b32c053ec9c5dafb3ac23065b41f72ed2803b3cdec4bad67de333c61baffc4160001b620002c460201b60201c565b620001af7f73b584d1185a74c6fb5d8e8ce023514fd0dd4daeb3b5f7608012080b0dee16cf60001b620002c460201b60201c565b80600260006101000a81548173ffffffffffffffffffffffffffffffffffffffff021916908373ffffffffffffffffffffffffffffffffffffffff16021790555050506200036d565b600033905090565b60008060009054906101000a900473ffffffffffffffffffffffffffffffffffffffff169050816000806101000a81548173ffffffffffffffffffffffffffffffffffffffff021916908373ffffffffffffffffffffffffffffffffffffffff1602179055508173ffffffffffffffffffffffffffffffffffffffff168173ffffffffffffffffffffffffffffffffffffffff167f8be0079c531659141344cd1fd0a4f28419497f9722a3daafe3b4186f6b6457e060405160405180910390a35050565b50565b600081519050620002d88162000353565b92915050565b60008060408385031215620002f257600080fd5b60006200030285828601620002c7565b92505060206200031585828601620002c7565b9150509250929050565b60006200032c8262000333565b9050919050565b600073ffffffffffffffffffffffffffffffffffffffff82169050919050565b6200035e816200031f565b81146200036a57600080fd5b50565b6122c4806200037d6000396000f3fe608060405234801561001057600080fd5b50600436106100f55760003560e01c8063715018a6116100975780639646d9a7116100665780639646d9a714610236578063c59a31b614610266578063f16b268e14610284578063f2fde38b146102a2576100f5565b8063715018a6146101d657806372d05b5c146101e057806388b03ced146101fc5780638da5cb5b14610218576100f5565b8063411330bd116100d3578063411330bd14610162578063448b8be81461017e5780634a80d7bd1461019c5780634efdc326146101ba576100f5565b806308f1d0ce146100fa57806321ce919d1461011657806335942d4f14610146575b600080fd5b610114600480360381019061010f9190611b60565b6102be565b005b610130600480360381019061012b9190611ad2565b61091a565b60405161013d9190611ec5565b60405180910390f35b610160600480360381019061015b9190611b37565b61093f565b005b61017c60048036038101906101779190611b60565b610942565b005b610186610b40565b6040516101939190611daa565b60405180910390f35b6101a4610b66565b6040516101b19190611ec5565b60405180910390f35b6101d460048036038101906101cf9190611b60565b610bf4565b005b6101de610fdf565b005b6101fa60048036038101906101f59190611b60565b611067565b005b61021660048036038101906102119190611b60565b611264565b005b610220611601565b60405161022d9190611cdd565b60405180910390f35b610250600480360381019061024b9190611ad2565b61162a565b60405161025d9190611ec5565b60405180910390f35b61026e611865565b60405161027b9190611d8f565b60405180910390f35b61028c61188b565b6040516102999190611ec5565b60405180910390f35b6102bc60048036038101906102b79190611aa9565b611891565b005b6102ea7fec70db54eea518199045fffe2c313c46c0535369a9fc83a34c1bd9a6ff64e16f60001b61093f565b6103167f1bb6a80a4cd89cf3ddf046a1b4e2c6b5b7f6fec5947569fc8a9b8edf9ced1a7260001b61093f565b6103427ff4fc63ad88f32ceb94e9711b41833e2d8ea2c5d33596cb71c5cb94221abe3dac60001b61093f565b61036e7fd3d3a3357f48ed8f7cf12cee05b071f58ce162b2aafcaa681d65e3756a24da0460001b61093f565b43600454600160003373ffffffffffffffffffffffffffffffffffffffff1673ffffffffffffffffffffffffffffffffffffffff1681526020019081526020016000206000848152602001908152602001600020546103cd9190611ef1565b111561040e576040517f08c379a000000000000000000000000000000000000000000000000000000000815260040161040590611dc5565b60405180910390fd5b61043a7f1f3e213e0dca88cc1ede973a78b5252b39a178c00334a7af3c42f1f244e4b23760001b61093f565b6104667f6f6aff01b26109216d66a7485452a72d9ffd11d92b1d6e5c70234534e7b4690960001b61093f565b6104927ffa2e4fd5fadb2a5805f42209f44e9f7452b836f93f120fcc61c8c5b2419579e360001b61093f565b6104be7f94c991b271d435ee535cb9a2dc121edb826d28a722c3e4fa27d833d5f83983b260001b61093f565b6000600160003373ffffffffffffffffffffffffffffffffffffffff1673ffffffffffffffffffffffffffffffffffffffff1681526020019081526020016000206000838152602001908152602001600020541415610552576040517f08c379a000000000000000000000000000000000000000000000000000000000815260040161054990611e25565b60405180910390fd5b61057e7fb1977255568e73b810ad6325d85a3f59b1cb8d21c96d96046bd6794757c1258d60001b61093f565b6105aa7f31db5570866dda49775adee297326a17614608a2adb29e45eed0a50059bd23b260001b61093f565b6105d67f35f9790679661d936959b55c3e68371fa41366a57a27713db69da23e9a3fa03860001b61093f565b60006105e2338361162a565b90506106107f069211490d8285e80d1b9704e428e4b937f80e9ae30c77adde17a4b6a7ad939760001b61093f565b61063c7f8dccf4d2b4942c05e548364a478d0f7b3b1ef7e2fcb1c8672582318202c60b5a60001b61093f565b6000600160003373ffffffffffffffffffffffffffffffffffffffff1673ffffffffffffffffffffffffffffffffffffffff1681526020019081526020016000206000848152602001908152602001600020819055506106be7f1b94d8f95400e7fc2d9d46552f83a6188f44af511fe14d63712866d37c822ae360001b61093f565b6106ea7f2f067e461d77c4b1eddc6a539332270d511a8c80cb3161edc847837a1550015a60001b61093f565b600260009054906101000a900473ffffffffffffffffffffffffffffffffffffffff1673ffffffffffffffffffffffffffffffffffffffff1663a9059cbb33836040518363ffffffff1660e01b8152600401610747929190611d2f565b602060405180830381600087803b15801561076157600080fd5b505af1158015610775573d6000803e3d6000fd5b505050506040513d601f19601f820116820180604052508101906107999190611b0e565b506107c67f04e1634a2360400a40a63e9631d02c0525a6c8b4ec632880b403f4005148ac2060001b61093f565b6107f27f34a8c59aba563f070239d6351c6e04178fa2a02607c876a77ed931ca42acf7c860001b61093f565b600360009054906101000a900473ffffffffffffffffffffffffffffffffffffffff1673ffffffffffffffffffffffffffffffffffffffff166323b872dd3033856040518463ffffffff1660e01b815260040161085193929190611cf8565b600060405180830381600087803b15801561086b57600080fd5b505af115801561087f573d6000803e3d6000fd5b505050506108af7f9a7bf88f7afb01bd6435894d8e31cabc8112f4252cd1e29bdf0b05529b8b2d5960001b61093f565b6108db7f85e510fd08eec7c6d863ca04e33f45cfa08949fb9474afd373f9a7bd94db085c60001b61093f565b7f8e52db99ce3ea11f5ce05e25a6d21952ef9c65a56f572b7b6039f3dc608808c833838360405161090e93929190611d58565b60405180910390a15050565b6001602052816000526040600020602052806000526040600020600091509150505481565b50565b61094a611989565b73ffffffffffffffffffffffffffffffffffffffff16610968611601565b73ffffffffffffffffffffffffffffffffffffffff16146109be576040517f08c379a00000000000000000000000000000000000000000000000000000000081526004016109b590611e45565b60405180910390fd5b6109ea7f89226d4c6fb5140f6080c726a1df5334951960a269021c32090cfa8055fecc2760001b61093f565b610a167fd1c177d41c4099215a467055315a415a140a9af3d073f08d16a9128f4e4b9f2860001b61093f565b610a427f6b9c4be2875e7a57b69d1564b72621ae104b0b04d6a6819273a0f27d7e019d8460001b61093f565b610a6e7f1f1b27efec1b30397abf9f4689848e8bf1c63d2f63c603b74d162f2257f2fc3d60001b61093f565b6000811415610ab2576040517f08c379a0000000000000000000000000000000000000000000000000000000008152600401610aa990611e65565b60405180910390fd5b610ade7f8a440a6a36682cb8ce36d85e00d411d4a3f8b175636e0f5f578f89a3c9c9c22760001b61093f565b610b0a7f197343dba043a7b52710c728b18bf693378f26c28b30c62b40c88ad9e957692160001b61093f565b610b367fa336ac773c367d943e03e6782b39a00f81b34a3907587b5bef63fce6ab03e99b60001b61093f565b8060058190555050565b600260009054906101000a900473ffffffffffffffffffffffffffffffffffffffff1681565b6000610b947f51c84e3d744af9dd8edff805033082e436a86dfdc19e79673b12628df4f351fe60001b61093f565b610bc07fd37c901bfa34b6badfb99340e8f66cbd23e9974b1f5a1cec04384ef21b56f3ec60001b61093f565b610bec7f097596e387f95494b007abe425f5fb9da30760bf359d44521298d6be6c82c61060001b61093f565b600554905090565b610c207fa048389360da1c2233e2a179eaadbfd74d8b08926b001e7c9cc5d920d14e1f4660001b61093f565b610c4c7f8a5154b804c3dafbde6f39873463039a246c2bd9c8eaedac9db3164bef868d9560001b61093f565b610c787f395f0008a3748c0ff1daf540ffc4bc731baa134c1d081aab1e3d0a4b568bc4b260001b61093f565b610ca47fb57c03cc7ad0abaad53eeab8e151b7b05775d36eb11e34b39bbe569a27a60eb360001b61093f565b6000600160003373ffffffffffffffffffffffffffffffffffffffff1673ffffffffffffffffffffffffffffffffffffffff16815260200190815260200160002060008381526020019081526020016000205414610d37576040517f08c379a0000000000000000000000000000000000000000000000000000000008152600401610d2e90611e05565b60405180910390fd5b610d637fbace90272a834f0015a088ea092f98d15ae7a7b42cec0d49609eb341e00b0b3c60001b61093f565b610d8f7fdf76f2610f3f87beedfefe2f9c5c862573c1f383192f958aa0f7e8b495adfa9460001b61093f565b610dbb7fdb931b8b70cb6f168c7dca2920771dd89cc655cb77e1eb0d7f2275af48fef7c960001b61093f565b600360009054906101000a900473ffffffffffffffffffffffffffffffffffffffff1673ffffffffffffffffffffffffffffffffffffffff166323b872dd3330846040518463ffffffff1660e01b8152600401610e1a93929190611cf8565b600060405180830381600087803b158015610e3457600080fd5b505af1158015610e48573d6000803e3d6000fd5b50505050610e787f9e7abd470e5c186692337b0980da1354d6f0ab79a8838ca6605370ac13f6200260001b61093f565b610ea47f51776c6c67652ce485e06b572fc325603b6e542e32ebe1250b843fdf6205671f60001b61093f565b43600160003373ffffffffffffffffffffffffffffffffffffffff1673ffffffffffffffffffffffffffffffffffffffff168152602001908152602001600020600083815260200190815260200160002081905550610f257f2157c290d7e5763512bf5ee917c3f99e275f33510b9fd3a044c2101ea2d2268a60001b61093f565b610f517fc7a33fe953b17ac4e8e5579cf7bcc2e8ffc44025b8548edd41402851277f0ae460001b61093f565b7fdeba2d4291edd2e29ef127ea6e31f12ebb9adc96b42605081927d379bdcb8bed3382600160003373ffffffffffffffffffffffffffffffffffffffff1673ffffffffffffffffffffffffffffffffffffffff168152602001908152602001600020600085815260200190815260200160002054604051610fd493929190611d58565b60405180910390a150565b610fe7611989565b73ffffffffffffffffffffffffffffffffffffffff16611005611601565b73ffffffffffffffffffffffffffffffffffffffff161461105b576040517f08c379a000000000000000000000000000000000000000000000000000000000815260040161105290611e45565b60405180910390fd5b6110656000611991565b565b61106f611989565b73ffffffffffffffffffffffffffffffffffffffff1661108d611601565b73ffffffffffffffffffffffffffffffffffffffff16146110e3576040517f08c379a00000000000000000000000000000000000000000000000000000000081526004016110da90611e45565b60405180910390fd5b61110e7ed9fff28f9b2dcda306c9104c814ed286a269502ec49ce9d590efdc6fe63af060001b61093f565b61113a7fbc9e8b0e56bb949f54d8526abe7a4d389c340111d50bb58861c276c6f0c0583560001b61093f565b6111667f0443e308c009975fb9adb2fbb3f53350c6e15fbd9f9cd43f4747b1882b4f82d760001b61093f565b6111927f22496c06505afb41b5b2217155055ae1cc7c8a9f81a86a7c69a06743bb88302360001b61093f565b60008114156111d6576040517f08c379a00000000000000000000000000000000000000000000000000000000081526004016111cd90611ea5565b60405180910390fd5b6112027f136c7d6927ecf886bf59a2b9cc231c50f3514e0130b78e967b3cc895e0f4811360001b61093f565b61122e7f756396e3fe409973780d7cb0830abe52ad251681672a58a8eef0b7b377bf0ab260001b61093f565b61125a7f1146ecf7d30f84820b4cbfe24ea355d8fd2975a5f10e897d92e315965beb9e9f60001b61093f565b8060048190555050565b6112907f150095648df7dffb1e9ccd586ec45ac839da7b848206a49cc33242ccf88ab40460001b61093f565b6112bc7f2c828611fe67cc561af3017103ba574cb7d1c6d97c41c215f163ee0afc2f534860001b61093f565b6112e87f7e8d7b29d3bce364b90e953102100c04743eeb78802b00bf0837b03ccbf97ddd60001b61093f565b6113147fbe7b158cd7c8e55b4e90a1f780bdd3a20c8082cc003affa5c512bba56b66862260001b61093f565b6000600160003373ffffffffffffffffffffffffffffffffffffffff1673ffffffffffffffffffffffffffffffffffffffff16815260200190815260200160002060008381526020019081526020016000205414156113a8576040517f08c379a000000000000000000000000000000000000000000000000000000000815260040161139f90611e25565b60405180910390fd5b6113d47faacc8ae6f82ee0c54434694259e6186ced30aac6e06e889f1520a5cff959710d60001b61093f565b6114007fcdcabbd9bd66885770b16f296c54d9f6335fa04d8807ced7c371f76ca1f00eb560001b61093f565b61142c7f937cbb10da6bc90e11defc4f031bd3136bd875fe8e9eb49008209bff107af02c60001b61093f565b6000600160003373ffffffffffffffffffffffffffffffffffffffff1673ffffffffffffffffffffffffffffffffffffffff1681526020019081526020016000206000838152602001908152602001600020819055506114ae7ffc8d4563f2c3edfd19ef9acd0042afab18ff8bf0cc9613b04b51d0a6d5b83be060001b61093f565b6114da7f294b4cbfb73f279bd4cb7a51b1c4f6c15b822a408436e142f8df0c8ee20ad01460001b61093f565b600360009054906101000a900473ffffffffffffffffffffffffffffffffffffffff1673ffffffffffffffffffffffffffffffffffffffff166323b872dd3033846040518463ffffffff1660e01b815260040161153993929190611cf8565b600060405180830381600087803b15801561155357600080fd5b505af1158015611567573d6000803e3d6000fd5b505050506115977f8a7e267d4fa0c731e61ab47d51c3b38166ac68fd68eb8de3e7c2c0b703e6a65e60001b61093f565b6115c37f1811e5f9131ba81d76435405161f714cf7590fff5529a6af1b428cc1a643bf1760001b61093f565b7f8ca41bff42bbc9b8ecccdf1731d5444d755750bae8bb9a3ad7fe38f94fb5fd943382436040516115f693929190611d58565b60405180910390a150565b60008060009054906101000a900473ffffffffffffffffffffffffffffffffffffffff16905090565b60006116587f6c3644ab516b37b8215f5705f5798be4f26072446d6845a24cf37f9d7864e2de60001b61093f565b6116847ff0834d145914d322fcf8cf62e3ee9e7cc2c612529187c6c3df337a527867045b60001b61093f565b6116b07f7ef211ca619e91060ca4b9825598ce35d86b09d5231ded3bfd0bf5cb6a08018f60001b61093f565b6116dc7f94d26a0c6cf258e59430e8d495a25b8bcc4d6b7c4920ca8f5bb14c4c8d064f6160001b61093f565b6000600160008573ffffffffffffffffffffffffffffffffffffffff1673ffffffffffffffffffffffffffffffffffffffff1681526020019081526020016000206000848152602001908152602001600020541415611770576040517f08c379a000000000000000000000000000000000000000000000000000000000815260040161176790611e85565b60405180910390fd5b61179c7f7c7c133235f1887641a53e768fcd4ba8430393dca0b3aa1454e75da619063cb460001b61093f565b6117c87f59f0bc1527fcc029300d4b3c2899eed401cdc42b48a7b78ac93d22483391a68360001b61093f565b6117f47f0b71c2dc3cb7c574736f9ce9aa4ea516addf2342d9e3d025e1559ee3535e366160001b61093f565b600554600160008573ffffffffffffffffffffffffffffffffffffffff1673ffffffffffffffffffffffffffffffffffffffff168152602001908152602001600020600084815260200190815260200160002054436118539190611fa1565b61185d9190611f47565b905092915050565b600360009054906101000a900473ffffffffffffffffffffffffffffffffffffffff1681565b60045481565b611899611989565b73ffffffffffffffffffffffffffffffffffffffff166118b7611601565b73ffffffffffffffffffffffffffffffffffffffff161461190d576040517f08c379a000000000000000000000000000000000000000000000000000000000815260040161190490611e45565b60405180910390fd5b600073ffffffffffffffffffffffffffffffffffffffff168173ffffffffffffffffffffffffffffffffffffffff16141561197d576040517f08c379a000000000000000000000000000000000000000000000000000000000815260040161197490611de5565b60405180910390fd5b61198681611991565b50565b600033905090565b60008060009054906101000a900473ffffffffffffffffffffffffffffffffffffffff169050816000806101000a81548173ffffffffffffffffffffffffffffffffffffffff021916908373ffffffffffffffffffffffffffffffffffffffff1602179055508173ffffffffffffffffffffffffffffffffffffffff168173ffffffffffffffffffffffffffffffffffffffff167f8be0079c531659141344cd1fd0a4f28419497f9722a3daafe3b4186f6b6457e060405160405180910390a35050565b600081359050611a6481612232565b92915050565b600081519050611a7981612249565b92915050565b600081359050611a8e81612260565b92915050565b600081359050611aa381612277565b92915050565b600060208284031215611abb57600080fd5b6000611ac984828501611a55565b91505092915050565b60008060408385031215611ae557600080fd5b6000611af385828601611a55565b9250506020611b0485828601611a94565b9150509250929050565b600060208284031215611b2057600080fd5b6000611b2e84828501611a6a565b91505092915050565b600060208284031215611b4957600080fd5b6000611b5784828501611a7f565b91505092915050565b600060208284031215611b7257600080fd5b6000611b8084828501611a94565b91505092915050565b611b9281611fd5565b82525050565b611ba181612027565b82525050565b611bb08161204b565b82525050565b6000611bc3601983611ee0565b9150611bce8261209e565b602082019050919050565b6000611be6602683611ee0565b9150611bf1826120c7565b604082019050919050565b6000611c09601183611ee0565b9150611c1482612116565b602082019050919050565b6000611c2c602383611ee0565b9150611c378261213f565b604082019050919050565b6000611c4f602083611ee0565b9150611c5a8261218e565b602082019050919050565b6000611c72600883611ee0565b9150611c7d826121b7565b602082019050919050565b6000611c95601b83611ee0565b9150611ca0826121e0565b602082019050919050565b6000611cb8601483611ee0565b9150611cc382612209565b602082019050919050565b611cd78161201d565b82525050565b6000602082019050611cf26000830184611b89565b92915050565b6000606082019050611d0d6000830186611b89565b611d1a6020830185611b89565b611d276040830184611cce565b949350505050565b6000604082019050611d446000830185611b89565b611d516020830184611cce565b9392505050565b6000606082019050611d6d6000830186611b89565b611d7a6020830185611cce565b611d876040830184611cce565b949350505050565b6000602082019050611da46000830184611b98565b92915050565b6000602082019050611dbf6000830184611ba7565b92915050565b60006020820190508181036000830152611dde81611bb6565b9050919050565b60006020820190508181036000830152611dfe81611bd9565b9050919050565b60006020820190508181036000830152611e1e81611bfc565b9050919050565b60006020820190508181036000830152611e3e81611c1f565b9050919050565b60006020820190508181036000830152611e5e81611c42565b9050919050565b60006020820190508181036000830152611e7e81611c65565b9050919050565b60006020820190508181036000830152611e9e81611c88565b9050919050565b60006020820190508181036000830152611ebe81611cab565b9050919050565b6000602082019050611eda6000830184611cce565b92915050565b600082825260208201905092915050565b6000611efc8261201d565b9150611f078361201d565b9250827fffffffffffffffffffffffffffffffffffffffffffffffffffffffffffffffff03821115611f3c57611f3b61206f565b5b828201905092915050565b6000611f528261201d565b9150611f5d8361201d565b9250817fffffffffffffffffffffffffffffffffffffffffffffffffffffffffffffffff0483118215151615611f9657611f9561206f565b5b828202905092915050565b6000611fac8261201d565b9150611fb78361201d565b925082821015611fca57611fc961206f565b5b828203905092915050565b6000611fe082611ffd565b9050919050565b60008115159050919050565b6000819050919050565b600073ffffffffffffffffffffffffffffffffffffffff82169050919050565b6000819050919050565b600061203282612039565b9050919050565b600061204482611ffd565b9050919050565b60006120568261205d565b9050919050565b600061206882611ffd565b9050919050565b7f4e487b7100000000000000000000000000000000000000000000000000000000600052601160045260246000fd5b7f4661726d696e673a20696e636f727265637420706572696f6400000000000000600082015250565b7f4f776e61626c653a206e6577206f776e657220697320746865207a65726f206160008201527f6464726573730000000000000000000000000000000000000000000000000000602082015250565b7f4661726d696e673a206973206578697374000000000000000000000000000000600082015250565b7f4661726d696e673a2053656e6465722069736e277420746f6b656e2773206f7760008201527f6e65720000000000000000000000000000000000000000000000000000000000602082015250565b7f4f776e61626c653a2063616c6c6572206973206e6f7420746865206f776e6572600082015250565b7f4661726d696e673a000000000000000000000000000000000000000000000000600082015250565b7f4661726d696e673a205573657220646f65736e27742065786973740000000000600082015250565b7f4661726d696e673a207a65726f20616d6f756e74000000000000000000000000600082015250565b61223b81611fd5565b811461224657600080fd5b50565b61225281611fe7565b811461225d57600080fd5b50565b61226981611ff3565b811461227457600080fd5b50565b6122808161201d565b811461228b57600080fd5b5056fea2646970667358221220895bd167eef0484caf8ea366f81376ab22ab7fb2b905b18e7c6c447e8da8ddc164736f6c63430008040033",
  "linkReferences": {},
  "deployedLinkReferences": {}
}