{
  "_format": "hh-sol-artifact-1",
  "contractName": "Farming",
  "sourceName": "contracts/Farming.sol",
  "abi": [
    {
      "inputs": [
        {
          "internalType": "address",
          "name": "nft",
          "type": "address"
        },
        {
          "internalType": "address",
          "name": "token",
          "type": "address"
        }
      ],
      "stateMutability": "nonpayable",
      "type": "constructor"
    },
    {
      "anonymous": false,
      "inputs": [
        {
          "indexed": false,
          "internalType": "address",
          "name": "sender",
          "type": "address"
        },
        {
          "indexed": false,
          "internalType": "uint256",
          "name": "id",
          "type": "uint256"
        },
        {
          "indexed": false,
          "internalType": "uint256",
          "name": "startBlock",
          "type": "uint256"
        }
      ],
      "name": "NFTDeposited",
      "type": "event"
    },
    {
      "anonymous": false,
      "inputs": [],
      "name": "NFTDeposited",
      "type": "event"
    },
    {
      "anonymous": false,
      "inputs": [
        {
          "indexed": false,
          "internalType": "address",
          "name": "sender",
          "type": "address"
        },
        {
          "indexed": false,
          "internalType": "uint256",
          "name": "id",
          "type": "uint256"
        },
        {
          "indexed": false,
          "internalType": "uint256",
          "name": "block",
          "type": "uint256"
        }
      ],
      "name": "NFTEmergencyWithdrawn",
      "type": "event"
    },
    {
      "anonymous": false,
      "inputs": [
        {
          "indexed": false,
          "internalType": "address",
          "name": "sender",
          "type": "address"
        },
        {
          "indexed": false,
          "internalType": "uint256",
          "name": "id",
          "type": "uint256"
        },
        {
          "indexed": false,
          "internalType": "uint256",
          "name": "amount",
          "type": "uint256"
        }
      ],
      "name": "NFTWithdrawn",
      "type": "event"
    },
    {
      "anonymous": false,
      "inputs": [
        {
          "indexed": true,
          "internalType": "address",
          "name": "previousOwner",
          "type": "address"
        },
        {
          "indexed": true,
          "internalType": "address",
          "name": "newOwner",
          "type": "address"
        }
      ],
      "name": "OwnershipTransferred",
      "type": "event"
    },
    {
      "inputs": [],
      "name": "basicLockPeriod",
      "outputs": [
        {
          "internalType": "uint256",
          "name": "",
          "type": "uint256"
        }
      ],
      "stateMutability": "view",
      "type": "function"
    },
    {
      "inputs": [],
      "name": "cyberNft",
      "outputs": [
        {
          "internalType": "contract ICyberWayNFT",
          "name": "",
          "type": "address"
        }
      ],
      "stateMutability": "view",
      "type": "function"
    },
    {
      "inputs": [],
      "name": "cyberToken",
      "outputs": [
        {
          "internalType": "contract IERC20",
          "name": "",
          "type": "address"
        }
      ],
      "stateMutability": "view",
      "type": "function"
    },
    {
      "inputs": [
        {
          "internalType": "uint256",
          "name": "id",
          "type": "uint256"
        }
      ],
      "name": "depositFarmingToken",
      "outputs": [],
      "stateMutability": "nonpayable",
      "type": "function"
    },
    {
      "inputs": [
        {
          "internalType": "uint256",
          "name": "id",
          "type": "uint256"
        }
      ],
      "name": "emergencyWithdrawFarmingToken",
      "outputs": [],
      "stateMutability": "nonpayable",
      "type": "function"
    },
    {
      "inputs": [],
      "name": "getCurrentBlockReward",
      "outputs": [
        {
          "internalType": "uint256",
          "name": "",
          "type": "uint256"
        }
      ],
      "stateMutability": "view",
      "type": "function"
    },
    {
      "inputs": [],
      "name": "owner",
      "outputs": [
        {
          "internalType": "address",
          "name": "",
          "type": "address"
        }
      ],
      "stateMutability": "view",
      "type": "function"
    },
    {
      "inputs": [
        {
          "internalType": "address",
          "name": "user",
          "type": "address"
        },
        {
          "internalType": "uint256",
          "name": "id",
          "type": "uint256"
        }
      ],
      "name": "pendingToken",
      "outputs": [
        {
          "internalType": "uint256",
          "name": "",
          "type": "uint256"
        }
      ],
      "stateMutability": "view",
      "type": "function"
    },
    {
      "inputs": [],
      "name": "renounceOwnership",
      "outputs": [],
      "stateMutability": "nonpayable",
      "type": "function"
    },
    {
      "inputs": [
        {
          "internalType": "uint256",
          "name": "newAmount",
          "type": "uint256"
        }
      ],
      "name": "setBasicLockPeriod",
      "outputs": [],
      "stateMutability": "nonpayable",
      "type": "function"
    },
    {
      "inputs": [
        {
          "internalType": "uint256",
          "name": "newAmount",
          "type": "uint256"
        }
      ],
      "name": "setTokenPerBlock",
      "outputs": [],
      "stateMutability": "nonpayable",
      "type": "function"
    },
    {
      "inputs": [
        {
          "internalType": "address",
          "name": "newOwner",
          "type": "address"
        }
      ],
      "name": "transferOwnership",
      "outputs": [],
      "stateMutability": "nonpayable",
      "type": "function"
    },
    {
      "inputs": [
        {
          "internalType": "address",
          "name": "",
          "type": "address"
        },
        {
          "internalType": "uint256",
          "name": "",
          "type": "uint256"
        }
      ],
      "name": "userInfo",
      "outputs": [
        {
          "internalType": "uint256",
          "name": "",
          "type": "uint256"
        }
      ],
      "stateMutability": "view",
      "type": "function"
    },
    {
      "inputs": [
        {
          "internalType": "uint256",
          "name": "id",
          "type": "uint256"
        }
      ],
      "name": "withdrawFarmingToken",
      "outputs": [],
      "stateMutability": "nonpayable",
      "type": "function"
    }
  ],
  "bytecode": "0x608060405262031380600455671bc16d674ec8000060055534801561002357600080fd5b50604051610fd6380380610fd6833981016040819052610042916100e8565b61004b3361007c565b600380546001600160a01b039384166001600160a01b0319918216179091556002805492909316911617905561011a565b600080546001600160a01b038381166001600160a01b0319831681178455604051919092169283917f8be0079c531659141344cd1fd0a4f28419497f9722a3daafe3b4186f6b6457e09190a35050565b80516001600160a01b03811681146100e357600080fd5b919050565b600080604083850312156100fa578182fd5b610103836100cc565b9150610111602084016100cc565b90509250929050565b610ead806101296000396000f3fe608060405234801561001057600080fd5b50600436106100ea5760003560e01c806372d05b5c1161008c5780639646d9a7116100665780639646d9a714610201578063c59a31b614610214578063f16b268e14610234578063f2fde38b1461023d57600080fd5b806372d05b5c146101bd57806388b03ced146101d05780638da5cb5b146101e357600080fd5b8063448b8be8116100c8578063448b8be8146101555780634a80d7bd1461019a5780634efdc326146101a2578063715018a6146101b557600080fd5b806308f1d0ce146100ef57806321ce919d14610104578063411330bd14610142575b600080fd5b6101026100fd366004610dc4565b610250565b005b61012f610112366004610d7b565b600160209081526000928352604080842090915290825290205481565b6040519081526020015b60405180910390f35b610102610150366004610dc4565b61053d565b6002546101759073ffffffffffffffffffffffffffffffffffffffff1681565b60405173ffffffffffffffffffffffffffffffffffffffff9091168152602001610139565b60055461012f565b6101026101b0366004610dc4565b61062a565b61010261079d565b6101026101cb366004610dc4565b61082a565b6101026101de366004610dc4565b610917565b60005473ffffffffffffffffffffffffffffffffffffffff16610175565b61012f61020f366004610d7b565b610aad565b6003546101759073ffffffffffffffffffffffffffffffffffffffff1681565b61012f60045481565b61010261024b366004610d61565b610b93565b600454336000908152600160209081526040808320858452909152902054439161027991610ddc565b11156102e6576040517f08c379a000000000000000000000000000000000000000000000000000000000815260206004820152601960248201527f4661726d696e673a20696e636f727265637420706572696f640000000000000060448201526064015b60405180910390fd5b33600090815260016020908152604080832084845290915290205461038d576040517f08c379a000000000000000000000000000000000000000000000000000000000815260206004820152602360248201527f4661726d696e673a2053656e6465722069736e277420746f6b656e2773206f7760448201527f6e6572000000000000000000000000000000000000000000000000000000000060648201526084016102dd565b60006103993383610aad565b3360008181526001602090815260408083208784529091528082209190915560025490517fa9059cbb00000000000000000000000000000000000000000000000000000000815260048101929092526024820183905291925073ffffffffffffffffffffffffffffffffffffffff9091169063a9059cbb90604401602060405180830381600087803b15801561042e57600080fd5b505af1158015610442573d6000803e3d6000fd5b505050506040513d601f19601f820116820180604052508101906104669190610da4565b506003546040517f23b872dd0000000000000000000000000000000000000000000000000000000081523060048201523360248201526044810184905273ffffffffffffffffffffffffffffffffffffffff909116906323b872dd90606401600060405180830381600087803b1580156104df57600080fd5b505af11580156104f3573d6000803e3d6000fd5b505060408051338152602081018690529081018490527f8e52db99ce3ea11f5ce05e25a6d21952ef9c65a56f572b7b6039f3dc608808c89250606001905060405180910390a15050565b60005473ffffffffffffffffffffffffffffffffffffffff1633146105be576040517f08c379a000000000000000000000000000000000000000000000000000000000815260206004820181905260248201527f4f776e61626c653a2063616c6c6572206973206e6f7420746865206f776e657260448201526064016102dd565b80610625576040517f08c379a000000000000000000000000000000000000000000000000000000000815260206004820152600860248201527f4661726d696e673a00000000000000000000000000000000000000000000000060448201526064016102dd565b600555565b336000908152600160209081526040808320848452909152902054156106ac576040517f08c379a000000000000000000000000000000000000000000000000000000000815260206004820152601160248201527f4661726d696e673a20697320657869737400000000000000000000000000000060448201526064016102dd565b6003546040517f23b872dd0000000000000000000000000000000000000000000000000000000081523360048201523060248201526044810183905273ffffffffffffffffffffffffffffffffffffffff909116906323b872dd90606401600060405180830381600087803b15801561072457600080fd5b505af1158015610738573d6000803e3d6000fd5b505033600081815260016020908152604080832087845282529182902043908190558251938452908301869052908201527fdeba2d4291edd2e29ef127ea6e31f12ebb9adc96b42605081927d379bdcb8bed925060600190505b60405180910390a150565b60005473ffffffffffffffffffffffffffffffffffffffff16331461081e576040517f08c379a000000000000000000000000000000000000000000000000000000000815260206004820181905260248201527f4f776e61626c653a2063616c6c6572206973206e6f7420746865206f776e657260448201526064016102dd565b6108286000610cc3565b565b60005473ffffffffffffffffffffffffffffffffffffffff1633146108ab576040517f08c379a000000000000000000000000000000000000000000000000000000000815260206004820181905260248201527f4f776e61626c653a2063616c6c6572206973206e6f7420746865206f776e657260448201526064016102dd565b80610912576040517f08c379a000000000000000000000000000000000000000000000000000000000815260206004820152601460248201527f4661726d696e673a207a65726f20616d6f756e7400000000000000000000000060448201526064016102dd565b600455565b3360009081526001602090815260408083208484529091529020546109be576040517f08c379a000000000000000000000000000000000000000000000000000000000815260206004820152602360248201527f4661726d696e673a2053656e6465722069736e277420746f6b656e2773206f7760448201527f6e6572000000000000000000000000000000000000000000000000000000000060648201526084016102dd565b3360008181526001602090815260408083208584529091528082209190915560035490517f23b872dd00000000000000000000000000000000000000000000000000000000815230600482015260248101929092526044820183905273ffffffffffffffffffffffffffffffffffffffff16906323b872dd90606401600060405180830381600087803b158015610a5457600080fd5b505af1158015610a68573d6000803e3d6000fd5b5050604080513381526020810185905243918101919091527f8ca41bff42bbc9b8ecccdf1731d5444d755750bae8bb9a3ad7fe38f94fb5fd9492506060019050610792565b73ffffffffffffffffffffffffffffffffffffffff82166000908152600160209081526040808320848452909152812054610b44576040517f08c379a000000000000000000000000000000000000000000000000000000000815260206004820152601b60248201527f4661726d696e673a205573657220646f65736e2774206578697374000000000060448201526064016102dd565b60055473ffffffffffffffffffffffffffffffffffffffff84166000908152600160209081526040808320868452909152902054610b829043610e31565b610b8c9190610df4565b9392505050565b60005473ffffffffffffffffffffffffffffffffffffffff163314610c14576040517f08c379a000000000000000000000000000000000000000000000000000000000815260206004820181905260248201527f4f776e61626c653a2063616c6c6572206973206e6f7420746865206f776e657260448201526064016102dd565b73ffffffffffffffffffffffffffffffffffffffff8116610cb7576040517f08c379a000000000000000000000000000000000000000000000000000000000815260206004820152602660248201527f4f776e61626c653a206e6577206f776e657220697320746865207a65726f206160448201527f646472657373000000000000000000000000000000000000000000000000000060648201526084016102dd565b610cc081610cc3565b50565b6000805473ffffffffffffffffffffffffffffffffffffffff8381167fffffffffffffffffffffffff0000000000000000000000000000000000000000831681178455604051919092169283917f8be0079c531659141344cd1fd0a4f28419497f9722a3daafe3b4186f6b6457e09190a35050565b803573ffffffffffffffffffffffffffffffffffffffff81168114610d5c57600080fd5b919050565b600060208284031215610d72578081fd5b610b8c82610d38565b60008060408385031215610d8d578081fd5b610d9683610d38565b946020939093013593505050565b600060208284031215610db5578081fd5b81518015158114610b8c578182fd5b600060208284031215610dd5578081fd5b5035919050565b60008219821115610def57610def610e48565b500190565b6000817fffffffffffffffffffffffffffffffffffffffffffffffffffffffffffffffff0483118215151615610e2c57610e2c610e48565b500290565b600082821015610e4357610e43610e48565b500390565b7f4e487b7100000000000000000000000000000000000000000000000000000000600052601160045260246000fdfea2646970667358221220df70d20a871bcddfb9784279f3703741d4faf7826187ebac1db743832d94ccd264736f6c63430008040033",
  "linkReferences": {},
  "deployedLinkReferences": {}
}