{
  "_format": "hh-sol-artifact-1",
  "contractName": "LootBoxFactory",
  "sourceName": "contracts/LootBoxFactory.sol",
  "abi": [
    {
      "inputs": [
        {
          "internalType": "address",
          "name": "_nft",
          "type": "address"
        }
      ],
      "stateMutability": "nonpayable",
      "type": "constructor"
    },
    {
      "anonymous": false,
      "inputs": [
        {
          "indexed": false,
          "internalType": "address",
          "name": "buyer",
          "type": "address"
        },
        {
          "indexed": false,
          "internalType": "uint256",
          "name": "tokenId",
          "type": "uint256"
        }
      ],
      "name": "NewBoxBought",
      "type": "event"
    },
    {
      "anonymous": false,
      "inputs": [
        {
          "indexed": false,
          "internalType": "address payable",
          "name": "newSeller",
          "type": "address"
        }
      ],
      "name": "NewSeller",
      "type": "event"
    },
    {
      "anonymous": false,
      "inputs": [
        {
          "indexed": true,
          "internalType": "address",
          "name": "previousOwner",
          "type": "address"
        },
        {
          "indexed": true,
          "internalType": "address",
          "name": "newOwner",
          "type": "address"
        }
      ],
      "name": "OwnershipTransferred",
      "type": "event"
    },
    {
      "inputs": [
        {
          "internalType": "uint256",
          "name": "",
          "type": "uint256"
        }
      ],
      "name": "boxes",
      "outputs": [
        {
          "internalType": "uint256",
          "name": "price",
          "type": "uint256"
        },
        {
          "internalType": "uint256",
          "name": "maxCount",
          "type": "uint256"
        },
        {
          "internalType": "uint256",
          "name": "currentCount",
          "type": "uint256"
        }
      ],
      "stateMutability": "view",
      "type": "function"
    },
    {
      "inputs": [
        {
          "internalType": "uint256",
          "name": "_boxId",
          "type": "uint256"
        }
      ],
      "name": "buyBox",
      "outputs": [],
      "stateMutability": "payable",
      "type": "function"
    },
    {
      "inputs": [
        {
          "internalType": "bytes32",
          "name": "c__0x1e3bf84a",
          "type": "bytes32"
        }
      ],
      "name": "c_0x1e3bf84a",
      "outputs": [],
      "stateMutability": "pure",
      "type": "function"
    },
    {
      "inputs": [
        {
          "internalType": "uint256",
          "name": "boxId_",
          "type": "uint256"
        }
      ],
      "name": "getBox",
      "outputs": [
        {
          "components": [
            {
              "internalType": "uint16[6]",
              "name": "rand",
              "type": "uint16[6]"
            },
            {
              "internalType": "uint256",
              "name": "price",
              "type": "uint256"
            },
            {
              "internalType": "uint256",
              "name": "maxCount",
              "type": "uint256"
            },
            {
              "internalType": "uint256",
              "name": "currentCount",
              "type": "uint256"
            }
          ],
          "internalType": "struct LootBoxFactory.LootBox",
          "name": "",
          "type": "tuple"
        }
      ],
      "stateMutability": "view",
      "type": "function"
    },
    {
      "inputs": [
        {
          "internalType": "uint256",
          "name": "boxId_",
          "type": "uint256"
        }
      ],
      "name": "getBoxPrice",
      "outputs": [
        {
          "internalType": "uint256",
          "name": "",
          "type": "uint256"
        }
      ],
      "stateMutability": "view",
      "type": "function"
    },
    {
      "inputs": [],
      "name": "nft",
      "outputs": [
        {
          "internalType": "contract ICyberWayNFT",
          "name": "",
          "type": "address"
        }
      ],
      "stateMutability": "view",
      "type": "function"
    },
    {
      "inputs": [],
      "name": "owner",
      "outputs": [
        {
          "internalType": "address",
          "name": "",
          "type": "address"
        }
      ],
      "stateMutability": "view",
      "type": "function"
    },
    {
      "inputs": [],
      "name": "renounceOwnership",
      "outputs": [],
      "stateMutability": "nonpayable",
      "type": "function"
    },
    {
      "inputs": [],
      "name": "seller",
      "outputs": [
        {
          "internalType": "address payable",
          "name": "",
          "type": "address"
        }
      ],
      "stateMutability": "view",
      "type": "function"
    },
    {
      "inputs": [
        {
          "internalType": "uint256",
          "name": "boxOnePrice",
          "type": "uint256"
        },
        {
          "internalType": "uint256",
          "name": "boxTwoPrice",
          "type": "uint256"
        },
        {
          "internalType": "uint256",
          "name": "boxThreePrice",
          "type": "uint256"
        },
        {
          "internalType": "uint256",
          "name": "boxFourPrice",
          "type": "uint256"
        }
      ],
      "name": "setPrices",
      "outputs": [],
      "stateMutability": "nonpayable",
      "type": "function"
    },
    {
      "inputs": [
        {
          "internalType": "address",
          "name": "newOwner",
          "type": "address"
        }
      ],
      "name": "transferOwnership",
      "outputs": [],
      "stateMutability": "nonpayable",
      "type": "function"
    },
    {
      "inputs": [
        {
          "internalType": "address payable",
          "name": "newSeller_",
          "type": "address"
        }
      ],
      "name": "updateSellerAddress",
      "outputs": [],
      "stateMutability": "nonpayable",
      "type": "function"
    },
    {
      "inputs": [],
      "name": "withdrawFactoryBalance",
      "outputs": [],
      "stateMutability": "nonpayable",
      "type": "function"
    },
    {
      "stateMutability": "payable",
      "type": "receive"
    }
  ],
  "bytecode": "0x608060405260006001553480156200001657600080fd5b506040516200430e3803806200430e83398181016040528101906200003c919062000879565b6200005c620000506200053a60201b60201c565b6200054260201b60201c565b620000907f72c828ea298707ea014bec937e8dee44ee38d142a182c9cd1b2f677a7806de2b60001b6200060660201b60201c565b620000c47fff6ec022f0ec15e346227eb73ddda0b15883220b1fccb21b3260fdc81b6b507260001b6200060660201b60201c565b620000f87f108778b97880108053ede99b338e21279f2710eb30df56b88bf6c0bd0e46bf2660001b6200060660201b60201c565b80600260006101000a81548173ffffffffffffffffffffffffffffffffffffffff021916908373ffffffffffffffffffffffffffffffffffffffff1602179055506200016d7f093263919c4d2a97fefbcc1d03ac44b2d1b458c6bdeba7a9212abd054635331260001b6200060660201b60201c565b620001a17f533ccb4edbe5f2dd94f1a3287b1e6dfb5f1c02ed7ba0a85a10d96571d26c983f60001b6200060660201b60201c565b33600460006101000a81548173ffffffffffffffffffffffffffffffffffffffff021916908373ffffffffffffffffffffffffffffffffffffffff160217905550620002167f488a6f4d14a79fc56bb37a2907bd1ea75e0069e9416a176507f300a79ffdd47260001b6200060660201b60201c565b6200024a7f30d6fed667d0f2c1f68d300b8a52ccf0a48f872a758b38f708253a83d81b86a060001b6200060660201b60201c565b620002b66040518060c0016040528061014a61ffff16815260200161016b61ffff16815260200161016d61ffff1681526020016103a761ffff1681526020016103e361ffff1681526020016103e861ffff1681525066e35fa931a00000614e206200060960201b60201c565b620002ea7f29f5e668b1d14102453c73b145c01cb58674b993f10c5a7ee4938d7ac934474260001b6200060660201b60201c565b6200031e7f254cea9ff2b1ece450a61636ca20417068822b72a7c3ee7a82be482db92877e760001b6200060660201b60201c565b6200038b6040518060c0016040528061010e61ffff16815260200161016861ffff16815260200161016e61ffff16815260200161034461ffff1681526020016103da61ffff1681526020016103e861ffff168152506702386f26fc1000006113886200060960201b60201c565b620003bf7f5f08bca30569353943a601459ee37ddd69f71015a914fe41b2c31dbd2f737a7960001b6200060660201b60201c565b620003f37f2ddbc3e302a4281770192565120548d7f7cab3a80e58ff9d509e090319459d6660001b6200060660201b60201c565b620004606040518060c0016040528061010e61ffff1681526020016101c261ffff1681526020016101ea61ffff1681526020016102f861ffff1681526020016103c061ffff1681526020016103e861ffff168152506705f7aab8c56b00006103e86200060960201b60201c565b620004947f2b15e98214ff15a81086f70c35f349a8d6161aa9240776a9ad9ae38e721f5eff60001b6200060660201b60201c565b620004c87fed3a07aab677cbf02cdbeefd0117c5b19af3e4a3e9df9a04babc40e4fa1de6e860001b6200060660201b60201c565b620005336040518060c00160405280600061ffff16815260200160fa61ffff16815260200161025861ffff16815260200161025861ffff16815260200161025861ffff1681526020016103e861ffff16815250670e92596fd62900006101906200060960201b60201c565b50620008f3565b600033905090565b60008060009054906101000a900473ffffffffffffffffffffffffffffffffffffffff169050816000806101000a81548173ffffffffffffffffffffffffffffffffffffffff021916908373ffffffffffffffffffffffffffffffffffffffff1602179055508173ffffffffffffffffffffffffffffffffffffffff168173ffffffffffffffffffffffffffffffffffffffff167f8be0079c531659141344cd1fd0a4f28419497f9722a3daafe3b4186f6b6457e060405160405180910390a35050565b50565b6200063d7f5b85f8c9f1d420791f1413ac565d2b18dca1c1880cf165901241cf686c9f1e5a60001b6200060660201b60201c565b620006717f161f085dba1468c6d0b76c51f9d181b6c962571cb91cf3198b133e5824776ad960001b6200060660201b60201c565b620006a57f7d2358036dc69b8e6d01a0cad3898023e15bec80b469e91c5ae2fe93dc074e7660001b6200060660201b60201c565b6000604051806080016040528085815260200184815260200183815260200160008152509050620006ff7ffc2c09cc47929cee2c305ec48b501abd60c4d608bf658403ab6794a3baa7cbde60001b6200060660201b60201c565b620007337f49ca0d31657efd2eb5158b07676428863257b51f41547e68e2ac9c4978c3bd8660001b6200060660201b60201c565b6003819080600181540180825580915050600190039060005260206000209060040201600090919091909150600082015181600001906006620007789291906200079f565b50602082015181600101556040820151816002015560608201518160030155505050505050565b826006600f01601090048101928215620008305791602002820160005b83821115620007fe57835183826101000a81548161ffff021916908361ffff1602179055509260200192600201602081600101049283019260010302620007bc565b80156200082e5782816101000a81549061ffff0219169055600201602081600101049283019260010302620007fe565b505b5090506200083f919062000843565b5090565b5b808211156200085e57600081600090555060010162000844565b5090565b6000815190506200087381620008d9565b92915050565b6000602082840312156200088c57600080fd5b60006200089c8482850162000862565b91505092915050565b6000620008b282620008b9565b9050919050565b600073ffffffffffffffffffffffffffffffffffffffff82169050919050565b620008e481620008a5565b8114620008f057600080fd5b50565b613a0b80620009036000396000f3fe6080604052600436106100d65760003560e01c8063715018a61161007f578063b689783211610059578063b6897832146102b7578063d8e86854146102e0578063e3b14ad114610309578063f2fde38b1461034657610142565b8063715018a61461025e5780638da5cb5b1461027557806397a39fb9146102a057610142565b806347ccca02116100b057806347ccca02146101cb5780634ed3faf2146101f6578063685dab8f1461023557610142565b806308551a531461014757806324b61b86146101725780633e049343146101af57610142565b36610142576101077f12b8066e8922a0c1bf411aecfdb94ebe0bce50e9486e4ada34c99c0e4d9ac24560001b61036f565b6040517f08c379a000000000000000000000000000000000000000000000000000000000815260040161013990613419565b60405180910390fd5b600080fd5b34801561015357600080fd5b5061015c610372565b60405161016991906132f5565b60405180910390f35b34801561017e57600080fd5b5061019960048036038101906101949190612ef5565b610398565b6040516101a691906134f5565b60405180910390f35b6101c960048036038101906101c49190612ef5565b610471565b005b3480156101d757600080fd5b506101e0610bab565b6040516101ed919061337e565b60405180910390f35b34801561020257600080fd5b5061021d60048036038101906102189190612ef5565b610bd1565b60405161022c93929190613510565b60405180910390f35b34801561024157600080fd5b5061025c60048036038101906102579190612ea3565b610c0b565b005b34801561026a57600080fd5b50610273610efe565b005b34801561028157600080fd5b5061028a610f86565b60405161029791906132da565b60405180910390f35b3480156102ac57600080fd5b506102b5610faf565b005b3480156102c357600080fd5b506102de60048036038101906102d99190612ecc565b61036f565b005b3480156102ec57600080fd5b5061030760048036038101906103029190612f47565b6110dd565b005b34801561031557600080fd5b50610330600480360381019061032b9190612ef5565b611545565b60405161033d91906134d9565b60405180910390f35b34801561035257600080fd5b5061036d60048036038101906103689190612e7a565b6116b6565b005b50565b600460009054906101000a900473ffffffffffffffffffffffffffffffffffffffff1681565b60006103c67fff6046f968f5fd6bf2ca9810d6f34461216b0f08325a593d8b4b36903f40758d60001b61036f565b6103f27fcaa59b71742a3c09239ff200a77737ba6d898d17cb27909e3be5ed837dcc3c5160001b61036f565b61041e7fe20c0a5a79dceb4c4b9cc3e3ece867383c659d113dc190a70dc87a8e453636b760001b61036f565b60038281548110610458577f4e487b7100000000000000000000000000000000000000000000000000000000600052603260045260246000fd5b9060005260206000209060040201600101549050919050565b61049d7fe43b6d60aa9a3effe222855daf4ee1ef43e6e8aed229fcad69ffcdc417652b3f60001b61036f565b6104c97f82b6588b5145113ce8369af401852f14664cc3b9a57c3b279f66c11060f576ef60001b61036f565b6104f57ff247e9f92696b4a24bfbd3b16a7ff97e4ed31b48db420b97218d780d54ff7cd860001b61036f565b6105217fc3de57f22fa7547614dfd804834b54c71096763b399ad26a1cc154e5960bb1c260001b61036f565b6003805490508110610568576040517f08c379a000000000000000000000000000000000000000000000000000000000815260040161055f90613499565b60405180910390fd5b6105947f2eac39e1f88226f5b7072b084ee9c5eef16a25a07e73eab9f2d973c65136c9f860001b61036f565b6105c07f7dbfebfb80530e87726e5bc71e0cb0f6d6c373a1dcf6d9c3bab7c8f1900cd3a260001b61036f565b6105ec7f4ce13bde9fed52218ce8c61b9932ba9d0f1f6f1661bc1a6ee7ae9290ca327a7d60001b61036f565b6106187f93748c1994066d798c6726ee67d8439f19c8697833c7cd1f3e144b56dc34dab760001b61036f565b3460038281548110610653577f4e487b7100000000000000000000000000000000000000000000000000000000600052603260045260246000fd5b906000526020600020906004020160010154146106a5576040517f08c379a000000000000000000000000000000000000000000000000000000000815260040161069c90613479565b60405180910390fd5b6106d17ff84e9951168d3ef8213ab786d2b0829dbcfc70f3a59beda0e9c778b8df12fcce60001b61036f565b6106fd7f44f69d47c496ed01587c4bca2e83df3ff451fc0b4e9217e482ab2cfad9e5c4eb60001b61036f565b6107297f5f297d4a3cec4cc6a9b69af0910c3c18efd35ae529891c94544804b67bb8b19d60001b61036f565b6107557f319dd270b05feca162901aebeaf6aa1d4b13b3ea1ed66b3be4244944b97fcbfd60001b61036f565b6003818154811061078f577f4e487b7100000000000000000000000000000000000000000000000000000000600052603260045260246000fd5b906000526020600020906004020160020154600382815481106107db577f4e487b7100000000000000000000000000000000000000000000000000000000600052603260045260246000fd5b9060005260206000209060040201600301541061082d576040517f08c379a000000000000000000000000000000000000000000000000000000000815260040161082490613399565b60405180910390fd5b6108597f1efb261f1804847afa2e6ddef80d9fb573052c0b5e09f811304144dba788817b60001b61036f565b6108857f17b3bc87250c5ad59bd989e1a2c98ab73759fd1055de8c034f4e57b5338edc0660001b61036f565b6108b17febdfb0f9b32371a36a38d6b3984a592364e7b05db8dcb1c5dbfbe192f5c1fb6260001b61036f565b60008060006108bf846117ae565b9250925092506108f17fdd05858df7c1855afdadcf75c24e5083b032ad0277ee4889493e0244c5f2fbd060001b61036f565b61091d7f99e761d80460d9e9e74e408892f0ea2332303d0d151ad00816a86eea6010a80a60001b61036f565b6000600260009054906101000a900473ffffffffffffffffffffffffffffffffffffffff1673ffffffffffffffffffffffffffffffffffffffff1663c75986ee338686866040518563ffffffff1660e01b81526004016109809493929190613339565b602060405180830381600087803b15801561099a57600080fd5b505af11580156109ae573d6000803e3d6000fd5b505050506040513d601f19601f820116820180604052508101906109d29190612f1e565b9050610a007f2da40dca6c4f9dfe74037b715e99b8938887ef949309dc638fbbcb8454d6eb4960001b61036f565b610a2c7fa42504d262e354e159cf1976521f7a5908a429ebc049bc9aa3a7ec3322ea3b2260001b61036f565b610a58600460009054906101000a900473ffffffffffffffffffffffffffffffffffffffff1634611a8e565b610a847f4eccbfc4ac5b23f0e92e3a557a968bb8e625bdfe5135eb4b17f8585a9bc67b7e60001b61036f565b610ab07f6b272c9cb682570658a1e1d6473bee5d621dd3c3c89f8145eb81d2ef8046f49c60001b61036f565b600160038681548110610aec577f4e487b7100000000000000000000000000000000000000000000000000000000600052603260045260246000fd5b90600052602060002090600402016003016000828254610b0c9190613590565b92505081905550610b3f7f4c5985ab9255c1bde2a201aa8a1be0735836f78cc90a30022da860d9d0c37ae760001b61036f565b610b6b7f62aba5821ab0256a50e0233434ee1aa0a571f994145886642ea66df18950472a60001b61036f565b7face1f55dace1a694aa6bc3f8f97761e0cc819141bb7c8a72f54dbac6264ce1783382604051610b9c929190613310565b60405180910390a15050505050565b600260009054906101000a900473ffffffffffffffffffffffffffffffffffffffff1681565b60038181548110610be157600080fd5b90600052602060002090600402016000915090508060010154908060020154908060030154905083565b610c13611b82565b73ffffffffffffffffffffffffffffffffffffffff16610c31610f86565b73ffffffffffffffffffffffffffffffffffffffff1614610c87576040517f08c379a0000000000000000000000000000000000000000000000000000000008152600401610c7e90613459565b60405180910390fd5b610cb37ff404a7399c51ceccfc8896d4f73e1ba232e23ef715a04416783ff143e621eb8960001b61036f565b610cdf7f7432fb932417d35b258587b51904493f050a7858f13946f39b21acbda2d5bdbc60001b61036f565b610d0b7f591bc401a8287a136b5e71369568824f68fa350dc4ed2da5a6082d94e3c7b15060001b61036f565b610d377f976b5e64f8ee3a79d1c738384d2e1167a7f62f3cbd46a81415636a18065b693760001b61036f565b600073ffffffffffffffffffffffffffffffffffffffff168173ffffffffffffffffffffffffffffffffffffffff161415610da7576040517f08c379a0000000000000000000000000000000000000000000000000000000008152600401610d9e906134b9565b60405180910390fd5b610dd37f015b5d456da7d6544fff06981c2d5ef7d3f693758b6a59c666dec390bbf29f0f60001b61036f565b610dff7ffae18c4d3f38c154bdbccd5c79c3234ff5759ee734cc6c2dd96fc2e095b546c960001b61036f565b610e2b7fa59d056945d3a9d6bd41b3db544f4af9424702c3276fa821dba0a418811b747c60001b61036f565b80600460006101000a81548173ffffffffffffffffffffffffffffffffffffffff021916908373ffffffffffffffffffffffffffffffffffffffff160217905550610e987f7ea495be60bd2e47979bcfaa52601b066f4edf02230beaf6697e0eac87edde7e60001b61036f565b610ec47f2f123c2ae8c7511006c7c0ca96ed5aa41e68b403a560da81948b4a752ae1de9960001b61036f565b7f258a7a0df6106f41c2e99c09f1b64931f5f284242bbc50272d5a752ac2f30dde81604051610ef391906132f5565b60405180910390a150565b610f06611b82565b73ffffffffffffffffffffffffffffffffffffffff16610f24610f86565b73ffffffffffffffffffffffffffffffffffffffff1614610f7a576040517f08c379a0000000000000000000000000000000000000000000000000000000008152600401610f7190613459565b60405180910390fd5b610f846000611b8a565b565b60008060009054906101000a900473ffffffffffffffffffffffffffffffffffffffff16905090565b610fb7611b82565b73ffffffffffffffffffffffffffffffffffffffff16610fd5610f86565b73ffffffffffffffffffffffffffffffffffffffff161461102b576040517f08c379a000000000000000000000000000000000000000000000000000000000815260040161102290613459565b60405180910390fd5b6110577f82c847971dd2bd20a22ff3e0dadf5124a0d6d4badf95232dd7c07c57750502c260001b61036f565b6110837f5316dc8553effc0a42174944a0c7d02bca1ef93a85335f55f0abec7687ff45e760001b61036f565b6110af7f938c0723da5da40898e82466fb43fa8c49ef9566e9b6c0af3281f2a29051fceb60001b61036f565b6110db600460009054906101000a900473ffffffffffffffffffffffffffffffffffffffff1647611a8e565b565b6110e5611b82565b73ffffffffffffffffffffffffffffffffffffffff16611103610f86565b73ffffffffffffffffffffffffffffffffffffffff1614611159576040517f08c379a000000000000000000000000000000000000000000000000000000000815260040161115090613459565b60405180910390fd5b6111857f9d9b27c7fda8aa64a3d06f3a68df8bcb7f58b499c9366dfdc29955a5b62c542560001b61036f565b6111b17fb864d13fb8a63fb20d62b50baeae8a440fd4b2d159d9a6dc7adbd20bc93fdc3560001b61036f565b6111dd7f8d01b862f9fa201bfbf54d305e71ef577cc4132ba1a993618af97ce07d0018f660001b61036f565b6112097f499b72209b017f6c8f31fb3e07a2aa89e3b8fcfadfe8802af4c0a44390d125b160001b61036f565b6000841180156112195750600083115b80156112255750600082115b80156112315750600081115b611270576040517f08c379a000000000000000000000000000000000000000000000000000000000815260040161126790613439565b60405180910390fd5b61129c7f58cb2a1024a76c75c6bd35a8dba6bf66a82d13b067fe7af7bc4d20603a7fe89760001b61036f565b6112c87fcf64aaec895f2b4c12bc99d24e91bfde571e9750010e80c14c4d81e94bc4c88060001b61036f565b6112f47f1867702285b8c096e2a5384aae8539068f25c000569f954dd8cd63db4e9cd2a060001b61036f565b836003600081548110611330577f4e487b7100000000000000000000000000000000000000000000000000000000600052603260045260246000fd5b9060005260206000209060040201600101819055506113717fe56b2c0a5d8a8e30f28311a1cd0f057c2f27251fd77ece6a519d249e365bf08960001b61036f565b61139d7f08c88aa8242fd2192e1e3b203f0fa4965538cbd1e0c4be5a14ed00bed77f648060001b61036f565b8260036001815481106113d9577f4e487b7100000000000000000000000000000000000000000000000000000000600052603260045260246000fd5b90600052602060002090600402016001018190555061141a7f01aa184fa3a16bba49920adbf98bd7ca31b4f1df1c67047a64fb6cd7bfe4dbd860001b61036f565b6114467f388638ad29106d767167f1b1f82cd2abb9e7b422bb59b040ba4f1cbc15d14efd60001b61036f565b816003600281548110611482577f4e487b7100000000000000000000000000000000000000000000000000000000600052603260045260246000fd5b9060005260206000209060040201600101819055506114c37f01429913f6a034aebff04675d2d7ad1405ddc25ef3a0d7d6c3a0a831892f516460001b61036f565b6114ef7f4e4b66e805a655fb6b59b3b28568570226b648f878c0c7b8e71a5da326db1ebf60001b61036f565b806003808154811061152a577f4e487b7100000000000000000000000000000000000000000000000000000000600052603260045260246000fd5b90600052602060002090600402016001018190555050505050565b61154d612d9f565b6115797f0c52eea20e2ef2811f0e393529378a65a4214a4ead3078ce5975610cd7c02f9e60001b61036f565b6115a57fda90348ab7a41dc0e9222d7e8dd458d195230edb0a0f55f041354ca2f1ce0a8a60001b61036f565b6115d17f9c9ea751d9057a82d03ef4a6c7e7724e45f4a9b590386f8ec2e63803df87873360001b61036f565b6003828154811061160b577f4e487b7100000000000000000000000000000000000000000000000000000000600052603260045260246000fd5b906000526020600020906004020160405180608001604052908160008201600680602002604051908101604052809291908260068015611688576020028201916000905b82829054906101000a900461ffff1661ffff168152602001906002019060208260010104928301926001038202915080841161164f5790505b5050505050815260200160018201548152602001600282015481526020016003820154815250509050919050565b6116be611b82565b73ffffffffffffffffffffffffffffffffffffffff166116dc610f86565b73ffffffffffffffffffffffffffffffffffffffff1614611732576040517f08c379a000000000000000000000000000000000000000000000000000000000815260040161172990613459565b60405180910390fd5b600073ffffffffffffffffffffffffffffffffffffffff168173ffffffffffffffffffffffffffffffffffffffff1614156117a2576040517f08c379a0000000000000000000000000000000000000000000000000000000008152600401611799906133b9565b60405180910390fd5b6117ab81611b8a565b50565b60008060006117df7f4f1ccfc0672f49eb80d3cc3d6ddfd397f21c967b911aa18e43c83a9fca92ebbe60001b61036f565b61180b7f31e345e38fc48a510e7ccddd37e3844b6a7811bbf7303e6dcd9368254a3002ee60001b61036f565b6118377ff703bb42473d3668ec23a52813cb29bb861fec386b03c83499bf6a82bd5e04ad60001b61036f565b60006118f060038681548110611876577f4e487b7100000000000000000000000000000000000000000000000000000000600052603260045260246000fd5b90600052602060002090600402016000016006806020026040519081016040528092919082600680156118e6576020028201916000905b82829054906101000a900461ffff1661ffff16815260200190600201906020826001010492830192600103820291508084116118ad5790505b5050505050611c4e565b905061191e7f132f5b42373d7f3cdeb30e5701a81b83f7f1f0e87095e73e0e2688c64922d6f960001b61036f565b61194a7f9519dade485af838b68bc82b533285ba422b72e440feac7707541177b505a98260001b61036f565b80600060028110611984577f4e487b7100000000000000000000000000000000000000000000000000000000600052603260045260246000fd5b602002015193506119b77ff1c36e458b84ef54a8adf7dd0c4f97006ffa8f93723bf644cb76bb274cbf623360001b61036f565b6119e37fbc686641b3b69eec55a632921b7099473fe535445ce9c67fb93d37a3718a983d60001b61036f565b80600160028110611a1d577f4e487b7100000000000000000000000000000000000000000000000000000000600052603260045260246000fd5b60200201519150611a507f03347ae95d9b6ac4e26fb45b7feacdc6c6d26fac22c9ad8e4272545ef3dcf33660001b61036f565b611a7c7f61a763dc7f6937c2e166bd258607974a6236dbb83e53974143f887c676aae9d860001b61036f565b611a8461266e565b9250509193909250565b80471015611ad1576040517f08c379a0000000000000000000000000000000000000000000000000000000008152600401611ac8906133f9565b60405180910390fd5b60008273ffffffffffffffffffffffffffffffffffffffff1682604051611af790613288565b60006040518083038185875af1925050503d8060008114611b34576040519150601f19603f3d011682016040523d82523d6000602084013e611b39565b606091505b5050905080611b7d576040517f08c379a0000000000000000000000000000000000000000000000000000000008152600401611b74906133d9565b60405180910390fd5b505050565b600033905090565b60008060009054906101000a900473ffffffffffffffffffffffffffffffffffffffff169050816000806101000a81548173ffffffffffffffffffffffffffffffffffffffff021916908373ffffffffffffffffffffffffffffffffffffffff1602179055508173ffffffffffffffffffffffffffffffffffffffff168173ffffffffffffffffffffffffffffffffffffffff167f8be0079c531659141344cd1fd0a4f28419497f9722a3daafe3b4186f6b6457e060405160405180910390a35050565b611c56612dcd565b611c827f2b1d4b9f62d0b5eb2131868b16e064bdc68be5bc06a0c801cb77d6c96104b03460001b61036f565b611cae7ff550798c8bf0cc5ff0638c0cb054b3cbe6257d30c36393b5468bf6360c77a1d860001b61036f565b611cda7fc929ea0d2ab00ba1b1292c9d86b3221f24a6f5074a9a0e83bb1ffe112aa7ceda60001b61036f565b611ce2612dcd565b611d0e7f5149f0a5b529aef7860441c21a3dd97ea2242c5989cf51e692f86df25329b8e360001b61036f565b611d3a7fec6682d5b46343c3816517a51ef5f531a2b01660341144c2bafa381981e6b48960001b61036f565b6000611d476103e8612d43565b9050611d757faeb24a40b88a0e8e976b56948982aa53e815eb52ec26259f3f5367e4b37fbcbc60001b61036f565b611da17f0eb4d906fceddb876f6af03d63d70e428a6b8f30165dd09ec9cde577f920b72e60001b61036f565b83600060068110611ddb577f4e487b7100000000000000000000000000000000000000000000000000000000600052603260045260246000fd5b602002015161ffff168111611e9257611e167f656c7d328f39a04a5928217f6360a80d481d60ac63ec4c1c403960bd84b4c1f560001b61036f565b611e427ffbb42775fc86e3f80d60e70e5230675f4f90fb7cb0c65733d1ec29ca9df7209960001b61036f565b611e6e7f9304f9760b79eb8c46c764f8cb4683371ef61c380d840a767fc349266e6ce01160001b61036f565b6040518060400160405280600060ff168152602001600060ff168152509150611ebf565b611ebe7f61250301e375c8d6779ef19954ad86531d8c92a1dc515b8e417d34a72371bc8060001b61036f565b5b611eeb7f73113d86847fcdf20d0366fc7a8e323587a67305f7ba0461e33ee65b71c05baf60001b61036f565b611f177fdc151dc2f6b3703d8e31962e180e5ed18eaf294748243179bd201d780d70853a60001b61036f565b83600160068110611f51577f4e487b7100000000000000000000000000000000000000000000000000000000600052603260045260246000fd5b602002015161ffff16811161200857611f8c7fbe8017ec70041002ebd7232a849cc78cd3805b017751e54e0465983029fcfe7b60001b61036f565b611fb87f6d7e2f1ce5b6fe18d10a80e9b4069623a8b46cb35771aff2951f939a6cfe34d860001b61036f565b611fe47f4cb59524a85ee08fef6b9843cc05c46364e9f540abcd203f0a65e7b6c0acfc8060001b61036f565b6040518060400160405280600060ff168152602001600160ff168152509150612035565b6120347f1e7faa5e50f06061cf43a92a343f4902c7d0401a8afa655d7d6274c94ba72d9a60001b61036f565b5b6120617f2723c2fe1abb9015f5fe66db3098b66b3f4ca7781f94cba878a1a1dbc74226da60001b61036f565b61208d7fdc0f120281e3c19a60352808b9460f3083d7c95e70d56d9e37872aef33e683dc60001b61036f565b836002600681106120c7577f4e487b7100000000000000000000000000000000000000000000000000000000600052603260045260246000fd5b602002015161ffff16811161217e576121027ff160d6c0d4d6283be40b867993217be2886493add30175a6d3507c17e977531e60001b61036f565b61212e7ff9a35b0115309077a8dbb44cef00878333e826d76a0898caf4e9a82e9643b6dd60001b61036f565b61215a7fd0912c3f0f097beb403f50b5e372c938965457e3b1a1c3465f534fafce2330d360001b61036f565b6040518060400160405280600060ff168152602001600260ff1681525091506121ab565b6121aa7fd7a217412321994d233d21c9edc2f7151cc4fe6d67e5d9fe51e161dee4f7ed7d60001b61036f565b5b6121d77f7a705e5ac94fb1b779d69abbb054e1c1c5707a759394e41cff7578de5d08fdc160001b61036f565b6122037f340c29fba65f6f8c6067fb1f88117319bf5774f751564e6534a6be4553431bb060001b61036f565b8360036006811061223d577f4e487b7100000000000000000000000000000000000000000000000000000000600052603260045260246000fd5b602002015161ffff1681116122f4576122787f91dee09793628482f75c2f7b971204cf84152e539702dac4746bc2096a6bcefa60001b61036f565b6122a47f4350799231ec781d3bc565d2340d464d29a27c094cb285742f3a41b31490deeb60001b61036f565b6122d07f5004e5c59964d3896348f6d3d0fb8e78bccd4a65f7a746c658144445bc954d6a60001b61036f565b6040518060400160405280600160ff168152602001600060ff168152509150612321565b6123207f31397eed5af091dc3ba7eb0940891b9cd3038c55fc3da097681e58d9e94c681d60001b61036f565b5b61234d7fe8dbf59bd6d6ea5b6ab48554c2e800214b8a3c2fa18781e25d9de86bd10739c660001b61036f565b6123797f0cf192d4b48ddf6c3bb3d836b386d664617df2828868c4a23ffe189cb7906b4860001b61036f565b836004600681106123b3577f4e487b7100000000000000000000000000000000000000000000000000000000600052603260045260246000fd5b602002015161ffff16811161246a576123ee7f7078a7f1849e3d28656ecc502c633a9c6c59664740fab533a591cebce2e8005f60001b61036f565b61241a7f0e0438776879b3ebdb1496cb04ffd997571c63ad90ebb5420ec606f6209779fc60001b61036f565b6124467f3f9ee23162df05b76099a2a26c541788e9b114931d96760670ac57727ef2c1be60001b61036f565b6040518060400160405280600160ff168152602001600160ff168152509150612497565b6124967f7b875fcb0e368d97d394a1e820b6c9ab323e2fce297c52d1e65fe1126276d25460001b61036f565b5b6124c37f34d2bda1a1ef3d31943912d900a9d6f665455024d14d3f370dee7b803caffbb260001b61036f565b6124ef7f054dadd621663d77c7abf3a93ed584bb0ebddb64365a40916d8e65fe542c0f1860001b61036f565b83600560068110612529577f4e487b7100000000000000000000000000000000000000000000000000000000600052603260045260246000fd5b602002015161ffff1681116125e0576125647fe59d39b25517f44a6ebdba221484f3c39a8137e381a7105911c07bd1310c6cc660001b61036f565b6125907f9ab78d7907a98dc01fecc0c5b3a6eee956a0a3d4b72d03cc2a6c80183be5923d60001b61036f565b6125bc7f28a65bd2448fe8abefc6a89cf1d3cc4c622bf08fc42c4f87bc0c1018e8b6ad7a60001b61036f565b6040518060400160405280600160ff168152602001600260ff16815250915061260d565b61260c7fe310e8770659302f2a60dda7d5f6521345677926e50d315688d8747a6ce52e6560001b61036f565b5b6126387e6c67f586e34b947ff4aa060175da8e554d8a7954cd2ed9d70f534a5e0b6d5460001b61036f565b6126647feb2b694f00702de1c517d068aefe423ac6b1d113e2009b6a8f9eed59c38da7f860001b61036f565b8192505050919050565b600061269c7f67acf69d32836d14e570a89c847b98af2c15b477ff218b2035da5d8fcd956ecd60001b61036f565b6126c87f57753ff887614fadf259210ee013ab1bfcd8f404764d7ea38ace17c11e89a52560001b61036f565b6126f47f97f6f4f0b94f2b01db40496218e963669886bc80d413197fa29d59646a37612360001b61036f565b60006127227fc3bfc9c4c0377789279726494e38e19e1c5f49ae6125f22501a653465fbdf91360001b61036f565b61274e7f3bf1e2df1669994890601f116ad25bd6ab607223d699cb3db2434cb76c695d2560001b61036f565b600061275b6103e8612d43565b90506127897feda7d709dc77c1a830298cb86d51d79d2b1bdafa36a3576404c1f0f0511c3ee860001b61036f565b6127b57ffefc9edf86ab26671211d6d8cb83d4e295c7458730bdd08e1bc939496e9c045f60001b61036f565b6103e8811161284b576127ea7f6800dfa0273e9be9876ed9fac972812dec5cf74deb8c39e55adf0c3b4fc3952760001b61036f565b6128167f117fb7eae51ea29f0df414a1845fb03a04b3d3d3885bfce744d4397084564de760001b61036f565b6128427f1dac276a5bb6d4ee41d035c7a6ee84bb6e65f4d8a1d90a2aed0371c9586a20be60001b61036f565b60009150612878565b6128777faf8f30e6382a027fc1719c39fc58a23a7defae89da79735276f04a8343b3cc5660001b61036f565b5b6128a47f6737bcc5a58e630a1cbed794593babf3e9b411984923414c6414d50dec954c1860001b61036f565b6128d07f826a61a52d96e1893ea00e2fc4ffb29b9c6f11693f976a48d094795190e8654360001b61036f565b6103208111612966576129057f3cade9a75af039c83dfbda44fe6d95202ab00580e8b8c24e8d9e39aa114e5ffc60001b61036f565b6129317f92e198819f9674bfde4dc979dce4ba6b53782982226d5ac3ff17c5a95bb6520960001b61036f565b61295d7f94be11ee95ec29b26f061429c2424484099986da7db724482fb42689b6a1932d60001b61036f565b60019150612993565b6129927f7943a465fbf24c39f4d48a7a963f990a5c7d57bf83ef1d3910b92ae300dabbe360001b61036f565b5b6129bf7f31d7a23e59497bbd0b3d1b15b3b46d75302f647e27eb1b3c102932a87e2433b260001b61036f565b6129eb7ff18dff22ed7478a69eb6065f2125778a021ea153e46cd758a06e5a9f90b0c8b160001b61036f565b6102588111612a8157612a207fe5acda9c8d5d1eddf5d3740a58c32ff60b08ebe87409ce70217048b38a4e8fc560001b61036f565b612a4c7fa19d75cd7fe3c8833779afc7ca0c2fe4db85dc94701fec9163787a3eb6da794a60001b61036f565b612a787f9d647ecb04643b9f29b23d0e61acc903f498bba777f03061c6739a7317388cd060001b61036f565b60029150612aae565b612aad7f5ea055e430f49b2306c109558a6fcb45a7d1cecd345ff0517fb51ee31251127260001b61036f565b5b612ada7faffb81806c380bb680e65fa863a7a56c6f3d21fd0ecfcfc767fa4d292067c15f60001b61036f565b612b067fb3a9ede099fa1bc6d16c218894f3cfc2a00564dbe7c2a458c7ddd72ae9584b5460001b61036f565b6101908111612b9c57612b3b7fb37ec09351c0f8173e9eb76df5bceab28906bdaeae3e5dfacbe46cd3d63356ee60001b61036f565b612b677fa419369869c7abeb267c0ec7a2118117bce056d8f7098426d24d169cfee9b65860001b61036f565b612b937f1ca221770c79a53732b51924c3c62a8afd598bcc895a38cb719b77862025118160001b61036f565b60039150612bc9565b612bc87f60728671ac204eb03d54257ff6c491dda22280ccab2a6431b1ea1bb932d75c7960001b61036f565b5b612bf57f36c090ff823b77af984c18039751e3d65c2ce9fce93b4f6a9eee9f1d8253426360001b61036f565b612c217f58ba9f5aa262d453cbb7ab647dc253a61b7231485509dfe499de3259cc28c7fc60001b61036f565b60c88111612cb657612c557f617baea621c90051ec060038ad4c965f356011c0e49aa706ee27da971ecb911360001b61036f565b612c817f4f6d6374daee4da015227bb1dad5c430656cf0c41f90b4afe6b40df1c10d3bdb60001b61036f565b612cad7f306f4b3cf55b496ed490021875e96faba1cd28be0e9a15d36e7ee4d7aa1080a960001b61036f565b60049150612ce3565b612ce27f9d1b7b79382ce0a000da97162ea162c7bb9b83987302367eb24dc80b3f32d59d60001b61036f565b5b612d0f7f15cccef09b3d7ce1af66c6fedb6a36db2aeb2031ac20e30df69829963e5e5ebd60001b61036f565b612d3b7fe4e50cb6c80ad4c7aed207ba256d0e650029e5588cdebb6020310130b46ee8ef60001b61036f565b819250505090565b600060016000815480929190612d589061367d565b9190505550814233600154604051602001612d759392919061329d565b6040516020818303038152906040528051906020012060001c612d9891906136f4565b9050919050565b6040518060800160405280612db2612def565b81526020016000815260200160008152602001600081525090565b6040518060400160405280600290602082028036833780820191505090505090565b6040518060c00160405280600690602082028036833780820191505090505090565b600081359050612e2081613979565b92915050565b600081359050612e3581613990565b92915050565b600081359050612e4a816139a7565b92915050565b600081359050612e5f816139be565b92915050565b600081519050612e74816139be565b92915050565b600060208284031215612e8c57600080fd5b6000612e9a84828501612e11565b91505092915050565b600060208284031215612eb557600080fd5b6000612ec384828501612e26565b91505092915050565b600060208284031215612ede57600080fd5b6000612eec84828501612e3b565b91505092915050565b600060208284031215612f0757600080fd5b6000612f1584828501612e50565b91505092915050565b600060208284031215612f3057600080fd5b6000612f3e84828501612e65565b91505092915050565b60008060008060808587031215612f5d57600080fd5b6000612f6b87828801612e50565b9450506020612f7c87828801612e50565b9350506040612f8d87828801612e50565b9250506060612f9e87828801612e50565b91505092959194509250565b6000612fb68383613235565b60208301905092915050565b612fcb816135f8565b82525050565b612fda816135e6565b82525050565b612ff1612fec826135e6565b6136c6565b82525050565b61300081613551565b61300a8184613569565b925061301582613547565b8060005b8381101561304657815161302d8782612faa565b96506130388361355c565b925050600181019050613019565b505050505050565b61305781613659565b82525050565b600061306a601f8361357f565b915061307582613790565b602082019050919050565b600061308d60268361357f565b9150613098826137b9565b604082019050919050565b60006130b0603a8361357f565b91506130bb82613808565b604082019050919050565b60006130d3601d8361357f565b91506130de82613857565b602082019050919050565b60006130f6601a8361357f565b915061310182613880565b602082019050919050565b600061311960188361357f565b9150613124826138a9565b602082019050919050565b600061313c60208361357f565b9150613147826138d2565b602082019050919050565b600061315f601e8361357f565b915061316a826138fb565b602082019050919050565b6000613182601d8361357f565b915061318d82613924565b602082019050919050565b60006131a560158361357f565b91506131b08261394d565b602082019050919050565b60006131c8600083613574565b91506131d382613976565b600082019050919050565b610120820160008201516131f56000850182612ff7565b50602082015161320860c0850182613244565b50604082015161321b60e0850182613244565b50606082015161322f610100850182613244565b50505050565b61323e81613614565b82525050565b61324d81613642565b82525050565b61325c81613642565b82525050565b61327361326e82613642565b6136ea565b82525050565b6132828161364c565b82525050565b6000613293826131bb565b9150819050919050565b60006132a98286613262565b6020820191506132b98285612fe0565b6014820191506132c98284613262565b602082019150819050949350505050565b60006020820190506132ef6000830184612fd1565b92915050565b600060208201905061330a6000830184612fc2565b92915050565b60006040820190506133256000830185612fd1565b6133326020830184613253565b9392505050565b600060808201905061334e6000830187612fd1565b61335b6020830186613279565b6133686040830185613279565b6133756060830184613279565b95945050505050565b6000602082019050613393600083018461304e565b92915050565b600060208201905081810360008301526133b28161305d565b9050919050565b600060208201905081810360008301526133d281613080565b9050919050565b600060208201905081810360008301526133f2816130a3565b9050919050565b60006020820190508181036000830152613412816130c6565b9050919050565b60006020820190508181036000830152613432816130e9565b9050919050565b600060208201905081810360008301526134528161310c565b9050919050565b600060208201905081810360008301526134728161312f565b9050919050565b6000602082019050818103600083015261349281613152565b9050919050565b600060208201905081810360008301526134b281613175565b9050919050565b600060208201905081810360008301526134d281613198565b9050919050565b6000610120820190506134ef60008301846131de565b92915050565b600060208201905061350a6000830184613253565b92915050565b60006060820190506135256000830186613253565b6135326020830185613253565b61353f6040830184613253565b949350505050565b6000819050919050565b600060069050919050565b6000602082019050919050565b600081905092915050565b600081905092915050565b600082825260208201905092915050565b600061359b82613642565b91506135a683613642565b9250827fffffffffffffffffffffffffffffffffffffffffffffffffffffffffffffffff038211156135db576135da613725565b5b828201905092915050565b60006135f182613622565b9050919050565b600061360382613622565b9050919050565b6000819050919050565b600061ffff82169050919050565b600073ffffffffffffffffffffffffffffffffffffffff82169050919050565b6000819050919050565b600060ff82169050919050565b60006136648261366b565b9050919050565b600061367682613622565b9050919050565b600061368882613642565b91507fffffffffffffffffffffffffffffffffffffffffffffffffffffffffffffffff8214156136bb576136ba613725565b5b600182019050919050565b60006136d1826136d8565b9050919050565b60006136e382613783565b9050919050565b6000819050919050565b60006136ff82613642565b915061370a83613642565b92508261371a57613719613754565b5b828206905092915050565b7f4e487b7100000000000000000000000000000000000000000000000000000000600052601160045260246000fd5b7f4e487b7100000000000000000000000000000000000000000000000000000000600052601260045260246000fd5b60008160601b9050919050565b7f4c6f6f74426f783a20626f78206c696d69742069732065786861757374656400600082015250565b7f4f776e61626c653a206e6577206f776e657220697320746865207a65726f206160008201527f6464726573730000000000000000000000000000000000000000000000000000602082015250565b7f416464726573733a20756e61626c6520746f2073656e642076616c75652c207260008201527f6563697069656e74206d61792068617665207265766572746564000000000000602082015250565b7f416464726573733a20696e73756666696369656e742062616c616e6365000000600082015250565b7f4c6f6f74426f78466163746f72793a2075736520627579426f78000000000000600082015250565b7f4c6f6f74426f783a20696e636f72726563742070726963650000000000000000600082015250565b7f4f776e61626c653a2063616c6c6572206973206e6f7420746865206f776e6572600082015250565b7f4c6f6f74426f783a2077726f6e6720707572636861736520616d6f756e740000600082015250565b7f4c6f6f74426f783a205468697320626f782069736e2774206578697374000000600082015250565b7f4c6f6f74426f783a207a65726f20616464726573730000000000000000000000600082015250565b50565b613982816135e6565b811461398d57600080fd5b50565b613999816135f8565b81146139a457600080fd5b50565b6139b08161360a565b81146139bb57600080fd5b50565b6139c781613642565b81146139d257600080fd5b5056fea26469706673582212204c05318e8c44720fc3e030b5526c3f1b4186880a9faaaf90f5f54e105427848b64736f6c63430008040033",
  "linkReferences": {},
  "deployedLinkReferences": {}
}