{
  "_format": "hh-sol-artifact-1",
  "contractName": "LootBoxFactory",
  "sourceName": "contracts/LootBoxFactory.sol",
  "abi": [
    {
      "inputs": [
        {
          "internalType": "address",
          "name": "_nft",
          "type": "address"
        }
      ],
      "stateMutability": "nonpayable",
      "type": "constructor"
    },
    {
      "anonymous": false,
      "inputs": [
        {
          "indexed": false,
          "internalType": "address",
          "name": "buyer",
          "type": "address"
        },
        {
          "indexed": false,
          "internalType": "uint256",
          "name": "tokenId",
          "type": "uint256"
        }
      ],
      "name": "NewBoxBought",
      "type": "event"
    },
    {
      "anonymous": false,
      "inputs": [
        {
          "indexed": false,
          "internalType": "address payable",
          "name": "newSeller",
          "type": "address"
        }
      ],
      "name": "NewSeller",
      "type": "event"
    },
    {
      "anonymous": false,
      "inputs": [
        {
          "indexed": true,
          "internalType": "address",
          "name": "previousOwner",
          "type": "address"
        },
        {
          "indexed": true,
          "internalType": "address",
          "name": "newOwner",
          "type": "address"
        }
      ],
      "name": "OwnershipTransferred",
      "type": "event"
    },
    {
      "inputs": [
        {
          "internalType": "uint256",
          "name": "",
          "type": "uint256"
        }
      ],
      "name": "boxes",
      "outputs": [
        {
          "internalType": "uint256",
          "name": "price",
          "type": "uint256"
        },
        {
          "internalType": "uint256",
          "name": "maxCount",
          "type": "uint256"
        },
        {
          "internalType": "uint256",
          "name": "currentCount",
          "type": "uint256"
        }
      ],
      "stateMutability": "view",
      "type": "function"
    },
    {
      "inputs": [
        {
          "internalType": "uint256",
          "name": "_boxId",
          "type": "uint256"
        }
      ],
      "name": "buyBox",
      "outputs": [],
      "stateMutability": "payable",
      "type": "function"
    },
    {
      "inputs": [
        {
          "internalType": "uint256",
          "name": "boxId_",
          "type": "uint256"
        }
      ],
      "name": "getBox",
      "outputs": [
        {
          "components": [
            {
              "internalType": "uint16[6]",
              "name": "rand",
              "type": "uint16[6]"
            },
            {
              "internalType": "uint256",
              "name": "price",
              "type": "uint256"
            },
            {
              "internalType": "uint256",
              "name": "maxCount",
              "type": "uint256"
            },
            {
              "internalType": "uint256",
              "name": "currentCount",
              "type": "uint256"
            }
          ],
          "internalType": "struct LootBoxFactory.LootBox",
          "name": "",
          "type": "tuple"
        }
      ],
      "stateMutability": "view",
      "type": "function"
    },
    {
      "inputs": [
        {
          "internalType": "uint256",
          "name": "boxId_",
          "type": "uint256"
        }
      ],
      "name": "getBoxPrice",
      "outputs": [
        {
          "internalType": "uint256",
          "name": "",
          "type": "uint256"
        }
      ],
      "stateMutability": "view",
      "type": "function"
    },
    {
      "inputs": [],
      "name": "nft",
      "outputs": [
        {
          "internalType": "contract ICyberWayNFT",
          "name": "",
          "type": "address"
        }
      ],
      "stateMutability": "view",
      "type": "function"
    },
    {
      "inputs": [],
      "name": "owner",
      "outputs": [
        {
          "internalType": "address",
          "name": "",
          "type": "address"
        }
      ],
      "stateMutability": "view",
      "type": "function"
    },
    {
      "inputs": [],
      "name": "renounceOwnership",
      "outputs": [],
      "stateMutability": "nonpayable",
      "type": "function"
    },
    {
      "inputs": [],
      "name": "seller",
      "outputs": [
        {
          "internalType": "address payable",
          "name": "",
          "type": "address"
        }
      ],
      "stateMutability": "view",
      "type": "function"
    },
    {
      "inputs": [
        {
          "internalType": "uint256",
          "name": "boxOnePrice",
          "type": "uint256"
        },
        {
          "internalType": "uint256",
          "name": "boxTwoPrice",
          "type": "uint256"
        },
        {
          "internalType": "uint256",
          "name": "boxThreePrice",
          "type": "uint256"
        },
        {
          "internalType": "uint256",
          "name": "boxFourPrice",
          "type": "uint256"
        }
      ],
      "name": "setPrices",
      "outputs": [],
      "stateMutability": "nonpayable",
      "type": "function"
    },
    {
      "inputs": [
        {
          "internalType": "address",
          "name": "newOwner",
          "type": "address"
        }
      ],
      "name": "transferOwnership",
      "outputs": [],
      "stateMutability": "nonpayable",
      "type": "function"
    },
    {
      "inputs": [
        {
          "internalType": "address payable",
          "name": "newSeller_",
          "type": "address"
        }
      ],
      "name": "updateSellerAddress",
      "outputs": [],
      "stateMutability": "nonpayable",
      "type": "function"
    },
    {
      "inputs": [],
      "name": "withdrawFactoryBalance",
      "outputs": [],
      "stateMutability": "nonpayable",
      "type": "function"
    },
    {
      "stateMutability": "payable",
      "type": "receive"
    }
  ],
  "bytecode": "0x608060405260006001553480156200001657600080fd5b506040516200191d3803806200191d833981016040819052620000399162000334565b6200004433620001a1565b600280546001600160a01b0383166001600160a01b031991821617825560048054909116331790556040805160c08101825261014a8152602160208201529081019190915261023a6060820152603c6080820152600560a0820152620000b59066e35fa931a00000614e20620001f1565b6040805160c08101825261010e8152605a60208201526006918101919091526101d6606082015260966080820152600e60a082015262000101906702386f26fc100000611388620001f1565b6040805160c08101825261010e80825260b460208301526028928201839052606082015260c8608082015260a08101919091526200014b906705f7aab8c56b00006103e8620001f1565b6040805160c081018252600080825260fa602083015261015e9282019290925260608101829052608081019190915261019060a082018190526200019a9190670e92596fd629000090620001f1565b5062000364565b600080546001600160a01b038381166001600160a01b0319831681178455604051919092169283917f8be0079c531659141344cd1fd0a4f28419497f9722a3daafe3b4186f6b6457e09190a35050565b6040805160808101825284815260208101849052908101829052600060608201819052600380546001810182559152815182916004027fc2575a0e9e593c00f959f8c92f12db2869c3395a3b0502d05e2516446f71f85b019062000259908290600662000280565b50602082015181600101556040820151816002015560608201518160030155505050505050565b6001830191839082156200030b5791602002820160005b83821115620002d957835183826101000a81548161ffff021916908361ffff160217905550926020019260020160208160010104928301926001030262000297565b8015620003095782816101000a81549061ffff0219169055600201602081600101049283019260010302620002d9565b505b50620003199291506200031d565b5090565b5b808211156200031957600081556001016200031e565b60006020828403121562000346578081fd5b81516001600160a01b03811681146200035d578182fd5b9392505050565b6115a980620003746000396000f3fe6080604052600436106100cb5760003560e01c8063715018a611610074578063d8e868541161004e578063d8e86854146102b3578063e3b14ad1146102d3578063f2fde38b1461030057600080fd5b8063715018a61461025e5780638da5cb5b1461027357806397a39fb91461029e57600080fd5b806347ccca02116100a557806347ccca02146101d65780634ed3faf214610203578063685dab8f1461023e57600080fd5b806308551a531461013c57806324b61b86146101935780633e049343146101c157600080fd5b36610137576040517f08c379a000000000000000000000000000000000000000000000000000000000815260206004820152601a60248201527f4c6f6f74426f78466163746f72793a2075736520627579426f7800000000000060448201526064015b60405180910390fd5b600080fd5b34801561014857600080fd5b506004546101699073ffffffffffffffffffffffffffffffffffffffff1681565b60405173ffffffffffffffffffffffffffffffffffffffff90911681526020015b60405180910390f35b34801561019f57600080fd5b506101b36101ae3660046113e1565b610320565b60405190815260200161018a565b6101d46101cf3660046113e1565b610375565b005b3480156101e257600080fd5b506002546101699073ffffffffffffffffffffffffffffffffffffffff1681565b34801561020f57600080fd5b5061022361021e3660046113e1565b610786565b6040805193845260208401929092529082015260600161018a565b34801561024a57600080fd5b506101d46102593660046113be565b6107bc565b34801561026a57600080fd5b506101d4610933565b34801561027f57600080fd5b5060005473ffffffffffffffffffffffffffffffffffffffff16610169565b3480156102aa57600080fd5b506101d46109c0565b3480156102bf57600080fd5b506101d46102ce366004611411565b610a64565b3480156102df57600080fd5b506102f36102ee3660046113e1565b610cbc565b60405161018a9190611442565b34801561030c57600080fd5b506101d461031b3660046113be565b610d93565b60006003828154811061035c577f4e487b7100000000000000000000000000000000000000000000000000000000600052603260045260246000fd5b9060005260206000209060040201600101549050919050565b6003548110610405576040517f08c379a0000000000000000000000000000000000000000000000000000000008152602060048201526024808201527f4c6f6f74426f78466163746f72793a205468697320626f782069736e2774206560448201527f7869737400000000000000000000000000000000000000000000000000000000606482015260840161012e565b3460038281548110610440577f4e487b7100000000000000000000000000000000000000000000000000000000600052603260045260246000fd5b906000526020600020906004020160010154146104b9576040517f08c379a000000000000000000000000000000000000000000000000000000000815260206004820152601f60248201527f4c6f6f74426f78466163746f72793a20696e636f72726563742076616c756500604482015260640161012e565b600381815481106104f3577f4e487b7100000000000000000000000000000000000000000000000000000000600052603260045260246000fd5b9060005260206000209060040201600201546003828154811061053f577f4e487b7100000000000000000000000000000000000000000000000000000000600052603260045260246000fd5b906000526020600020906004020160030154600161055d9190611498565b106105ea576040517f08c379a000000000000000000000000000000000000000000000000000000000815260206004820152602660248201527f4c6f6f74426f78466163746f72793a20626f78206c696d69742069732065786860448201527f6175737465640000000000000000000000000000000000000000000000000000606482015260840161012e565b60008060006105f884610ec3565b6002546040517fc75986ee00000000000000000000000000000000000000000000000000000000815233600482015260ff8086166024830152808516604483015283166064820152939650919450925060009173ffffffffffffffffffffffffffffffffffffffff9091169063c75986ee90608401602060405180830381600087803b15801561068757600080fd5b505af115801561069b573d6000803e3d6000fd5b505050506040513d601f19601f820116820180604052508101906106bf91906113f9565b6004549091506106e59073ffffffffffffffffffffffffffffffffffffffff1634610f91565b600160038681548110610721577f4e487b7100000000000000000000000000000000000000000000000000000000600052603260045260246000fd5b906000526020600020906004020160030160008282546107419190611498565b909155505060408051338152602081018390527face1f55dace1a694aa6bc3f8f97761e0cc819141bb7c8a72f54dbac6264ce178910160405180910390a15050505050565b6003818154811061079657600080fd5b600091825260209091206004909102016001810154600282015460039092015490925083565b60005473ffffffffffffffffffffffffffffffffffffffff16331461083d576040517f08c379a000000000000000000000000000000000000000000000000000000000815260206004820181905260248201527f4f776e61626c653a2063616c6c6572206973206e6f7420746865206f776e6572604482015260640161012e565b73ffffffffffffffffffffffffffffffffffffffff81166108ba576040517f08c379a000000000000000000000000000000000000000000000000000000000815260206004820152601c60248201527f4c6f6f74426f78466163746f72793a207a65726f206164647265737300000000604482015260640161012e565b600480547fffffffffffffffffffffffff00000000000000000000000000000000000000001673ffffffffffffffffffffffffffffffffffffffff83169081179091556040519081527f258a7a0df6106f41c2e99c09f1b64931f5f284242bbc50272d5a752ac2f30dde9060200160405180910390a150565b60005473ffffffffffffffffffffffffffffffffffffffff1633146109b4576040517f08c379a000000000000000000000000000000000000000000000000000000000815260206004820181905260248201527f4f776e61626c653a2063616c6c6572206973206e6f7420746865206f776e6572604482015260640161012e565b6109be60006110f0565b565b60005473ffffffffffffffffffffffffffffffffffffffff163314610a41576040517f08c379a000000000000000000000000000000000000000000000000000000000815260206004820181905260248201527f4f776e61626c653a2063616c6c6572206973206e6f7420746865206f776e6572604482015260640161012e565b6004546109be9073ffffffffffffffffffffffffffffffffffffffff1647610f91565b60005473ffffffffffffffffffffffffffffffffffffffff163314610ae5576040517f08c379a000000000000000000000000000000000000000000000000000000000815260206004820181905260248201527f4f776e61626c653a2063616c6c6572206973206e6f7420746865206f776e6572604482015260640161012e565b600084118015610af55750600083115b8015610b015750600082115b8015610b0d5750600081115b610b73576040517f08c379a000000000000000000000000000000000000000000000000000000000815260206004820152601f60248201527f4c6f6f74426f78466163746f72793a20696e636f727265637420707269636500604482015260640161012e565b836003600081548110610baf577f4e487b7100000000000000000000000000000000000000000000000000000000600052603260045260246000fd5b906000526020600020906004020160010181905550826003600181548110610c00577f4e487b7100000000000000000000000000000000000000000000000000000000600052603260045260246000fd5b906000526020600020906004020160010181905550816003600281548110610c51577f4e487b7100000000000000000000000000000000000000000000000000000000600052603260045260246000fd5b9060005260206000209060040201600101819055508060038081548110610ca1577f4e487b7100000000000000000000000000000000000000000000000000000000600052603260045260246000fd5b90600052602060002090600402016001018190555050505050565b610cc4611354565b60038281548110610cfe577f4e487b7100000000000000000000000000000000000000000000000000000000600052603260045260246000fd5b60009182526020909120604080516101408101909152916004020181608081018260068282826020028201916000905b82829054906101000a900461ffff1661ffff1681526020019060020190602082600101049283019260010382029150808411610d2e57505050928452505050600182015460208201526002820154604082015260039091015460609091015292915050565b60005473ffffffffffffffffffffffffffffffffffffffff163314610e14576040517f08c379a000000000000000000000000000000000000000000000000000000000815260206004820181905260248201527f4f776e61626c653a2063616c6c6572206973206e6f7420746865206f776e6572604482015260640161012e565b73ffffffffffffffffffffffffffffffffffffffff8116610eb7576040517f08c379a000000000000000000000000000000000000000000000000000000000815260206004820152602660248201527f4f776e61626c653a206e6577206f776e657220697320746865207a65726f206160448201527f6464726573730000000000000000000000000000000000000000000000000000606482015260840161012e565b610ec0816110f0565b50565b600080600080610f7160038681548110610f06577f4e487b7100000000000000000000000000000000000000000000000000000000600052603260045260246000fd5b600091825260209091206040805160c08101909152916004020160068282826020028201916000905b82829054906101000a900461ffff1661ffff1681526020019060020190602082600101049283019260010382029150808411610f2f5790505050505050611165565b8051602082015190955092509050610f87611271565b9250509193909250565b80471015610ffb576040517f08c379a000000000000000000000000000000000000000000000000000000000815260206004820152601d60248201527f416464726573733a20696e73756666696369656e742062616c616e6365000000604482015260640161012e565b60008273ffffffffffffffffffffffffffffffffffffffff168260405160006040518083038185875af1925050503d8060008114611055576040519150601f19603f3d011682016040523d82523d6000602084013e61105a565b606091505b50509050806110eb576040517f08c379a000000000000000000000000000000000000000000000000000000000815260206004820152603a60248201527f416464726573733a20756e61626c6520746f2073656e642076616c75652c207260448201527f6563697069656e74206d61792068617665207265766572746564000000000000606482015260840161012e565b505050565b6000805473ffffffffffffffffffffffffffffffffffffffff8381167fffffffffffffffffffffffff0000000000000000000000000000000000000000831681178455604051919092169283917f8be0079c531659141344cd1fd0a4f28419497f9722a3daafe3b4186f6b6457e09190a35050565b61116d611382565b611175611382565b60006111826103e86112ce565b845190915061ffff1681116111a857604080518082019091526000808252602082015291505b602084015161ffff1681116111cf5760408051808201909152600081526001602082015291505b604084015161ffff1681116111f65760408051808201909152600081526002602082015291505b606084015161ffff16811161121d5760408051808201909152600181526000602082015291505b608084015161ffff16811161124357604080518082019091526001808252602082015291505b60a084015161ffff16811161126a5760408051808201909152600181526002602082015291505b5092915050565b60008060006112816103e86112ce565b90506103e8811161129157600091505b610320811161129f57600191505b61025881116112ad57600291505b61019081116112bb57600391505b60c881116112c857600491505b50919050565b60018054600091826112df836114b0565b9091555050600154604080514260208201527fffffffffffffffffffffffffffffffffffffffff0000000000000000000000003360601b1691810191909152605481019190915282906074016040516020818303038152906040528051906020012060001c61134e91906114e9565b92915050565b60405180608001604052806113676113a0565b81526020016000815260200160008152602001600081525090565b60405180604001604052806002906020820280368337509192915050565b6040518060c001604052806006906020820280368337509192915050565b6000602082840312156113cf578081fd5b81356113da81611551565b9392505050565b6000602082840312156113f2578081fd5b5035919050565b60006020828403121561140a578081fd5b5051919050565b60008060008060808587031215611426578283fd5b5050823594602084013594506040840135936060013592509050565b81516101208201908260005b600681101561147157825161ffff1682526020928301929091019060010161144e565b505050602083015160c0830152604083015160e08301526060909201516101009091015290565b600082198211156114ab576114ab611522565b500190565b60007fffffffffffffffffffffffffffffffffffffffffffffffffffffffffffffffff8214156114e2576114e2611522565b5060010190565b60008261151d577f4e487b710000000000000000000000000000000000000000000000000000000081526012600452602481fd5b500690565b7f4e487b7100000000000000000000000000000000000000000000000000000000600052601160045260246000fd5b73ffffffffffffffffffffffffffffffffffffffff81168114610ec057600080fdfea2646970667358221220b31512a25896de4f26d7cb6e99933c09d830b73f15983b7f99428205ed28e4f764736f6c63430008040033",
  "linkReferences": {},
  "deployedLinkReferences": {}
}