{
  "_format": "hh-sol-artifact-1",
  "contractName": "Merger",
  "sourceName": "contracts/Merger.sol",
  "abi": [
    {
      "inputs": [
        {
          "internalType": "address",
          "name": "_nft",
          "type": "address"
        }
      ],
      "stateMutability": "nonpayable",
      "type": "constructor"
    },
    {
      "anonymous": false,
      "inputs": [
        {
          "indexed": true,
          "internalType": "address",
          "name": "previousOwner",
          "type": "address"
        },
        {
          "indexed": true,
          "internalType": "address",
          "name": "newOwner",
          "type": "address"
        }
      ],
      "name": "OwnershipTransferred",
      "type": "event"
    },
    {
      "anonymous": false,
      "inputs": [
        {
          "indexed": false,
          "internalType": "address",
          "name": "recipient",
          "type": "address"
        },
        {
          "indexed": false,
          "internalType": "uint256",
          "name": "id",
          "type": "uint256"
        }
      ],
      "name": "SplitCompleted",
      "type": "event"
    },
    {
      "inputs": [
        {
          "internalType": "uint256[3]",
          "name": "_donors",
          "type": "uint256[3]"
        }
      ],
      "name": "merge",
      "outputs": [],
      "stateMutability": "nonpayable",
      "type": "function"
    },
    {
      "inputs": [],
      "name": "nft",
      "outputs": [
        {
          "internalType": "contract ICyberWayNFT",
          "name": "",
          "type": "address"
        }
      ],
      "stateMutability": "view",
      "type": "function"
    },
    {
      "inputs": [],
      "name": "owner",
      "outputs": [
        {
          "internalType": "address",
          "name": "",
          "type": "address"
        }
      ],
      "stateMutability": "view",
      "type": "function"
    },
    {
      "inputs": [],
      "name": "renounceOwnership",
      "outputs": [],
      "stateMutability": "nonpayable",
      "type": "function"
    },
    {
      "inputs": [
        {
          "internalType": "address",
          "name": "newOwner",
          "type": "address"
        }
      ],
      "name": "transferOwnership",
      "outputs": [],
      "stateMutability": "nonpayable",
      "type": "function"
    }
  ],
  "bytecode": "0x608060405234801561001057600080fd5b5060405161149d38038061149d83398101604081905261002f916100ad565b6100383361005d565b600180546001600160a01b0319166001600160a01b03929092169190911790556100db565b600080546001600160a01b038381166001600160a01b0319831681178455604051919092169283917f8be0079c531659141344cd1fd0a4f28419497f9722a3daafe3b4186f6b6457e09190a35050565b6000602082840312156100be578081fd5b81516001600160a01b03811681146100d4578182fd5b9392505050565b6113b3806100ea6000396000f3fe608060405234801561001057600080fd5b50600436106100675760003560e01c80638da5cb5b116100505780638da5cb5b146100bf578063bfecefc6146100dd578063f2fde38b146100f057600080fd5b806347ccca021461006c578063715018a6146100b5575b600080fd5b60015461008c9073ffffffffffffffffffffffffffffffffffffffff1681565b60405173ffffffffffffffffffffffffffffffffffffffff909116815260200160405180910390f35b6100bd610103565b005b60005473ffffffffffffffffffffffffffffffffffffffff1661008c565b6100bd6100eb366004611206565b610195565b6100bd6100fe3660046111cb565b611026565b60005473ffffffffffffffffffffffffffffffffffffffff163314610189576040517f08c379a000000000000000000000000000000000000000000000000000000000815260206004820181905260248201527f4f776e61626c653a2063616c6c6572206973206e6f7420746865206f776e657260448201526064015b60405180910390fd5b6101936000611156565b565b60015460208201516040517fcd4191b1000000000000000000000000000000000000000000000000000000008152600481019190915273ffffffffffffffffffffffffffffffffffffffff9091169063cd4191b19060240160206040518083038186803b15801561020557600080fd5b505afa158015610219573d6000803e3d6000fd5b505050506040513d601f19601f8201168201806040525081019061023d91906112a0565b60015482516040517fcd4191b1000000000000000000000000000000000000000000000000000000008152600481019190915260ff929092169173ffffffffffffffffffffffffffffffffffffffff9091169063cd4191b19060240160206040518083038186803b1580156102b157600080fd5b505afa1580156102c5573d6000803e3d6000fd5b505050506040513d601f19601f820116820180604052508101906102e991906112a0565b60ff16148015610439575060015481516040517fcd4191b1000000000000000000000000000000000000000000000000000000008152600481019190915273ffffffffffffffffffffffffffffffffffffffff9091169063cd4191b19060240160206040518083038186803b15801561036157600080fd5b505afa158015610375573d6000803e3d6000fd5b505050506040513d601f19601f8201168201806040525081019061039991906112a0565b60015460ff919091169073ffffffffffffffffffffffffffffffffffffffff1663cd4191b183600260200201516040518263ffffffff1660e01b81526004016103e491815260200190565b60206040518083038186803b1580156103fc57600080fd5b505afa158015610410573d6000803e3d6000fd5b505050506040513d601f19601f8201168201806040525081019061043491906112a0565b60ff16145b80156104eb575060015481516040517fcd4191b1000000000000000000000000000000000000000000000000000000008152600481810192909252909173ffffffffffffffffffffffffffffffffffffffff169063cd4191b19060240160206040518083038186803b1580156104ae57600080fd5b505afa1580156104c2573d6000803e3d6000fd5b505050506040513d601f19601f820116820180604052508101906104e691906112a0565b60ff16105b610551576040517f08c379a000000000000000000000000000000000000000000000000000000000815260206004820152601d60248201527f4d65726765723a2072616e64206e6f7420657175616c206f72206d61780000006044820152606401610180565b60015460208201516040517f0facebea000000000000000000000000000000000000000000000000000000008152600481019190915273ffffffffffffffffffffffffffffffffffffffff90911690630facebea9060240160206040518083038186803b1580156105c157600080fd5b505afa1580156105d5573d6000803e3d6000fd5b505050506040513d601f19601f820116820180604052508101906105f991906112a0565b60015482516040517f0facebea000000000000000000000000000000000000000000000000000000008152600481019190915260ff929092169173ffffffffffffffffffffffffffffffffffffffff90911690630facebea9060240160206040518083038186803b15801561066d57600080fd5b505afa158015610681573d6000803e3d6000fd5b505050506040513d601f19601f820116820180604052508101906106a591906112a0565b60ff161480156107f5575060015481516040517f0facebea000000000000000000000000000000000000000000000000000000008152600481019190915273ffffffffffffffffffffffffffffffffffffffff90911690630facebea9060240160206040518083038186803b15801561071d57600080fd5b505afa158015610731573d6000803e3d6000fd5b505050506040513d601f19601f8201168201806040525081019061075591906112a0565b60015460ff919091169073ffffffffffffffffffffffffffffffffffffffff16630facebea83600260200201516040518263ffffffff1660e01b81526004016107a091815260200190565b60206040518083038186803b1580156107b857600080fd5b505afa1580156107cc573d6000803e3d6000fd5b505050506040513d601f19601f820116820180604052508101906107f091906112a0565b60ff16145b61085b576040517f08c379a000000000000000000000000000000000000000000000000000000000815260206004820152601460248201527f4d65726765723a6b696e64206e6f74457175616c0000000000000000000000006044820152606401610180565b60015460208201516040517f8cfe9665000000000000000000000000000000000000000000000000000000008152600481019190915273ffffffffffffffffffffffffffffffffffffffff90911690638cfe96659060240160206040518083038186803b1580156108cb57600080fd5b505afa1580156108df573d6000803e3d6000fd5b505050506040513d601f19601f8201168201806040525081019061090391906112a0565b60015482516040517f8cfe9665000000000000000000000000000000000000000000000000000000008152600481019190915260ff929092169173ffffffffffffffffffffffffffffffffffffffff90911690638cfe96659060240160206040518083038186803b15801561097757600080fd5b505afa15801561098b573d6000803e3d6000fd5b505050506040513d601f19601f820116820180604052508101906109af91906112a0565b60ff16148015610aff575060015481516040517f8cfe9665000000000000000000000000000000000000000000000000000000008152600481019190915273ffffffffffffffffffffffffffffffffffffffff90911690638cfe96659060240160206040518083038186803b158015610a2757600080fd5b505afa158015610a3b573d6000803e3d6000fd5b505050506040513d601f19601f82011682018060405250810190610a5f91906112a0565b60015460ff919091169073ffffffffffffffffffffffffffffffffffffffff16638cfe966583600260200201516040518263ffffffff1660e01b8152600401610aaa91815260200190565b60206040518083038186803b158015610ac257600080fd5b505afa158015610ad6573d6000803e3d6000fd5b505050506040513d601f19601f82011682018060405250810190610afa91906112a0565b60ff16145b610b65576040517f08c379a000000000000000000000000000000000000000000000000000000000815260206004820152601560248201527f4d65726765723a636f6c6f72206e6f74457175616c00000000000000000000006044820152606401610180565b60015481516040517f0facebea000000000000000000000000000000000000000000000000000000008152600481019190915260009173ffffffffffffffffffffffffffffffffffffffff1690630facebea9060240160206040518083038186803b158015610bd357600080fd5b505afa158015610be7573d6000803e3d6000fd5b505050506040513d601f19601f82011682018060405250810190610c0b91906112a0565b60015483516040517f8cfe9665000000000000000000000000000000000000000000000000000000008152600481019190915291925060009173ffffffffffffffffffffffffffffffffffffffff90911690638cfe96659060240160206040518083038186803b158015610c7e57600080fd5b505afa158015610c92573d6000803e3d6000fd5b505050506040513d601f19601f82011682018060405250810190610cb691906112a0565b60015484516040517fcd4191b1000000000000000000000000000000000000000000000000000000008152600481019190915291925060009173ffffffffffffffffffffffffffffffffffffffff9091169063cd4191b19060240160206040518083038186803b158015610d2957600080fd5b505afa158015610d3d573d6000803e3d6000fd5b505050506040513d601f19601f82011682018060405250810190610d6191906112a0565b610d6c9060016112c1565b905060005b6003811015610f255760015473ffffffffffffffffffffffffffffffffffffffff166323b872dd3330888560038110610dd3577f4e487b7100000000000000000000000000000000000000000000000000000000600052603260045260246000fd5b60200201516040517fffffffff0000000000000000000000000000000000000000000000000000000060e086901b16815273ffffffffffffffffffffffffffffffffffffffff93841660048201529290911660248301526044820152606401600060405180830381600087803b158015610e4c57600080fd5b505af1158015610e60573d6000803e3d6000fd5b505060015473ffffffffffffffffffffffffffffffffffffffff1691506342966c689050868360038110610ebd577f4e487b7100000000000000000000000000000000000000000000000000000000600052603260045260246000fd5b60200201516040518263ffffffff1660e01b8152600401610ee091815260200190565b600060405180830381600087803b158015610efa57600080fd5b505af1158015610f0e573d6000803e3d6000fd5b505050508080610f1d906112e6565b915050610d71565b506001546040517fc75986ee00000000000000000000000000000000000000000000000000000000815233600482015260ff808616602483015280851660448301528316606482015260009173ffffffffffffffffffffffffffffffffffffffff169063c75986ee90608401602060405180830381600087803b158015610fab57600080fd5b505af1158015610fbf573d6000803e3d6000fd5b505050506040513d601f19601f82011682018060405250810190610fe39190611288565b60408051338152602081018390529192507f8631fa81f03d719a138fc5f15fc944030b2da7ce394bd56816f47950c347aa71910160405180910390a15050505050565b60005473ffffffffffffffffffffffffffffffffffffffff1633146110a7576040517f08c379a000000000000000000000000000000000000000000000000000000000815260206004820181905260248201527f4f776e61626c653a2063616c6c6572206973206e6f7420746865206f776e65726044820152606401610180565b73ffffffffffffffffffffffffffffffffffffffff811661114a576040517f08c379a000000000000000000000000000000000000000000000000000000000815260206004820152602660248201527f4f776e61626c653a206e6577206f776e657220697320746865207a65726f206160448201527f64647265737300000000000000000000000000000000000000000000000000006064820152608401610180565b61115381611156565b50565b6000805473ffffffffffffffffffffffffffffffffffffffff8381167fffffffffffffffffffffffff0000000000000000000000000000000000000000831681178455604051919092169283917f8be0079c531659141344cd1fd0a4f28419497f9722a3daafe3b4186f6b6457e09190a35050565b6000602082840312156111dc578081fd5b813573ffffffffffffffffffffffffffffffffffffffff811681146111ff578182fd5b9392505050565b600060608284031215611217578081fd5b82601f830112611225578081fd5b6040516060810181811067ffffffffffffffff821117156112485761124861134e565b60405280836060810186101561125c578384fd5b835b600381101561127d57813583526020928301929091019060010161125e565b509195945050505050565b600060208284031215611299578081fd5b5051919050565b6000602082840312156112b1578081fd5b815160ff811681146111ff578182fd5b600060ff821660ff84168060ff038211156112de576112de61131f565b019392505050565b60007fffffffffffffffffffffffffffffffffffffffffffffffffffffffffffffffff8214156113185761131861131f565b5060010190565b7f4e487b7100000000000000000000000000000000000000000000000000000000600052601160045260246000fd5b7f4e487b7100000000000000000000000000000000000000000000000000000000600052604160045260246000fdfea2646970667358221220e80e5b958c37a736f10e2b9e2ececa46f3c67aac9d72be1db4e34ee21a4870bd64736f6c63430008040033",
  "linkReferences": {},
  "deployedLinkReferences": {}
}