{
  "_format": "hh-sol-artifact-1",
  "contractName": "Merger",
  "sourceName": "contracts/Merger.sol",
  "abi": [
    {
      "inputs": [
        {
          "internalType": "address",
          "name": "_nft",
          "type": "address"
        }
      ],
      "stateMutability": "nonpayable",
      "type": "constructor"
    },
    {
      "anonymous": false,
      "inputs": [
        {
          "indexed": true,
          "internalType": "address",
          "name": "previousOwner",
          "type": "address"
        },
        {
          "indexed": true,
          "internalType": "address",
          "name": "newOwner",
          "type": "address"
        }
      ],
      "name": "OwnershipTransferred",
      "type": "event"
    },
    {
      "anonymous": false,
      "inputs": [
        {
          "indexed": false,
          "internalType": "address",
          "name": "recipient",
          "type": "address"
        },
        {
          "indexed": false,
          "internalType": "uint256",
          "name": "id",
          "type": "uint256"
        }
      ],
      "name": "SplitCompleted",
      "type": "event"
    },
    {
      "inputs": [
        {
          "internalType": "bytes32",
          "name": "c__0x3a2db325",
          "type": "bytes32"
        }
      ],
      "name": "c_0x3a2db325",
      "outputs": [],
      "stateMutability": "pure",
      "type": "function"
    },
    {
      "inputs": [
        {
          "internalType": "uint256[3]",
          "name": "_donors",
          "type": "uint256[3]"
        }
      ],
      "name": "merge",
      "outputs": [],
      "stateMutability": "nonpayable",
      "type": "function"
    },
    {
      "inputs": [],
      "name": "nft",
      "outputs": [
        {
          "internalType": "contract ICyberWayNFT",
          "name": "",
          "type": "address"
        }
      ],
      "stateMutability": "view",
      "type": "function"
    },
    {
      "inputs": [],
      "name": "owner",
      "outputs": [
        {
          "internalType": "address",
          "name": "",
          "type": "address"
        }
      ],
      "stateMutability": "view",
      "type": "function"
    },
    {
      "inputs": [],
      "name": "renounceOwnership",
      "outputs": [],
      "stateMutability": "nonpayable",
      "type": "function"
    },
    {
      "inputs": [
        {
          "internalType": "address",
          "name": "newOwner",
          "type": "address"
        }
      ],
      "name": "transferOwnership",
      "outputs": [],
      "stateMutability": "nonpayable",
      "type": "function"
    }
  ],
  "bytecode": "0x60806040523480156200001157600080fd5b506040516200257238038062002572833981810160405281019062000037919062000221565b620000576200004b6200013b60201b60201c565b6200014360201b60201c565b6200008b7f62e19044c972aa9acbcca1b64cfb58ebdb34f6869998651bf59ef58af0c0883460001b6200020760201b60201c565b620000bf7fe55e458fb670b69ddd4be754651f8a3a935fbeccbbf0808f72f13700b9f33de860001b6200020760201b60201c565b620000f37f768b0f4a94323449f28006ee91982639d385dd4ae99e47a0aa59bb973be7450860001b6200020760201b60201c565b80600160006101000a81548173ffffffffffffffffffffffffffffffffffffffff021916908373ffffffffffffffffffffffffffffffffffffffff160217905550506200029b565b600033905090565b60008060009054906101000a900473ffffffffffffffffffffffffffffffffffffffff169050816000806101000a81548173ffffffffffffffffffffffffffffffffffffffff021916908373ffffffffffffffffffffffffffffffffffffffff1602179055508173ffffffffffffffffffffffffffffffffffffffff168173ffffffffffffffffffffffffffffffffffffffff167f8be0079c531659141344cd1fd0a4f28419497f9722a3daafe3b4186f6b6457e060405160405180910390a35050565b50565b6000815190506200021b8162000281565b92915050565b6000602082840312156200023457600080fd5b600062000244848285016200020a565b91505092915050565b60006200025a8262000261565b9050919050565b600073ffffffffffffffffffffffffffffffffffffffff82169050919050565b6200028c816200024d565b81146200029857600080fd5b50565b6122c780620002ab6000396000f3fe608060405234801561001057600080fd5b50600436106100725760003560e01c80638da5cb5b116100505780638da5cb5b146100bb578063bfecefc6146100d9578063f2fde38b146100f557610072565b806347ccca021461007757806361a3455e14610095578063715018a6146100b1575b600080fd5b61007f610111565b60405161008c9190611e79565b60405180910390f35b6100af60048036038101906100aa9190611c53565b610137565b005b6100b961013a565b005b6100c36101c2565b6040516100d09190611db9565b60405180910390f35b6100f360048036038101906100ee9190611c2a565b6101eb565b005b61010f600480360381019061010a9190611c01565b61194a565b005b600160009054906101000a900473ffffffffffffffffffffffffffffffffffffffff1681565b50565b610142611a42565b73ffffffffffffffffffffffffffffffffffffffff166101606101c2565b73ffffffffffffffffffffffffffffffffffffffff16146101b6576040517f08c379a00000000000000000000000000000000000000000000000000000000081526004016101ad90611eb4565b60405180910390fd5b6101c06000611a4a565b565b60008060009054906101000a900473ffffffffffffffffffffffffffffffffffffffff16905090565b6102177f3e629f8ab2e48e8cb639afc7cbc3b11a7e6bb696042be433a5f2623a6928c72260001b610137565b6102437fa2eedb62fb5268ce73576177d9984a2d7a8768a9da0584c961dc5f8a48f1f1f760001b610137565b61026f7f3758b7a344e0a70dfe40aa13b9c0657ea7c390d7570fd6271a7c0c03f79a7a2c60001b610137565b61029b7f9ec6997eafeb2b05b543a12ec7b3919452dc673a918a23c45d3b80c39680a5f760001b610137565b600160009054906101000a900473ffffffffffffffffffffffffffffffffffffffff1673ffffffffffffffffffffffffffffffffffffffff1663cd4191b182600160038110610313577f4e487b7100000000000000000000000000000000000000000000000000000000600052603260045260246000fd5b60200201516040518263ffffffff1660e01b81526004016103349190611f34565b60206040518083038186803b15801561034c57600080fd5b505afa158015610360573d6000803e3d6000fd5b505050506040513d601f19601f820116820180604052508101906103849190611ca5565b60ff16600160009054906101000a900473ffffffffffffffffffffffffffffffffffffffff1673ffffffffffffffffffffffffffffffffffffffff1663cd4191b1836000600381106103ff577f4e487b7100000000000000000000000000000000000000000000000000000000600052603260045260246000fd5b60200201516040518263ffffffff1660e01b81526004016104209190611f34565b60206040518083038186803b15801561043857600080fd5b505afa15801561044c573d6000803e3d6000fd5b505050506040513d601f19601f820116820180604052508101906104709190611ca5565b60ff161480156106555750600160009054906101000a900473ffffffffffffffffffffffffffffffffffffffff1673ffffffffffffffffffffffffffffffffffffffff1663cd4191b1826000600381106104f3577f4e487b7100000000000000000000000000000000000000000000000000000000600052603260045260246000fd5b60200201516040518263ffffffff1660e01b81526004016105149190611f34565b60206040518083038186803b15801561052c57600080fd5b505afa158015610540573d6000803e3d6000fd5b505050506040513d601f19601f820116820180604052508101906105649190611ca5565b60ff16600160009054906101000a900473ffffffffffffffffffffffffffffffffffffffff1673ffffffffffffffffffffffffffffffffffffffff1663cd4191b1836002600381106105df577f4e487b7100000000000000000000000000000000000000000000000000000000600052603260045260246000fd5b60200201516040518263ffffffff1660e01b81526004016106009190611f34565b60206040518083038186803b15801561061857600080fd5b505afa15801561062c573d6000803e3d6000fd5b505050506040513d601f19601f820116820180604052508101906106509190611ca5565b60ff16145b801561074c57506004600160009054906101000a900473ffffffffffffffffffffffffffffffffffffffff1673ffffffffffffffffffffffffffffffffffffffff1663cd4191b1836000600381106106d6577f4e487b7100000000000000000000000000000000000000000000000000000000600052603260045260246000fd5b60200201516040518263ffffffff1660e01b81526004016106f79190611f34565b60206040518083038186803b15801561070f57600080fd5b505afa158015610723573d6000803e3d6000fd5b505050506040513d601f19601f820116820180604052508101906107479190611ca5565b60ff16105b61078b576040517f08c379a000000000000000000000000000000000000000000000000000000000815260040161078290611f14565b60405180910390fd5b6107b77f174e5380d6aff8394333a76773bbfe8ff7276264bd2e62c1c60553a2bcc2041a60001b610137565b6107e37ff9d3b09f87653ba0d7fd8a726bf66f39d91f38b5914d3025b83f6fe5c92a0da960001b610137565b61080f7f85a03c4a559d0e6e344eb8bbb4def444e09d6280b570e86284ccaa8b2f33379360001b610137565b61083b7f5688ed310552938a739cfe5e9f04bf07c8eb09a7767bd16acc25830dab6e5a1560001b610137565b600160009054906101000a900473ffffffffffffffffffffffffffffffffffffffff1673ffffffffffffffffffffffffffffffffffffffff16630facebea826001600381106108b3577f4e487b7100000000000000000000000000000000000000000000000000000000600052603260045260246000fd5b60200201516040518263ffffffff1660e01b81526004016108d49190611f34565b60206040518083038186803b1580156108ec57600080fd5b505afa158015610900573d6000803e3d6000fd5b505050506040513d601f19601f820116820180604052508101906109249190611ca5565b60ff16600160009054906101000a900473ffffffffffffffffffffffffffffffffffffffff1673ffffffffffffffffffffffffffffffffffffffff16630facebea8360006003811061099f577f4e487b7100000000000000000000000000000000000000000000000000000000600052603260045260246000fd5b60200201516040518263ffffffff1660e01b81526004016109c09190611f34565b60206040518083038186803b1580156109d857600080fd5b505afa1580156109ec573d6000803e3d6000fd5b505050506040513d601f19601f82011682018060405250810190610a109190611ca5565b60ff16148015610bf55750600160009054906101000a900473ffffffffffffffffffffffffffffffffffffffff1673ffffffffffffffffffffffffffffffffffffffff16630facebea82600060038110610a93577f4e487b7100000000000000000000000000000000000000000000000000000000600052603260045260246000fd5b60200201516040518263ffffffff1660e01b8152600401610ab49190611f34565b60206040518083038186803b158015610acc57600080fd5b505afa158015610ae0573d6000803e3d6000fd5b505050506040513d601f19601f82011682018060405250810190610b049190611ca5565b60ff16600160009054906101000a900473ffffffffffffffffffffffffffffffffffffffff1673ffffffffffffffffffffffffffffffffffffffff16630facebea83600260038110610b7f577f4e487b7100000000000000000000000000000000000000000000000000000000600052603260045260246000fd5b60200201516040518263ffffffff1660e01b8152600401610ba09190611f34565b60206040518083038186803b158015610bb857600080fd5b505afa158015610bcc573d6000803e3d6000fd5b505050506040513d601f19601f82011682018060405250810190610bf09190611ca5565b60ff16145b610c34576040517f08c379a0000000000000000000000000000000000000000000000000000000008152600401610c2b90611ed4565b60405180910390fd5b610c607fbee5c54ee0dfee047e382d3bc69dab03417ed5cd152b1908b8fca083f331e55b60001b610137565b610c8c7f29e64534b20bd897b4affc8c947197de0a0e74eee2759b0e6878def653aa9ef060001b610137565b610cb87ff8ef5978fef121827696e4e8057f1f2cea358d7facb4168dd6935fe41b59468e60001b610137565b610ce47f5a275bf59c0e068200af302b829026d1255295a4258830bf35f413980da5c93960001b610137565b600160009054906101000a900473ffffffffffffffffffffffffffffffffffffffff1673ffffffffffffffffffffffffffffffffffffffff16638cfe966582600160038110610d5c577f4e487b7100000000000000000000000000000000000000000000000000000000600052603260045260246000fd5b60200201516040518263ffffffff1660e01b8152600401610d7d9190611f34565b60206040518083038186803b158015610d9557600080fd5b505afa158015610da9573d6000803e3d6000fd5b505050506040513d601f19601f82011682018060405250810190610dcd9190611ca5565b60ff16600160009054906101000a900473ffffffffffffffffffffffffffffffffffffffff1673ffffffffffffffffffffffffffffffffffffffff16638cfe966583600060038110610e48577f4e487b7100000000000000000000000000000000000000000000000000000000600052603260045260246000fd5b60200201516040518263ffffffff1660e01b8152600401610e699190611f34565b60206040518083038186803b158015610e8157600080fd5b505afa158015610e95573d6000803e3d6000fd5b505050506040513d601f19601f82011682018060405250810190610eb99190611ca5565b60ff1614801561109e5750600160009054906101000a900473ffffffffffffffffffffffffffffffffffffffff1673ffffffffffffffffffffffffffffffffffffffff16638cfe966582600060038110610f3c577f4e487b7100000000000000000000000000000000000000000000000000000000600052603260045260246000fd5b60200201516040518263ffffffff1660e01b8152600401610f5d9190611f34565b60206040518083038186803b158015610f7557600080fd5b505afa158015610f89573d6000803e3d6000fd5b505050506040513d601f19601f82011682018060405250810190610fad9190611ca5565b60ff16600160009054906101000a900473ffffffffffffffffffffffffffffffffffffffff1673ffffffffffffffffffffffffffffffffffffffff16638cfe966583600260038110611028577f4e487b7100000000000000000000000000000000000000000000000000000000600052603260045260246000fd5b60200201516040518263ffffffff1660e01b81526004016110499190611f34565b60206040518083038186803b15801561106157600080fd5b505afa158015611075573d6000803e3d6000fd5b505050506040513d601f19601f820116820180604052508101906110999190611ca5565b60ff16145b6110dd576040517f08c379a00000000000000000000000000000000000000000000000000000000081526004016110d490611ef4565b60405180910390fd5b6111097f249671c024b81af90b824ae909135a8332799d33cd73138a0f5e995711dfca6560001b610137565b6111357f7ee2ff6067d34eab2b12860316d8dd856ce71d22e14d05f3f2ece3924fb3f19860001b610137565b6111617f886f62e9a516db6fc364e4fbf2b3a5f850f93e60b0236fedf45fec170f38b7e860001b610137565b6000600160009054906101000a900473ffffffffffffffffffffffffffffffffffffffff1673ffffffffffffffffffffffffffffffffffffffff16630facebea836000600381106111db577f4e487b7100000000000000000000000000000000000000000000000000000000600052603260045260246000fd5b60200201516040518263ffffffff1660e01b81526004016111fc9190611f34565b60206040518083038186803b15801561121457600080fd5b505afa158015611228573d6000803e3d6000fd5b505050506040513d601f19601f8201168201806040525081019061124c9190611ca5565b905061127a7f49f2767c368c79439af5dc04b169c5dc5980e8b0eecf2f149aacda423023101860001b610137565b6112a67f1dead938e2b0ad805550b87bf31e4fd59a9aa07a6ff98e5337e77777fe1e3f1660001b610137565b6000600160009054906101000a900473ffffffffffffffffffffffffffffffffffffffff1673ffffffffffffffffffffffffffffffffffffffff16638cfe966584600060038110611320577f4e487b7100000000000000000000000000000000000000000000000000000000600052603260045260246000fd5b60200201516040518263ffffffff1660e01b81526004016113419190611f34565b60206040518083038186803b15801561135957600080fd5b505afa15801561136d573d6000803e3d6000fd5b505050506040513d601f19601f820116820180604052508101906113919190611ca5565b90506113bf7ff0f65261466ff4219228b0c383c9a258e25771eae36c790330e07164957cd36a60001b610137565b6113eb7fa2d769f05c77d764f85798ade04a128653b510b24eaabe3265856d6747e6167360001b610137565b600060018060009054906101000a900473ffffffffffffffffffffffffffffffffffffffff1673ffffffffffffffffffffffffffffffffffffffff1663cd4191b186600060038110611466577f4e487b7100000000000000000000000000000000000000000000000000000000600052603260045260246000fd5b60200201516040518263ffffffff1660e01b81526004016114879190611f34565b60206040518083038186803b15801561149f57600080fd5b505afa1580156114b3573d6000803e3d6000fd5b505050506040513d601f19601f820116820180604052508101906114d79190611ca5565b6114e19190611fab565b905061150f7f9d4e57978a6102e8041bdf192b26f0180ad65f4007fd94b3e558045507ff120a60001b610137565b61153b7fc43821029d9aed3e5703953194fa4c0fb15fab814a80d22d61982726a4430eee60001b610137565b60005b60038110156117a2576115737f71cf593fb42f035b4567c64016a05f179c261a6de225b4edef835256fcce638360001b610137565b61159f7ffe0badb089baf7a1023916cb92b1b799f80d1bf8ab4e24ede606ab0e9e385b2460001b610137565b600160009054906101000a900473ffffffffffffffffffffffffffffffffffffffff1673ffffffffffffffffffffffffffffffffffffffff166323b872dd3330888560038110611618577f4e487b7100000000000000000000000000000000000000000000000000000000600052603260045260246000fd5b60200201516040518463ffffffff1660e01b815260040161163b93929190611dd4565b600060405180830381600087803b15801561165557600080fd5b505af1158015611669573d6000803e3d6000fd5b505050506116997f0c31e738c33281821c27c641d6732ce1571768b42c58383449255de70c60391c60001b610137565b6116c57f8c8959dd671f83e8d6916a9e996ddc4279c4011bce3c58a4d3cd58e0ffb9825360001b610137565b600160009054906101000a900473ffffffffffffffffffffffffffffffffffffffff1673ffffffffffffffffffffffffffffffffffffffff166342966c6886836003811061173c577f4e487b7100000000000000000000000000000000000000000000000000000000600052603260045260246000fd5b60200201516040518263ffffffff1660e01b815260040161175d9190611f34565b600060405180830381600087803b15801561177757600080fd5b505af115801561178b573d6000803e3d6000fd5b50505050808061179a9061208a565b91505061153e565b506117cf7fb0baf872db906a64838a1bf117a077df6443df43bdfc45f37b91674308ca835d60001b610137565b6117fb7f2598084d59f479d5420e4837750d2e0b9e850909b2a816253f020c2c908f512660001b610137565b6000600160009054906101000a900473ffffffffffffffffffffffffffffffffffffffff1673ffffffffffffffffffffffffffffffffffffffff1663c75986ee338686866040518563ffffffff1660e01b815260040161185e9493929190611e34565b602060405180830381600087803b15801561187857600080fd5b505af115801561188c573d6000803e3d6000fd5b505050506040513d601f19601f820116820180604052508101906118b09190611c7c565b90506118de7f7246ab6dcfe0263372cc0b04d0572b827bda9d66a2052a7095fa2dee9719d16860001b610137565b61190a7f02c8a63bb0aa130e47f2262399a8c0b521a8e0d33a920e9a947a5fff46bc7bab60001b610137565b7f8631fa81f03d719a138fc5f15fc944030b2da7ce394bd56816f47950c347aa71338260405161193b929190611e0b565b60405180910390a15050505050565b611952611a42565b73ffffffffffffffffffffffffffffffffffffffff166119706101c2565b73ffffffffffffffffffffffffffffffffffffffff16146119c6576040517f08c379a00000000000000000000000000000000000000000000000000000000081526004016119bd90611eb4565b60405180910390fd5b600073ffffffffffffffffffffffffffffffffffffffff168173ffffffffffffffffffffffffffffffffffffffff161415611a36576040517f08c379a0000000000000000000000000000000000000000000000000000000008152600401611a2d90611e94565b60405180910390fd5b611a3f81611a4a565b50565b600033905090565b60008060009054906101000a900473ffffffffffffffffffffffffffffffffffffffff169050816000806101000a81548173ffffffffffffffffffffffffffffffffffffffff021916908373ffffffffffffffffffffffffffffffffffffffff1602179055508173ffffffffffffffffffffffffffffffffffffffff168173ffffffffffffffffffffffffffffffffffffffff167f8be0079c531659141344cd1fd0a4f28419497f9722a3daafe3b4186f6b6457e060405160405180910390a35050565b6000611b21611b1c84611f74565b611f4f565b90508082856020860282011115611b3757600080fd5b60005b85811015611b675781611b4d8882611bc2565b845260208401935060208301925050600181019050611b3a565b5050509392505050565b600081359050611b8081612235565b92915050565b600082601f830112611b9757600080fd5b6003611ba4848285611b0e565b91505092915050565b600081359050611bbc8161224c565b92915050565b600081359050611bd181612263565b92915050565b600081519050611be681612263565b92915050565b600081519050611bfb8161227a565b92915050565b600060208284031215611c1357600080fd5b6000611c2184828501611b71565b91505092915050565b600060608284031215611c3c57600080fd5b6000611c4a84828501611b86565b91505092915050565b600060208284031215611c6557600080fd5b6000611c7384828501611bad565b91505092915050565b600060208284031215611c8e57600080fd5b6000611c9c84828501611bd7565b91505092915050565b600060208284031215611cb757600080fd5b6000611cc584828501611bec565b91505092915050565b611cd781611fe2565b82525050565b611ce681612035565b82525050565b6000611cf9602683611f9a565b9150611d0482612142565b604082019050919050565b6000611d1c602083611f9a565b9150611d2782612191565b602082019050919050565b6000611d3f601483611f9a565b9150611d4a826121ba565b602082019050919050565b6000611d62601583611f9a565b9150611d6d826121e3565b602082019050919050565b6000611d85601d83611f9a565b9150611d908261220c565b602082019050919050565b611da48161201e565b82525050565b611db381612028565b82525050565b6000602082019050611dce6000830184611cce565b92915050565b6000606082019050611de96000830186611cce565b611df66020830185611cce565b611e036040830184611d9b565b949350505050565b6000604082019050611e206000830185611cce565b611e2d6020830184611d9b565b9392505050565b6000608082019050611e496000830187611cce565b611e566020830186611daa565b611e636040830185611daa565b611e706060830184611daa565b95945050505050565b6000602082019050611e8e6000830184611cdd565b92915050565b60006020820190508181036000830152611ead81611cec565b9050919050565b60006020820190508181036000830152611ecd81611d0f565b9050919050565b60006020820190508181036000830152611eed81611d32565b9050919050565b60006020820190508181036000830152611f0d81611d55565b9050919050565b60006020820190508181036000830152611f2d81611d78565b9050919050565b6000602082019050611f496000830184611d9b565b92915050565b6000611f59611f6a565b9050611f658282612059565b919050565b6000604051905090565b600067ffffffffffffffff821115611f8f57611f8e612102565b5b602082029050919050565b600082825260208201905092915050565b6000611fb682612028565b9150611fc183612028565b92508260ff03821115611fd757611fd66120d3565b5b828201905092915050565b6000611fed82611ffe565b9050919050565b6000819050919050565b600073ffffffffffffffffffffffffffffffffffffffff82169050919050565b6000819050919050565b600060ff82169050919050565b600061204082612047565b9050919050565b600061205282611ffe565b9050919050565b61206282612131565b810181811067ffffffffffffffff8211171561208157612080612102565b5b80604052505050565b60006120958261201e565b91507fffffffffffffffffffffffffffffffffffffffffffffffffffffffffffffffff8214156120c8576120c76120d3565b5b600182019050919050565b7f4e487b7100000000000000000000000000000000000000000000000000000000600052601160045260246000fd5b7f4e487b7100000000000000000000000000000000000000000000000000000000600052604160045260246000fd5b6000601f19601f8301169050919050565b7f4f776e61626c653a206e6577206f776e657220697320746865207a65726f206160008201527f6464726573730000000000000000000000000000000000000000000000000000602082015250565b7f4f776e61626c653a2063616c6c6572206973206e6f7420746865206f776e6572600082015250565b7f4d65726765723a6b696e64206e6f74457175616c000000000000000000000000600082015250565b7f4d65726765723a636f6c6f72206e6f74457175616c0000000000000000000000600082015250565b7f4d65726765723a2072616e64206e6f7420657175616c206f72206d6178000000600082015250565b61223e81611fe2565b811461224957600080fd5b50565b61225581611ff4565b811461226057600080fd5b50565b61226c8161201e565b811461227757600080fd5b50565b61228381612028565b811461228e57600080fd5b5056fea2646970667358221220965f690c2ec4018e8221f1ee26a1663d9461a74bf2f7cfb19e52aea517a54f1d64736f6c63430008040033",
  "linkReferences": {},
  "deployedLinkReferences": {}
}