{
  "_format": "hh-sol-artifact-1",
  "contractName": "CyberWayNFT",
  "sourceName": "contracts/CyberWayNFT.sol",
  "abi": [
    {
      "inputs": [
        {
          "internalType": "string",
          "name": "name_",
          "type": "string"
        },
        {
          "internalType": "string",
          "name": "symbol_",
          "type": "string"
        }
      ],
      "stateMutability": "nonpayable",
      "type": "constructor"
    },
    {
      "anonymous": false,
      "inputs": [
        {
          "indexed": true,
          "internalType": "address",
          "name": "owner",
          "type": "address"
        },
        {
          "indexed": true,
          "internalType": "address",
          "name": "approved",
          "type": "address"
        },
        {
          "indexed": true,
          "internalType": "uint256",
          "name": "tokenId",
          "type": "uint256"
        }
      ],
      "name": "Approval",
      "type": "event"
    },
    {
      "anonymous": false,
      "inputs": [
        {
          "indexed": true,
          "internalType": "address",
          "name": "owner",
          "type": "address"
        },
        {
          "indexed": true,
          "internalType": "address",
          "name": "operator",
          "type": "address"
        },
        {
          "indexed": false,
          "internalType": "bool",
          "name": "approved",
          "type": "bool"
        }
      ],
      "name": "ApprovalForAll",
      "type": "event"
    },
    {
      "anonymous": false,
      "inputs": [
        {
          "indexed": true,
          "internalType": "address",
          "name": "previousOwner",
          "type": "address"
        },
        {
          "indexed": true,
          "internalType": "address",
          "name": "newOwner",
          "type": "address"
        }
      ],
      "name": "OwnershipTransferred",
      "type": "event"
    },
    {
      "anonymous": false,
      "inputs": [
        {
          "indexed": true,
          "internalType": "address",
          "name": "from",
          "type": "address"
        },
        {
          "indexed": true,
          "internalType": "address",
          "name": "to",
          "type": "address"
        },
        {
          "indexed": true,
          "internalType": "uint256",
          "name": "tokenId",
          "type": "uint256"
        }
      ],
      "name": "Transfer",
      "type": "event"
    },
    {
      "inputs": [
        {
          "internalType": "address",
          "name": "_member",
          "type": "address"
        }
      ],
      "name": "addGovernance",
      "outputs": [],
      "stateMutability": "nonpayable",
      "type": "function"
    },
    {
      "inputs": [
        {
          "internalType": "address",
          "name": "to",
          "type": "address"
        },
        {
          "internalType": "uint256",
          "name": "tokenId",
          "type": "uint256"
        }
      ],
      "name": "approve",
      "outputs": [],
      "stateMutability": "nonpayable",
      "type": "function"
    },
    {
      "inputs": [
        {
          "internalType": "address",
          "name": "owner",
          "type": "address"
        }
      ],
      "name": "balanceOf",
      "outputs": [
        {
          "internalType": "uint256",
          "name": "",
          "type": "uint256"
        }
      ],
      "stateMutability": "view",
      "type": "function"
    },
    {
      "inputs": [
        {
          "internalType": "uint256",
          "name": "tokenId",
          "type": "uint256"
        }
      ],
      "name": "burn",
      "outputs": [],
      "stateMutability": "nonpayable",
      "type": "function"
    },
    {
      "inputs": [
        {
          "internalType": "uint256",
          "name": "tokenId",
          "type": "uint256"
        }
      ],
      "name": "getApproved",
      "outputs": [
        {
          "internalType": "address",
          "name": "",
          "type": "address"
        }
      ],
      "stateMutability": "view",
      "type": "function"
    },
    {
      "inputs": [
        {
          "internalType": "uint256",
          "name": "tokenId",
          "type": "uint256"
        }
      ],
      "name": "getTokenColor",
      "outputs": [
        {
          "internalType": "uint256",
          "name": "",
          "type": "uint256"
        }
      ],
      "stateMutability": "view",
      "type": "function"
    },
    {
      "inputs": [
        {
          "internalType": "uint256",
          "name": "tokenId",
          "type": "uint256"
        }
      ],
      "name": "getTokenKind",
      "outputs": [
        {
          "internalType": "uint256",
          "name": "",
          "type": "uint256"
        }
      ],
      "stateMutability": "view",
      "type": "function"
    },
    {
      "inputs": [
        {
          "internalType": "uint256",
          "name": "tokenId",
          "type": "uint256"
        }
      ],
      "name": "getTokenRand",
      "outputs": [
        {
          "internalType": "uint256",
          "name": "",
          "type": "uint256"
        }
      ],
      "stateMutability": "view",
      "type": "function"
    },
    {
      "inputs": [
        {
          "internalType": "address",
          "name": "",
          "type": "address"
        }
      ],
      "name": "governance",
      "outputs": [
        {
          "internalType": "bool",
          "name": "",
          "type": "bool"
        }
      ],
      "stateMutability": "view",
      "type": "function"
    },
    {
      "inputs": [
        {
          "internalType": "address",
          "name": "owner",
          "type": "address"
        },
        {
          "internalType": "address",
          "name": "operator",
          "type": "address"
        }
      ],
      "name": "isApprovedForAll",
      "outputs": [
        {
          "internalType": "bool",
          "name": "",
          "type": "bool"
        }
      ],
      "stateMutability": "view",
      "type": "function"
    },
    {
      "inputs": [
        {
          "internalType": "address",
          "name": "governance_",
          "type": "address"
        }
      ],
      "name": "isGovernance",
      "outputs": [
        {
          "internalType": "bool",
          "name": "",
          "type": "bool"
        }
      ],
      "stateMutability": "view",
      "type": "function"
    },
    {
      "inputs": [
        {
          "internalType": "address",
          "name": "to",
          "type": "address"
        },
        {
          "internalType": "uint256",
          "name": "kind_",
          "type": "uint256"
        },
        {
          "internalType": "uint256",
          "name": "newColorFrame_",
          "type": "uint256"
        },
        {
          "internalType": "uint256",
          "name": "rand_",
          "type": "uint256"
        }
      ],
      "name": "mint",
      "outputs": [
        {
          "internalType": "uint256",
          "name": "",
          "type": "uint256"
        }
      ],
      "stateMutability": "nonpayable",
      "type": "function"
    },
    {
      "inputs": [],
      "name": "name",
      "outputs": [
        {
          "internalType": "string",
          "name": "",
          "type": "string"
        }
      ],
      "stateMutability": "view",
      "type": "function"
    },
    {
      "inputs": [
        {
          "internalType": "uint256",
          "name": "",
          "type": "uint256"
        }
      ],
      "name": "nftTokens",
      "outputs": [
        {
          "internalType": "uint256",
          "name": "kind",
          "type": "uint256"
        },
        {
          "internalType": "uint256",
          "name": "colorFrame",
          "type": "uint256"
        },
        {
          "internalType": "uint256",
          "name": "rand",
          "type": "uint256"
        }
      ],
      "stateMutability": "view",
      "type": "function"
    },
    {
      "inputs": [],
      "name": "owner",
      "outputs": [
        {
          "internalType": "address",
          "name": "",
          "type": "address"
        }
      ],
      "stateMutability": "view",
      "type": "function"
    },
    {
      "inputs": [
        {
          "internalType": "uint256",
          "name": "tokenId",
          "type": "uint256"
        }
      ],
      "name": "ownerOf",
      "outputs": [
        {
          "internalType": "address",
          "name": "",
          "type": "address"
        }
      ],
      "stateMutability": "view",
      "type": "function"
    },
    {
      "inputs": [
        {
          "internalType": "address",
          "name": "_member",
          "type": "address"
        }
      ],
      "name": "removeGovernance",
      "outputs": [],
      "stateMutability": "nonpayable",
      "type": "function"
    },
    {
      "inputs": [],
      "name": "renounceOwnership",
      "outputs": [],
      "stateMutability": "nonpayable",
      "type": "function"
    },
    {
      "inputs": [
        {
          "internalType": "address",
          "name": "from",
          "type": "address"
        },
        {
          "internalType": "address",
          "name": "to",
          "type": "address"
        },
        {
          "internalType": "uint256",
          "name": "tokenId",
          "type": "uint256"
        }
      ],
      "name": "safeTransferFrom",
      "outputs": [],
      "stateMutability": "nonpayable",
      "type": "function"
    },
    {
      "inputs": [
        {
          "internalType": "address",
          "name": "from",
          "type": "address"
        },
        {
          "internalType": "address",
          "name": "to",
          "type": "address"
        },
        {
          "internalType": "uint256",
          "name": "tokenId",
          "type": "uint256"
        },
        {
          "internalType": "bytes",
          "name": "_data",
          "type": "bytes"
        }
      ],
      "name": "safeTransferFrom",
      "outputs": [],
      "stateMutability": "nonpayable",
      "type": "function"
    },
    {
      "inputs": [
        {
          "internalType": "address",
          "name": "operator",
          "type": "address"
        },
        {
          "internalType": "bool",
          "name": "approved",
          "type": "bool"
        }
      ],
      "name": "setApprovalForAll",
      "outputs": [],
      "stateMutability": "nonpayable",
      "type": "function"
    },
    {
      "inputs": [
        {
          "internalType": "bytes4",
          "name": "interfaceId",
          "type": "bytes4"
        }
      ],
      "name": "supportsInterface",
      "outputs": [
        {
          "internalType": "bool",
          "name": "",
          "type": "bool"
        }
      ],
      "stateMutability": "view",
      "type": "function"
    },
    {
      "inputs": [],
      "name": "symbol",
      "outputs": [
        {
          "internalType": "string",
          "name": "",
          "type": "string"
        }
      ],
      "stateMutability": "view",
      "type": "function"
    },
    {
      "inputs": [
        {
          "internalType": "uint256",
          "name": "tokenId",
          "type": "uint256"
        }
      ],
      "name": "tokenURI",
      "outputs": [
        {
          "internalType": "string",
          "name": "",
          "type": "string"
        }
      ],
      "stateMutability": "view",
      "type": "function"
    },
    {
      "inputs": [
        {
          "internalType": "address",
          "name": "from",
          "type": "address"
        },
        {
          "internalType": "address",
          "name": "to",
          "type": "address"
        },
        {
          "internalType": "uint256",
          "name": "tokenId",
          "type": "uint256"
        }
      ],
      "name": "transferFrom",
      "outputs": [],
      "stateMutability": "nonpayable",
      "type": "function"
    },
    {
      "inputs": [
        {
          "internalType": "address",
          "name": "newOwner",
          "type": "address"
        }
      ],
      "name": "transferOwnership",
      "outputs": [],
      "stateMutability": "nonpayable",
      "type": "function"
    }
  ],
  "bytecode": "0x60806040523480156200001157600080fd5b50604051620038a5380380620038a5833981810160405281019062000037919062000285565b818181600090805190602001906200005192919062000163565b5080600190805190602001906200006a92919062000163565b5050506200008d620000816200009560201b60201c565b6200009d60201b60201c565b505062000468565b600033905090565b6000600660009054906101000a900473ffffffffffffffffffffffffffffffffffffffff16905081600660006101000a81548173ffffffffffffffffffffffffffffffffffffffff021916908373ffffffffffffffffffffffffffffffffffffffff1602179055508173ffffffffffffffffffffffffffffffffffffffff168173ffffffffffffffffffffffffffffffffffffffff167f8be0079c531659141344cd1fd0a4f28419497f9722a3daafe3b4186f6b6457e060405160405180910390a35050565b82805462000171906200038d565b90600052602060002090601f016020900481019282620001955760008555620001e1565b82601f10620001b057805160ff1916838001178555620001e1565b82800160010185558215620001e1579182015b82811115620001e0578251825591602001919060010190620001c3565b5b509050620001f09190620001f4565b5090565b5b808211156200020f576000816000905550600101620001f5565b5090565b60006200022a620002248462000321565b620002f8565b9050828152602081018484840111156200024357600080fd5b6200025084828562000357565b509392505050565b600082601f8301126200026a57600080fd5b81516200027c84826020860162000213565b91505092915050565b600080604083850312156200029957600080fd5b600083015167ffffffffffffffff811115620002b457600080fd5b620002c28582860162000258565b925050602083015167ffffffffffffffff811115620002e057600080fd5b620002ee8582860162000258565b9150509250929050565b60006200030462000317565b9050620003128282620003c3565b919050565b6000604051905090565b600067ffffffffffffffff8211156200033f576200033e62000428565b5b6200034a8262000457565b9050602081019050919050565b60005b83811015620003775780820151818401526020810190506200035a565b8381111562000387576000848401525b50505050565b60006002820490506001821680620003a657607f821691505b60208210811415620003bd57620003bc620003f9565b5b50919050565b620003ce8262000457565b810181811067ffffffffffffffff82111715620003f057620003ef62000428565b5b80604052505050565b7f4e487b7100000000000000000000000000000000000000000000000000000000600052602260045260246000fd5b7f4e487b7100000000000000000000000000000000000000000000000000000000600052604160045260246000fd5b6000601f19601f8301169050919050565b61342d80620004786000396000f3fe608060405234801561001057600080fd5b506004361061018e5760003560e01c80638da5cb5b116100de578063c4c7f2f411610097578063dee1f0e411610071578063dee1f0e4146104b7578063e68b0944146104e7578063e985e9c514610519578063f2fde38b146105495761018e565b8063c4c7f2f41461043b578063c87b56dd14610457578063cd4191b1146104875761018e565b80638da5cb5b1461037b578063906e24791461039957806395d89b41146103b5578063a22cb465146103d3578063a647e8ec146103ef578063b88d4fde1461041f5761018e565b806342842e0e1161014b57806370a082311161012557806370a08231146102e1578063715018a6146103115780638426e6c11461031b5780638cfe96651461034b5761018e565b806342842e0e1461027957806342966c68146102955780636352211e146102b15761018e565b806301ffc9a71461019357806306fdde03146101c3578063081812fc146101e1578063095ea7b3146102115780630facebea1461022d57806323b872dd1461025d575b600080fd5b6101ad60048036038101906101a89190612468565b610565565b6040516101ba9190612891565b60405180910390f35b6101cb610647565b6040516101d891906128ac565b60405180910390f35b6101fb60048036038101906101f691906124ba565b6106d9565b604051610208919061282a565b60405180910390f35b61022b600480360381019061022691906123c9565b61075e565b005b610247600480360381019061024291906124ba565b610876565b6040516102549190612aee565b60405180910390f35b610277600480360381019061027291906122c3565b6108cb565b005b610293600480360381019061028e91906122c3565b61092b565b005b6102af60048036038101906102aa91906124ba565b61094b565b005b6102cb60048036038101906102c691906124ba565b610a4d565b6040516102d8919061282a565b60405180910390f35b6102fb60048036038101906102f6919061225e565b610aff565b6040516103089190612aee565b60405180910390f35b610319610bb7565b005b6103356004803603810190610330919061225e565b610c3f565b6040516103429190612891565b60405180910390f35b610365600480360381019061036091906124ba565b610c5f565b6040516103729190612aee565b60405180910390f35b610383610cb4565b604051610390919061282a565b60405180910390f35b6103b360048036038101906103ae919061225e565b610cde565b005b6103bd610db5565b6040516103ca91906128ac565b60405180910390f35b6103ed60048036038101906103e8919061238d565b610e47565b005b61040960048036038101906104049190612405565b610e5d565b6040516104169190612aee565b60405180910390f35b61043960048036038101906104349190612312565b610f8a565b005b6104556004803603810190610450919061225e565b610fec565b005b610471600480360381019061046c91906124ba565b6110c3565b60405161047e91906128ac565b60405180910390f35b6104a1600480360381019061049c91906124ba565b61116a565b6040516104ae9190612aee565b60405180910390f35b6104d160048036038101906104cc919061225e565b6111bf565b6040516104de9190612891565b60405180910390f35b61050160048036038101906104fc91906124ba565b611215565b60405161051093929190612b09565b60405180910390f35b610533600480360381019061052e9190612287565b61124f565b6040516105409190612891565b60405180910390f35b610563600480360381019061055e919061225e565b6112e3565b005b60007f80ac58cd000000000000000000000000000000000000000000000000000000007bffffffffffffffffffffffffffffffffffffffffffffffffffffffff1916827bffffffffffffffffffffffffffffffffffffffffffffffffffffffff1916148061063057507f5b5e139f000000000000000000000000000000000000000000000000000000007bffffffffffffffffffffffffffffffffffffffffffffffffffffffff1916827bffffffffffffffffffffffffffffffffffffffffffffffffffffffff1916145b80610640575061063f826113db565b5b9050919050565b60606000805461065690612d4a565b80601f016020809104026020016040519081016040528092919081815260200182805461068290612d4a565b80156106cf5780601f106106a4576101008083540402835291602001916106cf565b820191906000526020600020905b8154815290600101906020018083116106b257829003601f168201915b5050505050905090565b60006106e482611445565b610723576040517f08c379a000000000000000000000000000000000000000000000000000000000815260040161071a90612a0e565b60405180910390fd5b6004600083815260200190815260200160002060009054906101000a900473ffffffffffffffffffffffffffffffffffffffff169050919050565b600061076982610a4d565b90508073ffffffffffffffffffffffffffffffffffffffff168373ffffffffffffffffffffffffffffffffffffffff1614156107da576040517f08c379a00000000000000000000000000000000000000000000000000000000081526004016107d190612a8e565b60405180910390fd5b8073ffffffffffffffffffffffffffffffffffffffff166107f96114b1565b73ffffffffffffffffffffffffffffffffffffffff1614806108285750610827816108226114b1565b61124f565b5b610867576040517f08c379a000000000000000000000000000000000000000000000000000000000815260040161085e9061298e565b60405180910390fd5b61087183836114b9565b505050565b6000600882815481106108b2577f4e487b7100000000000000000000000000000000000000000000000000000000600052603260045260246000fd5b9060005260206000209060030201600001549050919050565b6108dc6108d66114b1565b82611572565b61091b576040517f08c379a000000000000000000000000000000000000000000000000000000000815260040161091290612aae565b60405180910390fd5b610926838383611650565b505050565b61094683838360405180602001604052806000815250610f8a565b505050565b600760006109576114b1565b73ffffffffffffffffffffffffffffffffffffffff1673ffffffffffffffffffffffffffffffffffffffff16815260200190815260200160002060009054906101000a900460ff166109de576040517f08c379a00000000000000000000000000000000000000000000000000000000081526004016109d590612ace565b60405180910390fd5b6109e7816118ac565b60088181548110610a21577f4e487b7100000000000000000000000000000000000000000000000000000000600052603260045260246000fd5b906000526020600020906003020160008082016000905560018201600090556002820160009055505050565b6000806002600084815260200190815260200160002060009054906101000a900473ffffffffffffffffffffffffffffffffffffffff169050600073ffffffffffffffffffffffffffffffffffffffff168173ffffffffffffffffffffffffffffffffffffffff161415610af6576040517f08c379a0000000000000000000000000000000000000000000000000000000008152600401610aed906129ce565b60405180910390fd5b80915050919050565b60008073ffffffffffffffffffffffffffffffffffffffff168273ffffffffffffffffffffffffffffffffffffffff161415610b70576040517f08c379a0000000000000000000000000000000000000000000000000000000008152600401610b67906129ae565b60405180910390fd5b600360008373ffffffffffffffffffffffffffffffffffffffff1673ffffffffffffffffffffffffffffffffffffffff168152602001908152602001600020549050919050565b610bbf6114b1565b73ffffffffffffffffffffffffffffffffffffffff16610bdd610cb4565b73ffffffffffffffffffffffffffffffffffffffff1614610c33576040517f08c379a0000000000000000000000000000000000000000000000000000000008152600401610c2a90612a2e565b60405180910390fd5b610c3d60006119bd565b565b60076020528060005260406000206000915054906101000a900460ff1681565b600060088281548110610c9b577f4e487b7100000000000000000000000000000000000000000000000000000000600052603260045260246000fd5b9060005260206000209060030201600101549050919050565b6000600660009054906101000a900473ffffffffffffffffffffffffffffffffffffffff16905090565b610ce66114b1565b73ffffffffffffffffffffffffffffffffffffffff16610d04610cb4565b73ffffffffffffffffffffffffffffffffffffffff1614610d5a576040517f08c379a0000000000000000000000000000000000000000000000000000000008152600401610d5190612a2e565b60405180910390fd5b6000600760008373ffffffffffffffffffffffffffffffffffffffff1673ffffffffffffffffffffffffffffffffffffffff16815260200190815260200160002060006101000a81548160ff02191690831515021790555050565b606060018054610dc490612d4a565b80601f0160208091040260200160405190810160405280929190818152602001828054610df090612d4a565b8015610e3d5780601f10610e1257610100808354040283529160200191610e3d565b820191906000526020600020905b815481529060010190602001808311610e2057829003601f168201915b5050505050905090565b610e59610e526114b1565b8383611a83565b5050565b600060076000610e6b6114b1565b73ffffffffffffffffffffffffffffffffffffffff1673ffffffffffffffffffffffffffffffffffffffff16815260200190815260200160002060009054906101000a900460ff16610ef2576040517f08c379a0000000000000000000000000000000000000000000000000000000008152600401610ee990612ace565b60405180910390fd5b600060405180606001604052808681526020018581526020018481525090506008819080600181540180825580915050600190039060005260206000209060030201600090919091909150600082015181600001556020820151816001015560408201518160020155505060006001600880549050610f719190612c60565b9050610f7d8782611bf0565b8092505050949350505050565b610f9b610f956114b1565b83611572565b610fda576040517f08c379a0000000000000000000000000000000000000000000000000000000008152600401610fd190612aae565b60405180910390fd5b610fe684848484611dbe565b50505050565b610ff46114b1565b73ffffffffffffffffffffffffffffffffffffffff16611012610cb4565b73ffffffffffffffffffffffffffffffffffffffff1614611068576040517f08c379a000000000000000000000000000000000000000000000000000000000815260040161105f90612a2e565b60405180910390fd5b6001600760008373ffffffffffffffffffffffffffffffffffffffff1673ffffffffffffffffffffffffffffffffffffffff16815260200190815260200160002060006101000a81548160ff02191690831515021790555050565b60606110ce82611445565b61110d576040517f08c379a000000000000000000000000000000000000000000000000000000000815260040161110490612a6e565b60405180910390fd5b6000611117611e1a565b905060008151116111375760405180602001604052806000815250611162565b8061114184611e31565b604051602001611152929190612806565b6040516020818303038152906040525b915050919050565b6000600882815481106111a6577f4e487b7100000000000000000000000000000000000000000000000000000000600052603260045260246000fd5b9060005260206000209060030201600201549050919050565b6000600760008373ffffffffffffffffffffffffffffffffffffffff1673ffffffffffffffffffffffffffffffffffffffff16815260200190815260200160002060009054906101000a900460ff169050919050565b6008818154811061122557600080fd5b90600052602060002090600302016000915090508060000154908060010154908060020154905083565b6000600560008473ffffffffffffffffffffffffffffffffffffffff1673ffffffffffffffffffffffffffffffffffffffff16815260200190815260200160002060008373ffffffffffffffffffffffffffffffffffffffff1673ffffffffffffffffffffffffffffffffffffffff16815260200190815260200160002060009054906101000a900460ff16905092915050565b6112eb6114b1565b73ffffffffffffffffffffffffffffffffffffffff16611309610cb4565b73ffffffffffffffffffffffffffffffffffffffff161461135f576040517f08c379a000000000000000000000000000000000000000000000000000000000815260040161135690612a2e565b60405180910390fd5b600073ffffffffffffffffffffffffffffffffffffffff168173ffffffffffffffffffffffffffffffffffffffff1614156113cf576040517f08c379a00000000000000000000000000000000000000000000000000000000081526004016113c6906128ee565b60405180910390fd5b6113d8816119bd565b50565b60007f01ffc9a7000000000000000000000000000000000000000000000000000000007bffffffffffffffffffffffffffffffffffffffffffffffffffffffff1916827bffffffffffffffffffffffffffffffffffffffffffffffffffffffff1916149050919050565b60008073ffffffffffffffffffffffffffffffffffffffff166002600084815260200190815260200160002060009054906101000a900473ffffffffffffffffffffffffffffffffffffffff1673ffffffffffffffffffffffffffffffffffffffff1614159050919050565b600033905090565b816004600083815260200190815260200160002060006101000a81548173ffffffffffffffffffffffffffffffffffffffff021916908373ffffffffffffffffffffffffffffffffffffffff160217905550808273ffffffffffffffffffffffffffffffffffffffff1661152c83610a4d565b73ffffffffffffffffffffffffffffffffffffffff167f8c5be1e5ebec7d5bd14f71427d1e84f3dd0314c0f7b2291e5b200ac8c7c3b92560405160405180910390a45050565b600061157d82611445565b6115bc576040517f08c379a00000000000000000000000000000000000000000000000000000000081526004016115b39061296e565b60405180910390fd5b60006115c783610a4d565b90508073ffffffffffffffffffffffffffffffffffffffff168473ffffffffffffffffffffffffffffffffffffffff16148061163657508373ffffffffffffffffffffffffffffffffffffffff1661161e846106d9565b73ffffffffffffffffffffffffffffffffffffffff16145b806116475750611646818561124f565b5b91505092915050565b8273ffffffffffffffffffffffffffffffffffffffff1661167082610a4d565b73ffffffffffffffffffffffffffffffffffffffff16146116c6576040517f08c379a00000000000000000000000000000000000000000000000000000000081526004016116bd90612a4e565b60405180910390fd5b600073ffffffffffffffffffffffffffffffffffffffff168273ffffffffffffffffffffffffffffffffffffffff161415611736576040517f08c379a000000000000000000000000000000000000000000000000000000000815260040161172d9061292e565b60405180910390fd5b611741838383611fde565b61174c6000826114b9565b6001600360008573ffffffffffffffffffffffffffffffffffffffff1673ffffffffffffffffffffffffffffffffffffffff168152602001908152602001600020600082825461179c9190612c60565b925050819055506001600360008473ffffffffffffffffffffffffffffffffffffffff1673ffffffffffffffffffffffffffffffffffffffff16815260200190815260200160002060008282546117f39190612bd9565b92505081905550816002600083815260200190815260200160002060006101000a81548173ffffffffffffffffffffffffffffffffffffffff021916908373ffffffffffffffffffffffffffffffffffffffff160217905550808273ffffffffffffffffffffffffffffffffffffffff168473ffffffffffffffffffffffffffffffffffffffff167fddf252ad1be2c89b69c2b068fc378daa952ba7f163c4a11628f55a4df523b3ef60405160405180910390a4505050565b60006118b782610a4d565b90506118c581600084611fde565b6118d06000836114b9565b6001600360008373ffffffffffffffffffffffffffffffffffffffff1673ffffffffffffffffffffffffffffffffffffffff16815260200190815260200160002060008282546119209190612c60565b925050819055506002600083815260200190815260200160002060006101000a81549073ffffffffffffffffffffffffffffffffffffffff021916905581600073ffffffffffffffffffffffffffffffffffffffff168273ffffffffffffffffffffffffffffffffffffffff167fddf252ad1be2c89b69c2b068fc378daa952ba7f163c4a11628f55a4df523b3ef60405160405180910390a45050565b6000600660009054906101000a900473ffffffffffffffffffffffffffffffffffffffff16905081600660006101000a81548173ffffffffffffffffffffffffffffffffffffffff021916908373ffffffffffffffffffffffffffffffffffffffff1602179055508173ffffffffffffffffffffffffffffffffffffffff168173ffffffffffffffffffffffffffffffffffffffff167f8be0079c531659141344cd1fd0a4f28419497f9722a3daafe3b4186f6b6457e060405160405180910390a35050565b8173ffffffffffffffffffffffffffffffffffffffff168373ffffffffffffffffffffffffffffffffffffffff161415611af2576040517f08c379a0000000000000000000000000000000000000000000000000000000008152600401611ae99061294e565b60405180910390fd5b80600560008573ffffffffffffffffffffffffffffffffffffffff1673ffffffffffffffffffffffffffffffffffffffff16815260200190815260200160002060008473ffffffffffffffffffffffffffffffffffffffff1673ffffffffffffffffffffffffffffffffffffffff16815260200190815260200160002060006101000a81548160ff0219169083151502179055508173ffffffffffffffffffffffffffffffffffffffff168373ffffffffffffffffffffffffffffffffffffffff167f17307eab39ab6107e8899845ad3d59bd9653f200f220920489ca2b5937696c3183604051611be39190612891565b60405180910390a3505050565b600073ffffffffffffffffffffffffffffffffffffffff168273ffffffffffffffffffffffffffffffffffffffff161415611c60576040517f08c379a0000000000000000000000000000000000000000000000000000000008152600401611c57906129ee565b60405180910390fd5b611c6981611445565b15611ca9576040517f08c379a0000000000000000000000000000000000000000000000000000000008152600401611ca09061290e565b60405180910390fd5b611cb560008383611fde565b6001600360008473ffffffffffffffffffffffffffffffffffffffff1673ffffffffffffffffffffffffffffffffffffffff1681526020019081526020016000206000828254611d059190612bd9565b92505081905550816002600083815260200190815260200160002060006101000a81548173ffffffffffffffffffffffffffffffffffffffff021916908373ffffffffffffffffffffffffffffffffffffffff160217905550808273ffffffffffffffffffffffffffffffffffffffff16600073ffffffffffffffffffffffffffffffffffffffff167fddf252ad1be2c89b69c2b068fc378daa952ba7f163c4a11628f55a4df523b3ef60405160405180910390a45050565b611dc9848484611650565b611dd584848484611fe3565b611e14576040517f08c379a0000000000000000000000000000000000000000000000000000000008152600401611e0b906128ce565b60405180910390fd5b50505050565b606060405180602001604052806000815250905090565b60606000821415611e79576040518060400160405280600181526020017f30000000000000000000000000000000000000000000000000000000000000008152509050611fd9565b600082905060005b60008214611eab578080611e9490612dad565b915050600a82611ea49190612c2f565b9150611e81565b60008167ffffffffffffffff811115611eed577f4e487b7100000000000000000000000000000000000000000000000000000000600052604160045260246000fd5b6040519080825280601f01601f191660200182016040528015611f1f5781602001600182028036833780820191505090505b5090505b60008514611fd257600182611f389190612c60565b9150600a85611f479190612df6565b6030611f539190612bd9565b60f81b818381518110611f8f577f4e487b7100000000000000000000000000000000000000000000000000000000600052603260045260246000fd5b60200101907effffffffffffffffffffffffffffffffffffffffffffffffffffffffffffff1916908160001a905350600a85611fcb9190612c2f565b9450611f23565b8093505050505b919050565b505050565b60006120048473ffffffffffffffffffffffffffffffffffffffff1661217a565b1561216d578373ffffffffffffffffffffffffffffffffffffffff1663150b7a0261202d6114b1565b8786866040518563ffffffff1660e01b815260040161204f9493929190612845565b602060405180830381600087803b15801561206957600080fd5b505af192505050801561209a57506040513d601f19601f820116820180604052508101906120979190612491565b60015b61211d573d80600081146120ca576040519150601f19603f3d011682016040523d82523d6000602084013e6120cf565b606091505b50600081511415612115576040517f08c379a000000000000000000000000000000000000000000000000000000000815260040161210c906128ce565b60405180910390fd5b805181602001fd5b63150b7a0260e01b7bffffffffffffffffffffffffffffffffffffffffffffffffffffffff1916817bffffffffffffffffffffffffffffffffffffffffffffffffffffffff191614915050612172565b600190505b949350505050565b600080823b905060008111915050919050565b60006121a061219b84612b65565b612b40565b9050828152602081018484840111156121b857600080fd5b6121c3848285612d08565b509392505050565b6000813590506121da8161339b565b92915050565b6000813590506121ef816133b2565b92915050565b600081359050612204816133c9565b92915050565b600081519050612219816133c9565b92915050565b600082601f83011261223057600080fd5b813561224084826020860161218d565b91505092915050565b600081359050612258816133e0565b92915050565b60006020828403121561227057600080fd5b600061227e848285016121cb565b91505092915050565b6000806040838503121561229a57600080fd5b60006122a8858286016121cb565b92505060206122b9858286016121cb565b9150509250929050565b6000806000606084860312156122d857600080fd5b60006122e6868287016121cb565b93505060206122f7868287016121cb565b925050604061230886828701612249565b9150509250925092565b6000806000806080858703121561232857600080fd5b6000612336878288016121cb565b9450506020612347878288016121cb565b935050604061235887828801612249565b925050606085013567ffffffffffffffff81111561237557600080fd5b6123818782880161221f565b91505092959194509250565b600080604083850312156123a057600080fd5b60006123ae858286016121cb565b92505060206123bf858286016121e0565b9150509250929050565b600080604083850312156123dc57600080fd5b60006123ea858286016121cb565b92505060206123fb85828601612249565b9150509250929050565b6000806000806080858703121561241b57600080fd5b6000612429878288016121cb565b945050602061243a87828801612249565b935050604061244b87828801612249565b925050606061245c87828801612249565b91505092959194509250565b60006020828403121561247a57600080fd5b6000612488848285016121f5565b91505092915050565b6000602082840312156124a357600080fd5b60006124b18482850161220a565b91505092915050565b6000602082840312156124cc57600080fd5b60006124da84828501612249565b91505092915050565b6124ec81612c94565b82525050565b6124fb81612ca6565b82525050565b600061250c82612b96565b6125168185612bac565b9350612526818560208601612d17565b61252f81612ee3565b840191505092915050565b600061254582612ba1565b61254f8185612bbd565b935061255f818560208601612d17565b61256881612ee3565b840191505092915050565b600061257e82612ba1565b6125888185612bce565b9350612598818560208601612d17565b80840191505092915050565b60006125b1603283612bbd565b91506125bc82612ef4565b604082019050919050565b60006125d4602683612bbd565b91506125df82612f43565b604082019050919050565b60006125f7601c83612bbd565b915061260282612f92565b602082019050919050565b600061261a602483612bbd565b915061262582612fbb565b604082019050919050565b600061263d601983612bbd565b91506126488261300a565b602082019050919050565b6000612660602c83612bbd565b915061266b82613033565b604082019050919050565b6000612683603883612bbd565b915061268e82613082565b604082019050919050565b60006126a6602a83612bbd565b91506126b1826130d1565b604082019050919050565b60006126c9602983612bbd565b91506126d482613120565b604082019050919050565b60006126ec602083612bbd565b91506126f78261316f565b602082019050919050565b600061270f602c83612bbd565b915061271a82613198565b604082019050919050565b6000612732602083612bbd565b915061273d826131e7565b602082019050919050565b6000612755602983612bbd565b915061276082613210565b604082019050919050565b6000612778602f83612bbd565b91506127838261325f565b604082019050919050565b600061279b602183612bbd565b91506127a6826132ae565b604082019050919050565b60006127be603183612bbd565b91506127c9826132fd565b604082019050919050565b60006127e1602783612bbd565b91506127ec8261334c565b604082019050919050565b61280081612cfe565b82525050565b60006128128285612573565b915061281e8284612573565b91508190509392505050565b600060208201905061283f60008301846124e3565b92915050565b600060808201905061285a60008301876124e3565b61286760208301866124e3565b61287460408301856127f7565b81810360608301526128868184612501565b905095945050505050565b60006020820190506128a660008301846124f2565b92915050565b600060208201905081810360008301526128c6818461253a565b905092915050565b600060208201905081810360008301526128e7816125a4565b9050919050565b60006020820190508181036000830152612907816125c7565b9050919050565b60006020820190508181036000830152612927816125ea565b9050919050565b600060208201905081810360008301526129478161260d565b9050919050565b6000602082019050818103600083015261296781612630565b9050919050565b6000602082019050818103600083015261298781612653565b9050919050565b600060208201905081810360008301526129a781612676565b9050919050565b600060208201905081810360008301526129c781612699565b9050919050565b600060208201905081810360008301526129e7816126bc565b9050919050565b60006020820190508181036000830152612a07816126df565b9050919050565b60006020820190508181036000830152612a2781612702565b9050919050565b60006020820190508181036000830152612a4781612725565b9050919050565b60006020820190508181036000830152612a6781612748565b9050919050565b60006020820190508181036000830152612a878161276b565b9050919050565b60006020820190508181036000830152612aa78161278e565b9050919050565b60006020820190508181036000830152612ac7816127b1565b9050919050565b60006020820190508181036000830152612ae7816127d4565b9050919050565b6000602082019050612b0360008301846127f7565b92915050565b6000606082019050612b1e60008301866127f7565b612b2b60208301856127f7565b612b3860408301846127f7565b949350505050565b6000612b4a612b5b565b9050612b568282612d7c565b919050565b6000604051905090565b600067ffffffffffffffff821115612b8057612b7f612eb4565b5b612b8982612ee3565b9050602081019050919050565b600081519050919050565b600081519050919050565b600082825260208201905092915050565b600082825260208201905092915050565b600081905092915050565b6000612be482612cfe565b9150612bef83612cfe565b9250827fffffffffffffffffffffffffffffffffffffffffffffffffffffffffffffffff03821115612c2457612c23612e27565b5b828201905092915050565b6000612c3a82612cfe565b9150612c4583612cfe565b925082612c5557612c54612e56565b5b828204905092915050565b6000612c6b82612cfe565b9150612c7683612cfe565b925082821015612c8957612c88612e27565b5b828203905092915050565b6000612c9f82612cde565b9050919050565b60008115159050919050565b60007fffffffff0000000000000000000000000000000000000000000000000000000082169050919050565b600073ffffffffffffffffffffffffffffffffffffffff82169050919050565b6000819050919050565b82818337600083830152505050565b60005b83811015612d35578082015181840152602081019050612d1a565b83811115612d44576000848401525b50505050565b60006002820490506001821680612d6257607f821691505b60208210811415612d7657612d75612e85565b5b50919050565b612d8582612ee3565b810181811067ffffffffffffffff82111715612da457612da3612eb4565b5b80604052505050565b6000612db882612cfe565b91507fffffffffffffffffffffffffffffffffffffffffffffffffffffffffffffffff821415612deb57612dea612e27565b5b600182019050919050565b6000612e0182612cfe565b9150612e0c83612cfe565b925082612e1c57612e1b612e56565b5b828206905092915050565b7f4e487b7100000000000000000000000000000000000000000000000000000000600052601160045260246000fd5b7f4e487b7100000000000000000000000000000000000000000000000000000000600052601260045260246000fd5b7f4e487b7100000000000000000000000000000000000000000000000000000000600052602260045260246000fd5b7f4e487b7100000000000000000000000000000000000000000000000000000000600052604160045260246000fd5b6000601f19601f8301169050919050565b7f4552433732313a207472616e7366657220746f206e6f6e20455243373231526560008201527f63656976657220696d706c656d656e7465720000000000000000000000000000602082015250565b7f4f776e61626c653a206e6577206f776e657220697320746865207a65726f206160008201527f6464726573730000000000000000000000000000000000000000000000000000602082015250565b7f4552433732313a20746f6b656e20616c7265616479206d696e74656400000000600082015250565b7f4552433732313a207472616e7366657220746f20746865207a65726f2061646460008201527f7265737300000000000000000000000000000000000000000000000000000000602082015250565b7f4552433732313a20617070726f766520746f2063616c6c657200000000000000600082015250565b7f4552433732313a206f70657261746f7220717565727920666f72206e6f6e657860008201527f697374656e7420746f6b656e0000000000000000000000000000000000000000602082015250565b7f4552433732313a20617070726f76652063616c6c6572206973206e6f74206f7760008201527f6e6572206e6f7220617070726f76656420666f7220616c6c0000000000000000602082015250565b7f4552433732313a2062616c616e636520717565727920666f7220746865207a6560008201527f726f206164647265737300000000000000000000000000000000000000000000602082015250565b7f4552433732313a206f776e657220717565727920666f72206e6f6e657869737460008201527f656e7420746f6b656e0000000000000000000000000000000000000000000000602082015250565b7f4552433732313a206d696e7420746f20746865207a65726f2061646472657373600082015250565b7f4552433732313a20617070726f76656420717565727920666f72206e6f6e657860008201527f697374656e7420746f6b656e0000000000000000000000000000000000000000602082015250565b7f4f776e61626c653a2063616c6c6572206973206e6f7420746865206f776e6572600082015250565b7f4552433732313a207472616e73666572206f6620746f6b656e2074686174206960008201527f73206e6f74206f776e0000000000000000000000000000000000000000000000602082015250565b7f4552433732314d657461646174613a2055524920717565727920666f72206e6f60008201527f6e6578697374656e7420746f6b656e0000000000000000000000000000000000602082015250565b7f4552433732313a20617070726f76616c20746f2063757272656e74206f776e6560008201527f7200000000000000000000000000000000000000000000000000000000000000602082015250565b7f4552433732313a207472616e736665722063616c6c6572206973206e6f74206f60008201527f776e6572206e6f7220617070726f766564000000000000000000000000000000602082015250565b7f43594245525f4e46543a2063616c6c6572206973206e6f742074686520676f7660008201527f65726e616e636500000000000000000000000000000000000000000000000000602082015250565b6133a481612c94565b81146133af57600080fd5b50565b6133bb81612ca6565b81146133c657600080fd5b50565b6133d281612cb2565b81146133dd57600080fd5b50565b6133e981612cfe565b81146133f457600080fd5b5056fea264697066735822122079fa2982b94bcd2161527be671c7325ce53ae22047df4eb06d43ec1dfd3ac23664736f6c63430008040033",
  "linkReferences": {},
  "deployedLinkReferences": {}
}