{
  "_format": "hh-sol-artifact-1",
  "contractName": "Farming",
  "sourceName": "contracts/Farming.sol",
  "abi": [
    {
      "inputs": [
        {
          "internalType": "address",
          "name": "_nft",
          "type": "address"
        },
        {
          "internalType": "address",
          "name": "_token",
          "type": "address"
        },
        {
          "internalType": "uint256",
          "name": "_tokenPerBlock",
          "type": "uint256"
        },
        {
          "internalType": "uint256",
          "name": "_basicLockPeriod",
          "type": "uint256"
        }
      ],
      "stateMutability": "nonpayable",
      "type": "constructor"
    },
    {
      "anonymous": false,
      "inputs": [
        {
          "indexed": false,
          "internalType": "address",
          "name": "sender",
          "type": "address"
        },
        {
          "indexed": false,
          "internalType": "uint256",
          "name": "id",
          "type": "uint256"
        },
        {
          "indexed": false,
          "internalType": "uint256",
          "name": "startBlock",
          "type": "uint256"
        }
      ],
      "name": "NFTDeposited",
      "type": "event"
    },
    {
      "anonymous": false,
      "inputs": [],
      "name": "NFTDeposited",
      "type": "event"
    },
    {
      "anonymous": false,
      "inputs": [
        {
          "indexed": false,
          "internalType": "address",
          "name": "sender",
          "type": "address"
        },
        {
          "indexed": false,
          "internalType": "uint256",
          "name": "id",
          "type": "uint256"
        },
        {
          "indexed": false,
          "internalType": "uint256",
          "name": "block",
          "type": "uint256"
        }
      ],
      "name": "NFTEmergencyWithdrawn",
      "type": "event"
    },
    {
      "anonymous": false,
      "inputs": [
        {
          "indexed": false,
          "internalType": "address",
          "name": "sender",
          "type": "address"
        },
        {
          "indexed": false,
          "internalType": "uint256",
          "name": "id",
          "type": "uint256"
        },
        {
          "indexed": false,
          "internalType": "uint256",
          "name": "amount",
          "type": "uint256"
        }
      ],
      "name": "NFTWithdrawn",
      "type": "event"
    },
    {
      "anonymous": false,
      "inputs": [
        {
          "indexed": true,
          "internalType": "address",
          "name": "previousOwner",
          "type": "address"
        },
        {
          "indexed": true,
          "internalType": "address",
          "name": "newOwner",
          "type": "address"
        }
      ],
      "name": "OwnershipTransferred",
      "type": "event"
    },
    {
      "inputs": [],
      "name": "approvalNFTTransfers",
      "outputs": [],
      "stateMutability": "nonpayable",
      "type": "function"
    },
    {
      "inputs": [],
      "name": "basicLockPeriod",
      "outputs": [
        {
          "internalType": "uint256",
          "name": "",
          "type": "uint256"
        }
      ],
      "stateMutability": "view",
      "type": "function"
    },
    {
      "inputs": [],
      "name": "cyberToken",
      "outputs": [
        {
          "internalType": "contract IERC20",
          "name": "",
          "type": "address"
        }
      ],
      "stateMutability": "view",
      "type": "function"
    },
    {
      "inputs": [
        {
          "internalType": "uint256",
          "name": "_id",
          "type": "uint256"
        }
      ],
      "name": "depositFarmingToken",
      "outputs": [],
      "stateMutability": "nonpayable",
      "type": "function"
    },
    {
      "inputs": [
        {
          "internalType": "uint256",
          "name": "_id",
          "type": "uint256"
        }
      ],
      "name": "emergencyWithdrawFarmingToken",
      "outputs": [],
      "stateMutability": "nonpayable",
      "type": "function"
    },
    {
      "inputs": [],
      "name": "getCurrentBlockReward",
      "outputs": [
        {
          "internalType": "uint256",
          "name": "",
          "type": "uint256"
        }
      ],
      "stateMutability": "view",
      "type": "function"
    },
    {
      "inputs": [],
      "name": "nft",
      "outputs": [
        {
          "internalType": "contract ICyberWayNFT",
          "name": "",
          "type": "address"
        }
      ],
      "stateMutability": "view",
      "type": "function"
    },
    {
      "inputs": [],
      "name": "owner",
      "outputs": [
        {
          "internalType": "address",
          "name": "",
          "type": "address"
        }
      ],
      "stateMutability": "view",
      "type": "function"
    },
    {
      "inputs": [
        {
          "internalType": "address",
          "name": "_user",
          "type": "address"
        },
        {
          "internalType": "uint256",
          "name": "_id",
          "type": "uint256"
        }
      ],
      "name": "pendingToken",
      "outputs": [
        {
          "internalType": "uint256",
          "name": "",
          "type": "uint256"
        }
      ],
      "stateMutability": "view",
      "type": "function"
    },
    {
      "inputs": [],
      "name": "renounceOwnership",
      "outputs": [],
      "stateMutability": "nonpayable",
      "type": "function"
    },
    {
      "inputs": [
        {
          "internalType": "uint256",
          "name": "_newAmount",
          "type": "uint256"
        }
      ],
      "name": "setTokenPerBlock",
      "outputs": [],
      "stateMutability": "nonpayable",
      "type": "function"
    },
    {
      "inputs": [
        {
          "internalType": "address",
          "name": "newOwner",
          "type": "address"
        }
      ],
      "name": "transferOwnership",
      "outputs": [],
      "stateMutability": "nonpayable",
      "type": "function"
    },
    {
      "inputs": [
        {
          "internalType": "address",
          "name": "",
          "type": "address"
        },
        {
          "internalType": "uint256",
          "name": "",
          "type": "uint256"
        }
      ],
      "name": "userInfo",
      "outputs": [
        {
          "internalType": "uint256",
          "name": "startBlock",
          "type": "uint256"
        }
      ],
      "stateMutability": "view",
      "type": "function"
    },
    {
      "inputs": [
        {
          "internalType": "uint256",
          "name": "_id",
          "type": "uint256"
        }
      ],
      "name": "withdrawFarmingToken",
      "outputs": [],
      "stateMutability": "nonpayable",
      "type": "function"
    }
  ],
  "bytecode": "0x6080604052671bc16d674ec800006004553480156200001d57600080fd5b5060405162001705380380620017058339818101604052810190620000439190620001f7565b6200006362000057620000fd60201b60201c565b6200010560201b60201c565b83600260006101000a81548173ffffffffffffffffffffffffffffffffffffffff021916908373ffffffffffffffffffffffffffffffffffffffff16021790555082600160006101000a81548173ffffffffffffffffffffffffffffffffffffffff021916908373ffffffffffffffffffffffffffffffffffffffff160217905550816004819055508060038190555050505050620002d5565b600033905090565b60008060009054906101000a900473ffffffffffffffffffffffffffffffffffffffff169050816000806101000a81548173ffffffffffffffffffffffffffffffffffffffff021916908373ffffffffffffffffffffffffffffffffffffffff1602179055508173ffffffffffffffffffffffffffffffffffffffff168173ffffffffffffffffffffffffffffffffffffffff167f8be0079c531659141344cd1fd0a4f28419497f9722a3daafe3b4186f6b6457e060405160405180910390a35050565b600081519050620001da81620002a1565b92915050565b600081519050620001f181620002bb565b92915050565b600080600080608085870312156200020e57600080fd5b60006200021e87828801620001c9565b94505060206200023187828801620001c9565b93505060406200024487828801620001e0565b92505060606200025787828801620001e0565b91505092959194509250565b6000620002708262000277565b9050919050565b600073ffffffffffffffffffffffffffffffffffffffff82169050919050565b6000819050919050565b620002ac8162000263565b8114620002b857600080fd5b50565b620002c68162000297565b8114620002d257600080fd5b50565b61142080620002e56000396000f3fe608060405234801561001057600080fd5b50600436106100ea5760003560e01c8063715018a61161008c5780639646d9a7116100665780639646d9a714610211578063c08d414614610241578063f16b268e1461024b578063f2fde38b14610269576100ea565b8063715018a6146101cd57806388b03ced146101d75780638da5cb5b146101f3576100ea565b8063448b8be8116100c8578063448b8be81461015757806347ccca02146101755780634a80d7bd146101935780634efdc326146101b1576100ea565b806308f1d0ce146100ef57806321ce919d1461010b578063411330bd1461013b575b600080fd5b61010960048036038101906101049190610e7e565b610285565b005b61012560048036038101906101209190610e19565b6104db565b60405161013291906110e6565b60405180910390f35b61015560048036038101906101509190610e7e565b610506565b005b61015f61058c565b60405161016c919061104b565b60405180910390f35b61017d6105b2565b60405161018a9190611030565b60405180910390f35b61019b6105d8565b6040516101a891906110e6565b60405180910390f35b6101cb60048036038101906101c69190610e7e565b6105e2565b005b6101d56107f3565b005b6101f160048036038101906101ec9190610e7e565b61087b565b005b6101fb610a3a565b6040516102089190610f7e565b60405180910390f35b61022b60048036038101906102269190610e19565b610a63565b60405161023891906110e6565b60405180910390f35b610249610ad9565b005b610253610be7565b60405161026091906110e6565b60405180910390f35b610283600480360381019061027e9190610df0565b610bed565b005b43600354600560003373ffffffffffffffffffffffffffffffffffffffff1673ffffffffffffffffffffffffffffffffffffffff1681526020019081526020016000206000848152602001908152602001600020600001546102e79190611112565b10156102f257600080fd5b60006102fe3383610a63565b90506000600560003373ffffffffffffffffffffffffffffffffffffffff1673ffffffffffffffffffffffffffffffffffffffff168152602001908152602001600020600084815260200190815260200160002060000181905550600160009054906101000a900473ffffffffffffffffffffffffffffffffffffffff1673ffffffffffffffffffffffffffffffffffffffff166323b872dd3033846040518463ffffffff1660e01b81526004016103b893929190610f99565b602060405180830381600087803b1580156103d257600080fd5b505af11580156103e6573d6000803e3d6000fd5b505050506040513d601f19601f8201168201806040525081019061040a9190610e55565b50600260009054906101000a900473ffffffffffffffffffffffffffffffffffffffff1673ffffffffffffffffffffffffffffffffffffffff166342842e0e3033856040518463ffffffff1660e01b815260040161046a93929190610f99565b600060405180830381600087803b15801561048457600080fd5b505af1158015610498573d6000803e3d6000fd5b505050507f8e52db99ce3ea11f5ce05e25a6d21952ef9c65a56f572b7b6039f3dc608808c83383836040516104cf93929190610ff9565b60405180910390a15050565b6005602052816000526040600020602052806000526040600020600091509150508060000154905081565b61050e610ce5565b73ffffffffffffffffffffffffffffffffffffffff1661052c610a3a565b73ffffffffffffffffffffffffffffffffffffffff1614610582576040517f08c379a0000000000000000000000000000000000000000000000000000000008152600401610579906110c6565b60405180910390fd5b8060048190555050565b600160009054906101000a900473ffffffffffffffffffffffffffffffffffffffff1681565b600260009054906101000a900473ffffffffffffffffffffffffffffffffffffffff1681565b6000600454905090565b6000600560003373ffffffffffffffffffffffffffffffffffffffff1673ffffffffffffffffffffffffffffffffffffffff1681526020019081526020016000206000838152602001908152602001600020600001541415610679576040517f08c379a000000000000000000000000000000000000000000000000000000000815260040161067090611086565b60405180910390fd5b600260009054906101000a900473ffffffffffffffffffffffffffffffffffffffff1673ffffffffffffffffffffffffffffffffffffffff166342842e0e3330846040518463ffffffff1660e01b81526004016106d893929190610f99565b600060405180830381600087803b1580156106f257600080fd5b505af1158015610706573d6000803e3d6000fd5b5050505043600560003373ffffffffffffffffffffffffffffffffffffffff1673ffffffffffffffffffffffffffffffffffffffff1681526020019081526020016000206000838152602001908152602001600020600001819055507fdeba2d4291edd2e29ef127ea6e31f12ebb9adc96b42605081927d379bdcb8bed3382600560003373ffffffffffffffffffffffffffffffffffffffff1673ffffffffffffffffffffffffffffffffffffffff1681526020019081526020016000206000858152602001908152602001600020600001546040516107e893929190610ff9565b60405180910390a150565b6107fb610ce5565b73ffffffffffffffffffffffffffffffffffffffff16610819610a3a565b73ffffffffffffffffffffffffffffffffffffffff161461086f576040517f08c379a0000000000000000000000000000000000000000000000000000000008152600401610866906110c6565b60405180910390fd5b6108796000610ced565b565b6000600560003373ffffffffffffffffffffffffffffffffffffffff1673ffffffffffffffffffffffffffffffffffffffff1681526020019081526020016000206000838152602001908152602001600020600001541415610912576040517f08c379a0000000000000000000000000000000000000000000000000000000008152600401610909906110a6565b60405180910390fd5b6000600560003373ffffffffffffffffffffffffffffffffffffffff1673ffffffffffffffffffffffffffffffffffffffff168152602001908152602001600020600083815260200190815260200160002060000181905550600260009054906101000a900473ffffffffffffffffffffffffffffffffffffffff1673ffffffffffffffffffffffffffffffffffffffff166342842e0e3033846040518463ffffffff1660e01b81526004016109ca93929190610f99565b600060405180830381600087803b1580156109e457600080fd5b505af11580156109f8573d6000803e3d6000fd5b505050507f8ca41bff42bbc9b8ecccdf1731d5444d755750bae8bb9a3ad7fe38f94fb5fd94338243604051610a2f93929190610ff9565b60405180910390a150565b60008060009054906101000a900473ffffffffffffffffffffffffffffffffffffffff16905090565b6000600354600560008573ffffffffffffffffffffffffffffffffffffffff1673ffffffffffffffffffffffffffffffffffffffff16815260200190815260200160002060008481526020019081526020016000206000015443610ac791906111c2565b610ad19190611168565b905092915050565b610ae1610ce5565b73ffffffffffffffffffffffffffffffffffffffff16610aff610a3a565b73ffffffffffffffffffffffffffffffffffffffff1614610b55576040517f08c379a0000000000000000000000000000000000000000000000000000000008152600401610b4c906110c6565b60405180910390fd5b600260009054906101000a900473ffffffffffffffffffffffffffffffffffffffff1673ffffffffffffffffffffffffffffffffffffffff1663a22cb4653060016040518363ffffffff1660e01b8152600401610bb3929190610fd0565b600060405180830381600087803b158015610bcd57600080fd5b505af1158015610be1573d6000803e3d6000fd5b50505050565b60035481565b610bf5610ce5565b73ffffffffffffffffffffffffffffffffffffffff16610c13610a3a565b73ffffffffffffffffffffffffffffffffffffffff1614610c69576040517f08c379a0000000000000000000000000000000000000000000000000000000008152600401610c60906110c6565b60405180910390fd5b600073ffffffffffffffffffffffffffffffffffffffff168173ffffffffffffffffffffffffffffffffffffffff161415610cd9576040517f08c379a0000000000000000000000000000000000000000000000000000000008152600401610cd090611066565b60405180910390fd5b610ce281610ced565b50565b600033905090565b60008060009054906101000a900473ffffffffffffffffffffffffffffffffffffffff169050816000806101000a81548173ffffffffffffffffffffffffffffffffffffffff021916908373ffffffffffffffffffffffffffffffffffffffff1602179055508173ffffffffffffffffffffffffffffffffffffffff168173ffffffffffffffffffffffffffffffffffffffff167f8be0079c531659141344cd1fd0a4f28419497f9722a3daafe3b4186f6b6457e060405160405180910390a35050565b600081359050610dc0816113a5565b92915050565b600081519050610dd5816113bc565b92915050565b600081359050610dea816113d3565b92915050565b600060208284031215610e0257600080fd5b6000610e1084828501610db1565b91505092915050565b60008060408385031215610e2c57600080fd5b6000610e3a85828601610db1565b9250506020610e4b85828601610ddb565b9150509250929050565b600060208284031215610e6757600080fd5b6000610e7584828501610dc6565b91505092915050565b600060208284031215610e9057600080fd5b6000610e9e84828501610ddb565b91505092915050565b610eb0816111f6565b82525050565b610ebf81611208565b82525050565b610ece8161123e565b82525050565b610edd81611262565b82525050565b6000610ef0602683611101565b9150610efb826112b5565b604082019050919050565b6000610f13601183611101565b9150610f1e82611304565b602082019050919050565b6000610f36602383611101565b9150610f418261132d565b604082019050919050565b6000610f59602083611101565b9150610f648261137c565b602082019050919050565b610f7881611234565b82525050565b6000602082019050610f936000830184610ea7565b92915050565b6000606082019050610fae6000830186610ea7565b610fbb6020830185610ea7565b610fc86040830184610f6f565b949350505050565b6000604082019050610fe56000830185610ea7565b610ff26020830184610eb6565b9392505050565b600060608201905061100e6000830186610ea7565b61101b6020830185610f6f565b6110286040830184610f6f565b949350505050565b60006020820190506110456000830184610ec5565b92915050565b60006020820190506110606000830184610ed4565b92915050565b6000602082019050818103600083015261107f81610ee3565b9050919050565b6000602082019050818103600083015261109f81610f06565b9050919050565b600060208201905081810360008301526110bf81610f29565b9050919050565b600060208201905081810360008301526110df81610f4c565b9050919050565b60006020820190506110fb6000830184610f6f565b92915050565b600082825260208201905092915050565b600061111d82611234565b915061112883611234565b9250827fffffffffffffffffffffffffffffffffffffffffffffffffffffffffffffffff0382111561115d5761115c611286565b5b828201905092915050565b600061117382611234565b915061117e83611234565b9250817fffffffffffffffffffffffffffffffffffffffffffffffffffffffffffffffff04831182151516156111b7576111b6611286565b5b828202905092915050565b60006111cd82611234565b91506111d883611234565b9250828210156111eb576111ea611286565b5b828203905092915050565b600061120182611214565b9050919050565b60008115159050919050565b600073ffffffffffffffffffffffffffffffffffffffff82169050919050565b6000819050919050565b600061124982611250565b9050919050565b600061125b82611214565b9050919050565b600061126d82611274565b9050919050565b600061127f82611214565b9050919050565b7f4e487b7100000000000000000000000000000000000000000000000000000000600052601160045260246000fd5b7f4f776e61626c653a206e6577206f776e657220697320746865207a65726f206160008201527f6464726573730000000000000000000000000000000000000000000000000000602082015250565b7f4661726d696e673a206973206578697374000000000000000000000000000000600082015250565b7f4661726d696e673a2053656e6465722069736e277420746f6b656e2773206f7760008201527f6e65720000000000000000000000000000000000000000000000000000000000602082015250565b7f4f776e61626c653a2063616c6c6572206973206e6f7420746865206f776e6572600082015250565b6113ae816111f6565b81146113b957600080fd5b50565b6113c581611208565b81146113d057600080fd5b50565b6113dc81611234565b81146113e757600080fd5b5056fea2646970667358221220f9671db9e07e1b863a89b1b759d22709dba9656ba3fe77295736424a1768567864736f6c63430008040033",
  "linkReferences": {},
  "deployedLinkReferences": {}
}