{
  "_format": "hh-sol-artifact-1",
  "contractName": "LootBoxFactory",
  "sourceName": "contracts/LootBoxFactory.sol",
  "abi": [
    {
      "inputs": [
        {
          "internalType": "address",
          "name": "_nft",
          "type": "address"
        }
      ],
      "stateMutability": "nonpayable",
      "type": "constructor"
    },
    {
      "anonymous": false,
      "inputs": [
        {
          "indexed": false,
          "internalType": "uint256",
          "name": "price",
          "type": "uint256"
        },
        {
          "indexed": false,
          "internalType": "uint256",
          "name": "maxCount",
          "type": "uint256"
        },
        {
          "indexed": false,
          "internalType": "uint256",
          "name": "boxId",
          "type": "uint256"
        }
      ],
      "name": "NewBoxAdded",
      "type": "event"
    },
    {
      "anonymous": false,
      "inputs": [
        {
          "indexed": false,
          "internalType": "address",
          "name": "buyer",
          "type": "address"
        },
        {
          "indexed": false,
          "internalType": "uint256",
          "name": "boxId",
          "type": "uint256"
        }
      ],
      "name": "NewBoxBought",
      "type": "event"
    },
    {
      "anonymous": false,
      "inputs": [
        {
          "indexed": false,
          "internalType": "address payable",
          "name": "newSeller",
          "type": "address"
        }
      ],
      "name": "NewSeller",
      "type": "event"
    },
    {
      "anonymous": false,
      "inputs": [
        {
          "indexed": true,
          "internalType": "address",
          "name": "previousOwner",
          "type": "address"
        },
        {
          "indexed": true,
          "internalType": "address",
          "name": "newOwner",
          "type": "address"
        }
      ],
      "name": "OwnershipTransferred",
      "type": "event"
    },
    {
      "inputs": [
        {
          "internalType": "uint16[6]",
          "name": "rand_",
          "type": "uint16[6]"
        },
        {
          "internalType": "uint256",
          "name": "price_",
          "type": "uint256"
        },
        {
          "internalType": "uint256",
          "name": "maxCount_",
          "type": "uint256"
        }
      ],
      "name": "addNewBox",
      "outputs": [],
      "stateMutability": "nonpayable",
      "type": "function"
    },
    {
      "inputs": [
        {
          "internalType": "uint256",
          "name": "",
          "type": "uint256"
        }
      ],
      "name": "boxes",
      "outputs": [
        {
          "internalType": "uint256",
          "name": "price",
          "type": "uint256"
        },
        {
          "internalType": "uint256",
          "name": "maxCount",
          "type": "uint256"
        },
        {
          "internalType": "uint256",
          "name": "currentCount",
          "type": "uint256"
        }
      ],
      "stateMutability": "view",
      "type": "function"
    },
    {
      "inputs": [
        {
          "internalType": "uint256",
          "name": "_boxId",
          "type": "uint256"
        }
      ],
      "name": "buyBox",
      "outputs": [],
      "stateMutability": "payable",
      "type": "function"
    },
    {
      "inputs": [
        {
          "internalType": "uint256",
          "name": "boxId_",
          "type": "uint256"
        }
      ],
      "name": "getBox",
      "outputs": [
        {
          "components": [
            {
              "internalType": "uint16[6]",
              "name": "rand",
              "type": "uint16[6]"
            },
            {
              "internalType": "uint256",
              "name": "price",
              "type": "uint256"
            },
            {
              "internalType": "uint256",
              "name": "maxCount",
              "type": "uint256"
            },
            {
              "internalType": "uint256",
              "name": "currentCount",
              "type": "uint256"
            }
          ],
          "internalType": "struct LootBoxFactory.LootBox",
          "name": "",
          "type": "tuple"
        }
      ],
      "stateMutability": "view",
      "type": "function"
    },
    {
      "inputs": [],
      "name": "nft",
      "outputs": [
        {
          "internalType": "contract ICyberWayNFT",
          "name": "",
          "type": "address"
        }
      ],
      "stateMutability": "view",
      "type": "function"
    },
    {
      "inputs": [],
      "name": "owner",
      "outputs": [
        {
          "internalType": "address",
          "name": "",
          "type": "address"
        }
      ],
      "stateMutability": "view",
      "type": "function"
    },
    {
      "inputs": [],
      "name": "renounceOwnership",
      "outputs": [],
      "stateMutability": "nonpayable",
      "type": "function"
    },
    {
      "inputs": [],
      "name": "seller",
      "outputs": [
        {
          "internalType": "address payable",
          "name": "",
          "type": "address"
        }
      ],
      "stateMutability": "view",
      "type": "function"
    },
    {
      "inputs": [
        {
          "internalType": "address",
          "name": "newOwner",
          "type": "address"
        }
      ],
      "name": "transferOwnership",
      "outputs": [],
      "stateMutability": "nonpayable",
      "type": "function"
    },
    {
      "inputs": [
        {
          "internalType": "address payable",
          "name": "newSeller_",
          "type": "address"
        }
      ],
      "name": "updateSellerAddress",
      "outputs": [],
      "stateMutability": "nonpayable",
      "type": "function"
    },
    {
      "stateMutability": "payable",
      "type": "receive"
    }
  ],
  "bytecode": "0x608060405260006001553480156200001657600080fd5b5060405162001fae38038062001fae83398181016040528101906200003c9190620004c0565b6200005c620000506200028860201b60201c565b6200029060201b60201c565b80600260006101000a81548173ffffffffffffffffffffffffffffffffffffffff021916908373ffffffffffffffffffffffffffffffffffffffff16021790555033600460006101000a81548173ffffffffffffffffffffffffffffffffffffffff021916908373ffffffffffffffffffffffffffffffffffffffff160217905550620001466040518060c0016040528061014a61ffff168152602001602161ffff168152602001600261ffff16815260200161023a61ffff168152602001603c61ffff168152602001600561ffff1681525066e35fa931a00000614e206200035460201b60201c565b620001af6040518060c0016040528061010e61ffff168152602001605a61ffff168152602001600661ffff1681526020016101d661ffff168152602001609661ffff168152602001600e61ffff168152506702386f26fc1000006113886200035460201b60201c565b620002186040518060c0016040528061010e61ffff16815260200160b461ffff168152602001602861ffff16815260200161010e61ffff16815260200160c861ffff168152602001602861ffff168152506705f7aab8c56b00006103e86200035460201b60201c565b620002816040518060c00160405280600061ffff16815260200160fa61ffff16815260200161015e61ffff168152602001600061ffff168152602001600061ffff16815260200161019061ffff16815250670e92596fd62900006101906200035460201b60201c565b506200053a565b600033905090565b60008060009054906101000a900473ffffffffffffffffffffffffffffffffffffffff169050816000806101000a81548173ffffffffffffffffffffffffffffffffffffffff021916908373ffffffffffffffffffffffffffffffffffffffff1602179055508173ffffffffffffffffffffffffffffffffffffffff168173ffffffffffffffffffffffffffffffffffffffff167f8be0079c531659141344cd1fd0a4f28419497f9722a3daafe3b4186f6b6457e060405160405180910390a35050565b60006040518060800160405280858152602001848152602001838152602001600081525090506003819080600181540180825580915050600190039060005260206000209060040201600090919091909150600082015181600001906006620003bf929190620003e6565b50602082015181600101556040820151816002015560608201518160030155505050505050565b826006600f01601090048101928215620004775791602002820160005b838211156200044557835183826101000a81548161ffff021916908361ffff160217905550926020019260020160208160010104928301926001030262000403565b8015620004755782816101000a81549061ffff021916905560020160208160010104928301926001030262000445565b505b5090506200048691906200048a565b5090565b5b80821115620004a55760008160009055506001016200048b565b5090565b600081519050620004ba8162000520565b92915050565b600060208284031215620004d357600080fd5b6000620004e384828501620004a9565b91505092915050565b6000620004f98262000500565b9050919050565b600073ffffffffffffffffffffffffffffffffffffffff82169050919050565b6200052b81620004ec565b81146200053757600080fd5b50565b611a64806200054a6000396000f3fe6080604052600436106100955760003560e01c8063715018a611610059578063715018a61461017e5780638da5cb5b14610195578063c6fc9656146101c0578063e3b14ad1146101e9578063f2fde38b146102265761009f565b806308551a53146100a45780633e049343146100cf57806347ccca02146100eb5780634ed3faf214610116578063685dab8f146101555761009f565b3661009f57600080fd5b600080fd5b3480156100b057600080fd5b506100b961024f565b6040516100c69190611353565b60405180910390f35b6100e960048036038101906100e4919061102e565b610275565b005b3480156100f757600080fd5b506101006105c3565b60405161010d91906113dc565b60405180910390f35b34801561012257600080fd5b5061013d6004803603810190610138919061102e565b6105e9565b60405161014c939291906114f3565b60405180910390f35b34801561016157600080fd5b5061017c60048036038101906101779190610fb5565b610623565b005b34801561018a57600080fd5b50610193610754565b005b3480156101a157600080fd5b506101aa6107dc565b6040516101b79190611338565b60405180910390f35b3480156101cc57600080fd5b506101e760048036038101906101e29190610fde565b610805565b005b3480156101f557600080fd5b50610210600480360381019061020b919061102e565b6108d1565b60405161021d91906114d7565b60405180910390f35b34801561023257600080fd5b5061024d60048036038101906102489190610f8c565b6109be565b005b600460009054906101000a900473ffffffffffffffffffffffffffffffffffffffff1681565b60038054905081106102bc576040517f08c379a00000000000000000000000000000000000000000000000000000000081526004016102b390611457565b60405180910390fd5b34600382815481106102f7577f4e487b7100000000000000000000000000000000000000000000000000000000600052603260045260246000fd5b90600052602060002090600402016001015414610349576040517f08c379a000000000000000000000000000000000000000000000000000000000815260040161034090611477565b60405180910390fd5b60038181548110610383577f4e487b7100000000000000000000000000000000000000000000000000000000600052603260045260246000fd5b9060005260206000209060040201600201546001600383815481106103d1577f4e487b7100000000000000000000000000000000000000000000000000000000600052603260045260246000fd5b9060005260206000209060040201600301546103ed91906115be565b1061042d576040517f08c379a000000000000000000000000000000000000000000000000000000000815260040161042490611497565b60405180910390fd5b600080600061043b84610ab6565b925092509250600260009054906101000a900473ffffffffffffffffffffffffffffffffffffffff1673ffffffffffffffffffffffffffffffffffffffff1663a647e8ec338585856040518563ffffffff1660e01b81526004016104a29493929190611397565b602060405180830381600087803b1580156104bc57600080fd5b505af11580156104d0573d6000803e3d6000fd5b505050506040513d601f19601f820116820180604052508101906104f49190611057565b50610521600460009054906101000a900473ffffffffffffffffffffffffffffffffffffffff1634610ae3565b60016003858154811061055d577f4e487b7100000000000000000000000000000000000000000000000000000000600052603260045260246000fd5b9060005260206000209060040201600301600082825461057d91906115be565b925050819055507face1f55dace1a694aa6bc3f8f97761e0cc819141bb7c8a72f54dbac6264ce17833856040516105b592919061136e565b60405180910390a150505050565b600260009054906101000a900473ffffffffffffffffffffffffffffffffffffffff1681565b600381815481106105f957600080fd5b90600052602060002090600402016000915090508060010154908060020154908060030154905083565b61062b610bd7565b73ffffffffffffffffffffffffffffffffffffffff166106496107dc565b73ffffffffffffffffffffffffffffffffffffffff161461069f576040517f08c379a0000000000000000000000000000000000000000000000000000000008152600401610696906114b7565b60405180910390fd5b600073ffffffffffffffffffffffffffffffffffffffff168173ffffffffffffffffffffffffffffffffffffffff1614156106d957600080fd5b80600460006101000a81548173ffffffffffffffffffffffffffffffffffffffff021916908373ffffffffffffffffffffffffffffffffffffffff1602179055507f258a7a0df6106f41c2e99c09f1b64931f5f284242bbc50272d5a752ac2f30dde816040516107499190611353565b60405180910390a150565b61075c610bd7565b73ffffffffffffffffffffffffffffffffffffffff1661077a6107dc565b73ffffffffffffffffffffffffffffffffffffffff16146107d0576040517f08c379a00000000000000000000000000000000000000000000000000000000081526004016107c7906114b7565b60405180910390fd5b6107da6000610bdf565b565b60008060009054906101000a900473ffffffffffffffffffffffffffffffffffffffff16905090565b61080d610bd7565b73ffffffffffffffffffffffffffffffffffffffff1661082b6107dc565b73ffffffffffffffffffffffffffffffffffffffff1614610881576040517f08c379a0000000000000000000000000000000000000000000000000000000008152600401610878906114b7565b60405180910390fd5b61088c838383610ca3565b7f36c29c356cf93403c2a577abfb45f00a773f6aadf00a784d4e6f49b1794d8e1b82826003805490506040516108c4939291906114f3565b60405180910390a1505050565b6108d9610d8f565b60038281548110610913577f4e487b7100000000000000000000000000000000000000000000000000000000600052603260045260246000fd5b906000526020600020906004020160405180608001604052908160008201600680602002604051908101604052809291908260068015610990576020028201916000905b82829054906101000a900461ffff1661ffff16815260200190600201906020826001010492830192600103820291508084116109575790505b5050505050815260200160018201548152602001600282015481526020016003820154815250509050919050565b6109c6610bd7565b73ffffffffffffffffffffffffffffffffffffffff166109e46107dc565b73ffffffffffffffffffffffffffffffffffffffff1614610a3a576040517f08c379a0000000000000000000000000000000000000000000000000000000008152600401610a31906114b7565b60405180910390fd5b600073ffffffffffffffffffffffffffffffffffffffff168173ffffffffffffffffffffffffffffffffffffffff161415610aaa576040517f08c379a0000000000000000000000000000000000000000000000000000000008152600401610aa1906113f7565b60405180910390fd5b610ab381610bdf565b50565b6000806000610ac484610d33565b9250610acf84610d33565b9150610ada84610d33565b90509193909250565b80471015610b26576040517f08c379a0000000000000000000000000000000000000000000000000000000008152600401610b1d90611437565b60405180910390fd5b60008273ffffffffffffffffffffffffffffffffffffffff1682604051610b4c906112e6565b60006040518083038185875af1925050503d8060008114610b89576040519150601f19603f3d011682016040523d82523d6000602084013e610b8e565b606091505b5050905080610bd2576040517f08c379a0000000000000000000000000000000000000000000000000000000008152600401610bc990611417565b60405180910390fd5b505050565b600033905090565b60008060009054906101000a900473ffffffffffffffffffffffffffffffffffffffff169050816000806101000a81548173ffffffffffffffffffffffffffffffffffffffff021916908373ffffffffffffffffffffffffffffffffffffffff1602179055508173ffffffffffffffffffffffffffffffffffffffff168173ffffffffffffffffffffffffffffffffffffffff167f8be0079c531659141344cd1fd0a4f28419497f9722a3daafe3b4186f6b6457e060405160405180910390a35050565b60006040518060800160405280858152602001848152602001838152602001600081525090506003819080600181540180825580915050600190039060005260206000209060040201600090919091909150600082015181600001906006610d0c929190610dbd565b50602082015181600101556040820151816002015560608201518160030155505050505050565b600060016000815480929190610d48906116c5565b9190505550814233600154604051602001610d65939291906112fb565b6040516020818303038152906040528051906020012060001c610d88919061173c565b9050919050565b6040518060800160405280610da2610e5a565b81526020016000815260200160008152602001600081525090565b826006600f01601090048101928215610e495791602002820160005b83821115610e1957835183826101000a81548161ffff021916908361ffff1602179055509260200192600201602081600101049283019260010302610dd9565b8015610e475782816101000a81549061ffff0219169055600201602081600101049283019260010302610e19565b505b509050610e569190610e7c565b5090565b6040518060c00160405280600690602082028036833780820191505090505090565b5b80821115610e95576000816000905550600101610e7d565b5090565b6000610eac610ea78461154f565b61152a565b90508082856020860282011115610ec257600080fd5b60005b85811015610ef25781610ed88882610f4d565b845260208401935060208301925050600181019050610ec5565b5050509392505050565b600081359050610f0b816119d2565b92915050565b600081359050610f20816119e9565b92915050565b600082601f830112610f3757600080fd5b6006610f44848285610e99565b91505092915050565b600081359050610f5c81611a00565b92915050565b600081359050610f7181611a17565b92915050565b600081519050610f8681611a17565b92915050565b600060208284031215610f9e57600080fd5b6000610fac84828501610efc565b91505092915050565b600060208284031215610fc757600080fd5b6000610fd584828501610f11565b91505092915050565b60008060006101008486031215610ff457600080fd5b600061100286828701610f26565b93505060c061101386828701610f62565b92505060e061102486828701610f62565b9150509250925092565b60006020828403121561104057600080fd5b600061104e84828501610f62565b91505092915050565b60006020828403121561106957600080fd5b600061107784828501610f77565b91505092915050565b600061108c83836112a2565b60208301905092915050565b6110a181611626565b82525050565b6110b081611614565b82525050565b6110c76110c282611614565b61170e565b82525050565b6110d68161157f565b6110e08184611597565b92506110eb82611575565b8060005b8381101561111c5781516111038782611080565b965061110e8361158a565b9250506001810190506110ef565b505050505050565b61112d81611670565b82525050565b60006111406026836115ad565b915061114b82611818565b604082019050919050565b6000611163603a836115ad565b915061116e82611867565b604082019050919050565b6000611186601d836115ad565b9150611191826118b6565b602082019050919050565b60006111a96024836115ad565b91506111b4826118df565b604082019050919050565b60006111cc601f836115ad565b91506111d78261192e565b602082019050919050565b60006111ef6026836115ad565b91506111fa82611957565b604082019050919050565b60006112126020836115ad565b915061121d826119a6565b602082019050919050565b60006112356000836115a2565b9150611240826119cf565b600082019050919050565b6101208201600082015161126260008501826110cd565b50602082015161127560c08501826112b1565b50604082015161128860e08501826112b1565b50606082015161129c6101008501826112b1565b50505050565b6112ab81611638565b82525050565b6112ba81611666565b82525050565b6112c981611666565b82525050565b6112e06112db82611666565b611732565b82525050565b60006112f182611228565b9150819050919050565b600061130782866112cf565b60208201915061131782856110b6565b60148201915061132782846112cf565b602082019150819050949350505050565b600060208201905061134d60008301846110a7565b92915050565b60006020820190506113686000830184611098565b92915050565b600060408201905061138360008301856110a7565b61139060208301846112c0565b9392505050565b60006080820190506113ac60008301876110a7565b6113b960208301866112c0565b6113c660408301856112c0565b6113d360608301846112c0565b95945050505050565b60006020820190506113f16000830184611124565b92915050565b6000602082019050818103600083015261141081611133565b9050919050565b6000602082019050818103600083015261143081611156565b9050919050565b6000602082019050818103600083015261145081611179565b9050919050565b600060208201905081810360008301526114708161119c565b9050919050565b60006020820190508181036000830152611490816111bf565b9050919050565b600060208201905081810360008301526114b0816111e2565b9050919050565b600060208201905081810360008301526114d081611205565b9050919050565b6000610120820190506114ed600083018461124b565b92915050565b600060608201905061150860008301866112c0565b61151560208301856112c0565b61152260408301846112c0565b949350505050565b6000611534611545565b90506115408282611694565b919050565b6000604051905090565b600067ffffffffffffffff82111561156a576115696117cb565b5b602082029050919050565b6000819050919050565b600060069050919050565b6000602082019050919050565b600081905092915050565b600081905092915050565b600082825260208201905092915050565b60006115c982611666565b91506115d483611666565b9250827fffffffffffffffffffffffffffffffffffffffffffffffffffffffffffffffff038211156116095761160861176d565b5b828201905092915050565b600061161f82611646565b9050919050565b600061163182611646565b9050919050565b600061ffff82169050919050565b600073ffffffffffffffffffffffffffffffffffffffff82169050919050565b6000819050919050565b600061167b82611682565b9050919050565b600061168d82611646565b9050919050565b61169d826117fa565b810181811067ffffffffffffffff821117156116bc576116bb6117cb565b5b80604052505050565b60006116d082611666565b91507fffffffffffffffffffffffffffffffffffffffffffffffffffffffffffffffff8214156117035761170261176d565b5b600182019050919050565b600061171982611720565b9050919050565b600061172b8261180b565b9050919050565b6000819050919050565b600061174782611666565b915061175283611666565b9250826117625761176161179c565b5b828206905092915050565b7f4e487b7100000000000000000000000000000000000000000000000000000000600052601160045260246000fd5b7f4e487b7100000000000000000000000000000000000000000000000000000000600052601260045260246000fd5b7f4e487b7100000000000000000000000000000000000000000000000000000000600052604160045260246000fd5b6000601f19601f8301169050919050565b60008160601b9050919050565b7f4f776e61626c653a206e6577206f776e657220697320746865207a65726f206160008201527f6464726573730000000000000000000000000000000000000000000000000000602082015250565b7f416464726573733a20756e61626c6520746f2073656e642076616c75652c207260008201527f6563697069656e74206d61792068617665207265766572746564000000000000602082015250565b7f416464726573733a20696e73756666696369656e742062616c616e6365000000600082015250565b7f4c6f6f74426f78466163746f72793a205468697320626f782069736e2774206560008201527f7869737400000000000000000000000000000000000000000000000000000000602082015250565b7f4c6f6f74426f78466163746f72793a20696e636f72726563742076616c756500600082015250565b7f4c6f6f74426f78466163746f72793a20626f78206c696d69742069732065786860008201527f6175737465640000000000000000000000000000000000000000000000000000602082015250565b7f4f776e61626c653a2063616c6c6572206973206e6f7420746865206f776e6572600082015250565b50565b6119db81611614565b81146119e657600080fd5b50565b6119f281611626565b81146119fd57600080fd5b50565b611a0981611638565b8114611a1457600080fd5b50565b611a2081611666565b8114611a2b57600080fd5b5056fea2646970667358221220f226ff364c1607498d7da5c7f204526f602e824647212c845745c39183a4d1ae64736f6c63430008040033",
  "linkReferences": {},
  "deployedLinkReferences": {}
}