{
  "_format": "hh-sol-artifact-1",
  "contractName": "Merger",
  "sourceName": "contracts/Merger.sol",
  "abi": [
    {
      "inputs": [
        {
          "internalType": "address",
          "name": "_nft",
          "type": "address"
        }
      ],
      "stateMutability": "nonpayable",
      "type": "constructor"
    },
    {
      "anonymous": false,
      "inputs": [
        {
          "indexed": true,
          "internalType": "address",
          "name": "previousOwner",
          "type": "address"
        },
        {
          "indexed": true,
          "internalType": "address",
          "name": "newOwner",
          "type": "address"
        }
      ],
      "name": "OwnershipTransferred",
      "type": "event"
    },
    {
      "anonymous": false,
      "inputs": [
        {
          "indexed": false,
          "internalType": "address",
          "name": "recipient",
          "type": "address"
        },
        {
          "indexed": false,
          "internalType": "uint256",
          "name": "id",
          "type": "uint256"
        }
      ],
      "name": "SplitCompleted",
      "type": "event"
    },
    {
      "inputs": [
        {
          "internalType": "uint256[3]",
          "name": "_donors",
          "type": "uint256[3]"
        }
      ],
      "name": "merge",
      "outputs": [],
      "stateMutability": "nonpayable",
      "type": "function"
    },
    {
      "inputs": [],
      "name": "nft",
      "outputs": [
        {
          "internalType": "contract ICyberWayNFT",
          "name": "",
          "type": "address"
        }
      ],
      "stateMutability": "view",
      "type": "function"
    },
    {
      "inputs": [],
      "name": "owner",
      "outputs": [
        {
          "internalType": "address",
          "name": "",
          "type": "address"
        }
      ],
      "stateMutability": "view",
      "type": "function"
    },
    {
      "inputs": [],
      "name": "renounceOwnership",
      "outputs": [],
      "stateMutability": "nonpayable",
      "type": "function"
    },
    {
      "inputs": [
        {
          "internalType": "address",
          "name": "newOwner",
          "type": "address"
        }
      ],
      "name": "transferOwnership",
      "outputs": [],
      "stateMutability": "nonpayable",
      "type": "function"
    }
  ],
  "bytecode": "0x60806040523480156200001157600080fd5b5060405162001eb338038062001eb3833981810160405281019062000037919062000182565b620000576200004b6200009f60201b60201c565b620000a760201b60201c565b80600160006101000a81548173ffffffffffffffffffffffffffffffffffffffff021916908373ffffffffffffffffffffffffffffffffffffffff16021790555050620001fc565b600033905090565b60008060009054906101000a900473ffffffffffffffffffffffffffffffffffffffff169050816000806101000a81548173ffffffffffffffffffffffffffffffffffffffff021916908373ffffffffffffffffffffffffffffffffffffffff1602179055508173ffffffffffffffffffffffffffffffffffffffff168173ffffffffffffffffffffffffffffffffffffffff167f8be0079c531659141344cd1fd0a4f28419497f9722a3daafe3b4186f6b6457e060405160405180910390a35050565b6000815190506200017c81620001e2565b92915050565b6000602082840312156200019557600080fd5b6000620001a5848285016200016b565b91505092915050565b6000620001bb82620001c2565b9050919050565b600073ffffffffffffffffffffffffffffffffffffffff82169050919050565b620001ed81620001ae565b8114620001f957600080fd5b50565b611ca7806200020c6000396000f3fe608060405234801561001057600080fd5b50600436106100575760003560e01c806347ccca021461005c578063715018a61461007a5780638da5cb5b14610084578063bfecefc6146100a2578063f2fde38b146100be575b600080fd5b6100646100da565b604051610071919061187f565b60405180910390f35b610082610100565b005b61008c610188565b60405161009991906117bf565b60405180910390f35b6100bc60048036038101906100b79190611691565b6101b1565b005b6100d860048036038101906100d39190611668565b6113db565b005b600160009054906101000a900473ffffffffffffffffffffffffffffffffffffffff1681565b6101086114d3565b73ffffffffffffffffffffffffffffffffffffffff16610126610188565b73ffffffffffffffffffffffffffffffffffffffff161461017c576040517f08c379a0000000000000000000000000000000000000000000000000000000008152600401610173906118da565b60405180910390fd5b61018660006114db565b565b60008060009054906101000a900473ffffffffffffffffffffffffffffffffffffffff16905090565b600160009054906101000a900473ffffffffffffffffffffffffffffffffffffffff1673ffffffffffffffffffffffffffffffffffffffff1663cd4191b182600160038110610229577f4e487b7100000000000000000000000000000000000000000000000000000000600052603260045260246000fd5b60200201516040518263ffffffff1660e01b815260040161024a919061193a565b60206040518083038186803b15801561026257600080fd5b505afa158015610276573d6000803e3d6000fd5b505050506040513d601f19601f8201168201806040525081019061029a91906116ba565b600160009054906101000a900473ffffffffffffffffffffffffffffffffffffffff1673ffffffffffffffffffffffffffffffffffffffff1663cd4191b183600060038110610312577f4e487b7100000000000000000000000000000000000000000000000000000000600052603260045260246000fd5b60200201516040518263ffffffff1660e01b8152600401610333919061193a565b60206040518083038186803b15801561034b57600080fd5b505afa15801561035f573d6000803e3d6000fd5b505050506040513d601f19601f8201168201806040525081019061038391906116ba565b14801561055f5750600160009054906101000a900473ffffffffffffffffffffffffffffffffffffffff1673ffffffffffffffffffffffffffffffffffffffff1663cd4191b182600060038110610403577f4e487b7100000000000000000000000000000000000000000000000000000000600052603260045260246000fd5b60200201516040518263ffffffff1660e01b8152600401610424919061193a565b60206040518083038186803b15801561043c57600080fd5b505afa158015610450573d6000803e3d6000fd5b505050506040513d601f19601f8201168201806040525081019061047491906116ba565b600160009054906101000a900473ffffffffffffffffffffffffffffffffffffffff1673ffffffffffffffffffffffffffffffffffffffff1663cd4191b1836002600381106104ec577f4e487b7100000000000000000000000000000000000000000000000000000000600052603260045260246000fd5b60200201516040518263ffffffff1660e01b815260040161050d919061193a565b60206040518083038186803b15801561052557600080fd5b505afa158015610539573d6000803e3d6000fd5b505050506040513d601f19601f8201168201806040525081019061055d91906116ba565b145b801561065357506004600160009054906101000a900473ffffffffffffffffffffffffffffffffffffffff1673ffffffffffffffffffffffffffffffffffffffff1663cd4191b1836000600381106105e0577f4e487b7100000000000000000000000000000000000000000000000000000000600052603260045260246000fd5b60200201516040518263ffffffff1660e01b8152600401610601919061193a565b60206040518083038186803b15801561061957600080fd5b505afa15801561062d573d6000803e3d6000fd5b505050506040513d601f19601f8201168201806040525081019061065191906116ba565b105b610692576040517f08c379a00000000000000000000000000000000000000000000000000000000081526004016106899061191a565b60405180910390fd5b600160009054906101000a900473ffffffffffffffffffffffffffffffffffffffff1673ffffffffffffffffffffffffffffffffffffffff16630facebea8260016003811061070a577f4e487b7100000000000000000000000000000000000000000000000000000000600052603260045260246000fd5b60200201516040518263ffffffff1660e01b815260040161072b919061193a565b60206040518083038186803b15801561074357600080fd5b505afa158015610757573d6000803e3d6000fd5b505050506040513d601f19601f8201168201806040525081019061077b91906116ba565b600160009054906101000a900473ffffffffffffffffffffffffffffffffffffffff1673ffffffffffffffffffffffffffffffffffffffff16630facebea836000600381106107f3577f4e487b7100000000000000000000000000000000000000000000000000000000600052603260045260246000fd5b60200201516040518263ffffffff1660e01b8152600401610814919061193a565b60206040518083038186803b15801561082c57600080fd5b505afa158015610840573d6000803e3d6000fd5b505050506040513d601f19601f8201168201806040525081019061086491906116ba565b148015610a405750600160009054906101000a900473ffffffffffffffffffffffffffffffffffffffff1673ffffffffffffffffffffffffffffffffffffffff16630facebea826000600381106108e4577f4e487b7100000000000000000000000000000000000000000000000000000000600052603260045260246000fd5b60200201516040518263ffffffff1660e01b8152600401610905919061193a565b60206040518083038186803b15801561091d57600080fd5b505afa158015610931573d6000803e3d6000fd5b505050506040513d601f19601f8201168201806040525081019061095591906116ba565b600160009054906101000a900473ffffffffffffffffffffffffffffffffffffffff1673ffffffffffffffffffffffffffffffffffffffff16630facebea836002600381106109cd577f4e487b7100000000000000000000000000000000000000000000000000000000600052603260045260246000fd5b60200201516040518263ffffffff1660e01b81526004016109ee919061193a565b60206040518083038186803b158015610a0657600080fd5b505afa158015610a1a573d6000803e3d6000fd5b505050506040513d601f19601f82011682018060405250810190610a3e91906116ba565b145b610a7f576040517f08c379a0000000000000000000000000000000000000000000000000000000008152600401610a76906118ba565b60405180910390fd5b600160009054906101000a900473ffffffffffffffffffffffffffffffffffffffff1673ffffffffffffffffffffffffffffffffffffffff16638cfe966582600160038110610af7577f4e487b7100000000000000000000000000000000000000000000000000000000600052603260045260246000fd5b60200201516040518263ffffffff1660e01b8152600401610b18919061193a565b60206040518083038186803b158015610b3057600080fd5b505afa158015610b44573d6000803e3d6000fd5b505050506040513d601f19601f82011682018060405250810190610b6891906116ba565b600160009054906101000a900473ffffffffffffffffffffffffffffffffffffffff1673ffffffffffffffffffffffffffffffffffffffff16638cfe966583600060038110610be0577f4e487b7100000000000000000000000000000000000000000000000000000000600052603260045260246000fd5b60200201516040518263ffffffff1660e01b8152600401610c01919061193a565b60206040518083038186803b158015610c1957600080fd5b505afa158015610c2d573d6000803e3d6000fd5b505050506040513d601f19601f82011682018060405250810190610c5191906116ba565b148015610e2d5750600160009054906101000a900473ffffffffffffffffffffffffffffffffffffffff1673ffffffffffffffffffffffffffffffffffffffff16638cfe966582600060038110610cd1577f4e487b7100000000000000000000000000000000000000000000000000000000600052603260045260246000fd5b60200201516040518263ffffffff1660e01b8152600401610cf2919061193a565b60206040518083038186803b158015610d0a57600080fd5b505afa158015610d1e573d6000803e3d6000fd5b505050506040513d601f19601f82011682018060405250810190610d4291906116ba565b600160009054906101000a900473ffffffffffffffffffffffffffffffffffffffff1673ffffffffffffffffffffffffffffffffffffffff16638cfe966583600260038110610dba577f4e487b7100000000000000000000000000000000000000000000000000000000600052603260045260246000fd5b60200201516040518263ffffffff1660e01b8152600401610ddb919061193a565b60206040518083038186803b158015610df357600080fd5b505afa158015610e07573d6000803e3d6000fd5b505050506040513d601f19601f82011682018060405250810190610e2b91906116ba565b145b610e6c576040517f08c379a0000000000000000000000000000000000000000000000000000000008152600401610e63906118fa565b60405180910390fd5b60005b600381101561102357600160009054906101000a900473ffffffffffffffffffffffffffffffffffffffff1673ffffffffffffffffffffffffffffffffffffffff166342842e0e3330858560038110610ef1577f4e487b7100000000000000000000000000000000000000000000000000000000600052603260045260246000fd5b60200201516040518463ffffffff1660e01b8152600401610f14939291906117da565b600060405180830381600087803b158015610f2e57600080fd5b505af1158015610f42573d6000803e3d6000fd5b50505050600160009054906101000a900473ffffffffffffffffffffffffffffffffffffffff1673ffffffffffffffffffffffffffffffffffffffff166342966c68838360038110610fbd577f4e487b7100000000000000000000000000000000000000000000000000000000600052603260045260246000fd5b60200201516040518263ffffffff1660e01b8152600401610fde919061193a565b600060405180830381600087803b158015610ff857600080fd5b505af115801561100c573d6000803e3d6000fd5b50505050808061101b90611a98565b915050610e6f565b506000600160009054906101000a900473ffffffffffffffffffffffffffffffffffffffff1673ffffffffffffffffffffffffffffffffffffffff1663a647e8ec33600160009054906101000a900473ffffffffffffffffffffffffffffffffffffffff1673ffffffffffffffffffffffffffffffffffffffff16630facebea866000600381106110dd577f4e487b7100000000000000000000000000000000000000000000000000000000600052603260045260246000fd5b60200201516040518263ffffffff1660e01b81526004016110fe919061193a565b60206040518083038186803b15801561111657600080fd5b505afa15801561112a573d6000803e3d6000fd5b505050506040513d601f19601f8201168201806040525081019061114e91906116ba565b600160009054906101000a900473ffffffffffffffffffffffffffffffffffffffff1673ffffffffffffffffffffffffffffffffffffffff16638cfe9665876000600381106111c6577f4e487b7100000000000000000000000000000000000000000000000000000000600052603260045260246000fd5b60200201516040518263ffffffff1660e01b81526004016111e7919061193a565b60206040518083038186803b1580156111ff57600080fd5b505afa158015611213573d6000803e3d6000fd5b505050506040513d601f19601f8201168201806040525081019061123791906116ba565b60018060009054906101000a900473ffffffffffffffffffffffffffffffffffffffff1673ffffffffffffffffffffffffffffffffffffffff1663cd4191b1896000600381106112b0577f4e487b7100000000000000000000000000000000000000000000000000000000600052603260045260246000fd5b60200201516040518263ffffffff1660e01b81526004016112d1919061193a565b60206040518083038186803b1580156112e957600080fd5b505afa1580156112fd573d6000803e3d6000fd5b505050506040513d601f19601f8201168201806040525081019061132191906116ba565b61132b91906119b1565b6040518563ffffffff1660e01b815260040161134a949392919061183a565b602060405180830381600087803b15801561136457600080fd5b505af1158015611378573d6000803e3d6000fd5b505050506040513d601f19601f8201168201806040525081019061139c91906116ba565b90507f8631fa81f03d719a138fc5f15fc944030b2da7ce394bd56816f47950c347aa7133826040516113cf929190611811565b60405180910390a15050565b6113e36114d3565b73ffffffffffffffffffffffffffffffffffffffff16611401610188565b73ffffffffffffffffffffffffffffffffffffffff1614611457576040517f08c379a000000000000000000000000000000000000000000000000000000000815260040161144e906118da565b60405180910390fd5b600073ffffffffffffffffffffffffffffffffffffffff168173ffffffffffffffffffffffffffffffffffffffff1614156114c7576040517f08c379a00000000000000000000000000000000000000000000000000000000081526004016114be9061189a565b60405180910390fd5b6114d0816114db565b50565b600033905090565b60008060009054906101000a900473ffffffffffffffffffffffffffffffffffffffff169050816000806101000a81548173ffffffffffffffffffffffffffffffffffffffff021916908373ffffffffffffffffffffffffffffffffffffffff1602179055508173ffffffffffffffffffffffffffffffffffffffff168173ffffffffffffffffffffffffffffffffffffffff167f8be0079c531659141344cd1fd0a4f28419497f9722a3daafe3b4186f6b6457e060405160405180910390a35050565b60006115b26115ad8461197a565b611955565b905080828560208602820111156115c857600080fd5b60005b858110156115f857816115de888261163e565b8452602084019350602083019250506001810190506115cb565b5050509392505050565b60008135905061161181611c43565b92915050565b600082601f83011261162857600080fd5b600361163584828561159f565b91505092915050565b60008135905061164d81611c5a565b92915050565b60008151905061166281611c5a565b92915050565b60006020828403121561167a57600080fd5b600061168884828501611602565b91505092915050565b6000606082840312156116a357600080fd5b60006116b184828501611617565b91505092915050565b6000602082840312156116cc57600080fd5b60006116da84828501611653565b91505092915050565b6116ec81611a07565b82525050565b6116fb81611a43565b82525050565b600061170e6026836119a0565b915061171982611b50565b604082019050919050565b60006117316018836119a0565b915061173c82611b9f565b602082019050919050565b60006117546020836119a0565b915061175f82611bc8565b602082019050919050565b60006117776019836119a0565b915061178282611bf1565b602082019050919050565b600061179a601f836119a0565b91506117a582611c1a565b602082019050919050565b6117b981611a39565b82525050565b60006020820190506117d460008301846116e3565b92915050565b60006060820190506117ef60008301866116e3565b6117fc60208301856116e3565b61180960408301846117b0565b949350505050565b600060408201905061182660008301856116e3565b61183360208301846117b0565b9392505050565b600060808201905061184f60008301876116e3565b61185c60208301866117b0565b61186960408301856117b0565b61187660608301846117b0565b95945050505050565b600060208201905061189460008301846116f2565b92915050565b600060208201905081810360008301526118b381611701565b9050919050565b600060208201905081810360008301526118d381611724565b9050919050565b600060208201905081810360008301526118f381611747565b9050919050565b600060208201905081810360008301526119138161176a565b9050919050565b600060208201905081810360008301526119338161178d565b9050919050565b600060208201905061194f60008301846117b0565b92915050565b600061195f611970565b905061196b8282611a67565b919050565b6000604051905090565b600067ffffffffffffffff82111561199557611994611b10565b5b602082029050919050565b600082825260208201905092915050565b60006119bc82611a39565b91506119c783611a39565b9250827fffffffffffffffffffffffffffffffffffffffffffffffffffffffffffffffff038211156119fc576119fb611ae1565b5b828201905092915050565b6000611a1282611a19565b9050919050565b600073ffffffffffffffffffffffffffffffffffffffff82169050919050565b6000819050919050565b6000611a4e82611a55565b9050919050565b6000611a6082611a19565b9050919050565b611a7082611b3f565b810181811067ffffffffffffffff82111715611a8f57611a8e611b10565b5b80604052505050565b6000611aa382611a39565b91507fffffffffffffffffffffffffffffffffffffffffffffffffffffffffffffffff821415611ad657611ad5611ae1565b5b600182019050919050565b7f4e487b7100000000000000000000000000000000000000000000000000000000600052601160045260246000fd5b7f4e487b7100000000000000000000000000000000000000000000000000000000600052604160045260246000fd5b6000601f19601f8301169050919050565b7f4f776e61626c653a206e6577206f776e657220697320746865207a65726f206160008201527f6464726573730000000000000000000000000000000000000000000000000000602082015250565b7f53706c69747465723a206b696e64206e6f7420657175616c0000000000000000600082015250565b7f4f776e61626c653a2063616c6c6572206973206e6f7420746865206f776e6572600082015250565b7f53706c69747465723a20636f6c6f72206e6f7420657175616c00000000000000600082015250565b7f53706c69747465723a2072616e64206e6f7420657175616c206f72206d617800600082015250565b611c4c81611a07565b8114611c5757600080fd5b50565b611c6381611a39565b8114611c6e57600080fd5b5056fea2646970667358221220640a16fd0b8707ce5bd2f7795a75abc135e1fba141d6b5acc13889eb6d59260a64736f6c63430008040033",
  "linkReferences": {},
  "deployedLinkReferences": {}
}